{
  "contractName": "SecTor",
  "abi": [
    {
      "inputs": [],
      "stateMutability": "nonpayable",
      "type": "constructor"
    },
    {
      "inputs": [
        {
          "internalType": "address",
          "name": "_data",
          "type": "address"
        },
        {
          "internalType": "bytes",
          "name": "_signature",
          "type": "bytes"
        },
        {
          "internalType": "bytes",
          "name": "_exponent",
          "type": "bytes"
        },
        {
          "internalType": "bytes",
          "name": "_modulus",
          "type": "bytes"
        }
      ],
      "name": "verifyRSATest",
      "outputs": [
        {
          "internalType": "uint256",
          "name": "",
          "type": "uint256"
        }
      ],
      "stateMutability": "view",
      "type": "function"
    },
    {
      "inputs": [
        {
          "internalType": "address",
          "name": "a",
          "type": "address"
        }
      ],
      "name": "toBytes",
      "outputs": [
        {
          "internalType": "bytes",
          "name": "b",
          "type": "bytes"
        }
      ],
      "stateMutability": "pure",
      "type": "function"
    },
    {
      "inputs": [
        {
          "internalType": "address",
          "name": "_patron",
          "type": "address"
        },
        {
          "internalType": "bytes",
          "name": "_RSAPublicKeyExponent",
          "type": "bytes"
        },
        {
          "internalType": "bytes",
          "name": "_RSAPublicKeyModulus",
          "type": "bytes"
        }
      ],
      "name": "createPatron",
      "outputs": [
        {
          "components": [
            {
              "internalType": "address",
              "name": "owner",
              "type": "address"
            },
            {
              "internalType": "address",
              "name": "patron",
              "type": "address"
            },
            {
              "internalType": "bytes",
              "name": "patronRSAPubKeyExponent",
              "type": "bytes"
            },
            {
              "internalType": "bytes",
              "name": "patronRSAPubKeyModulus",
              "type": "bytes"
            },
            {
              "internalType": "bytes",
              "name": "patronBlindSignature",
              "type": "bytes"
            },
            {
              "internalType": "uint256",
              "name": "tokens",
              "type": "uint256"
            },
            {
              "internalType": "bool",
              "name": "isPatron",
              "type": "bool"
            },
            {
              "internalType": "bool",
              "name": "gotInitialTokens",
              "type": "bool"
            },
            {
              "internalType": "bytes",
              "name": "publicIdentity",
              "type": "bytes"
            },
            {
              "internalType": "bytes",
              "name": "publicIdentitySignature",
              "type": "bytes"
            }
          ],
          "internalType": "struct SecTor.Pseudonym",
          "name": "",
          "type": "tuple"
        }
      ],
      "stateMutability": "nonpayable",
      "type": "function"
    },
    {
      "inputs": [
        {
          "internalType": "address",
          "name": "_patron",
          "type": "address"
        },
        {
          "internalType": "bytes",
          "name": "_patronBlindSignature",
          "type": "bytes"
        }
      ],
      "name": "addPseudonym",
      "outputs": [
        {
          "components": [
            {
              "internalType": "address",
              "name": "owner",
              "type": "address"
            },
            {
              "internalType": "address",
              "name": "patron",
              "type": "address"
            },
            {
              "internalType": "bytes",
              "name": "patronRSAPubKeyExponent",
              "type": "bytes"
            },
            {
              "internalType": "bytes",
              "name": "patronRSAPubKeyModulus",
              "type": "bytes"
            },
            {
              "internalType": "bytes",
              "name": "patronBlindSignature",
              "type": "bytes"
            },
            {
              "internalType": "uint256",
              "name": "tokens",
              "type": "uint256"
            },
            {
              "internalType": "bool",
              "name": "isPatron",
              "type": "bool"
            },
            {
              "internalType": "bool",
              "name": "gotInitialTokens",
              "type": "bool"
            },
            {
              "internalType": "bytes",
              "name": "publicIdentity",
              "type": "bytes"
            },
            {
              "internalType": "bytes",
              "name": "publicIdentitySignature",
              "type": "bytes"
            }
          ],
          "internalType": "struct SecTor.Pseudonym",
          "name": "",
          "type": "tuple"
        }
      ],
      "stateMutability": "nonpayable",
      "type": "function"
    },
    {
      "inputs": [],
      "name": "grantInitialTokens",
      "outputs": [
        {
          "components": [
            {
              "internalType": "address",
              "name": "owner",
              "type": "address"
            },
            {
              "internalType": "address",
              "name": "patron",
              "type": "address"
            },
            {
              "internalType": "bytes",
              "name": "patronRSAPubKeyExponent",
              "type": "bytes"
            },
            {
              "internalType": "bytes",
              "name": "patronRSAPubKeyModulus",
              "type": "bytes"
            },
            {
              "internalType": "bytes",
              "name": "patronBlindSignature",
              "type": "bytes"
            },
            {
              "internalType": "uint256",
              "name": "tokens",
              "type": "uint256"
            },
            {
              "internalType": "bool",
              "name": "isPatron",
              "type": "bool"
            },
            {
              "internalType": "bool",
              "name": "gotInitialTokens",
              "type": "bool"
            },
            {
              "internalType": "bytes",
              "name": "publicIdentity",
              "type": "bytes"
            },
            {
              "internalType": "bytes",
              "name": "publicIdentitySignature",
              "type": "bytes"
            }
          ],
          "internalType": "struct SecTor.Pseudonym",
          "name": "",
          "type": "tuple"
        }
      ],
      "stateMutability": "nonpayable",
      "type": "function"
    },
    {
      "inputs": [
        {
          "internalType": "bytes",
          "name": "_hash",
          "type": "bytes"
        }
      ],
      "name": "addDocumentHash",
      "outputs": [
        {
          "components": [
            {
              "internalType": "bytes",
              "name": "hash",
              "type": "bytes"
            },
            {
              "internalType": "address",
              "name": "author",
              "type": "address"
            }
          ],
          "internalType": "struct SecTor.Document",
          "name": "",
          "type": "tuple"
        }
      ],
      "stateMutability": "nonpayable",
      "type": "function"
    },
    {
      "inputs": [
        {
          "internalType": "bytes",
          "name": "_publicIdentity",
          "type": "bytes"
        },
        {
          "internalType": "bytes",
          "name": "_publicIdentitySignature",
          "type": "bytes"
        },
        {
          "internalType": "bytes",
          "name": "_exponent",
          "type": "bytes"
        },
        {
          "internalType": "bytes",
          "name": "_modulus",
          "type": "bytes"
        }
      ],
      "name": "proveAuthorship",
      "outputs": [
        {
          "components": [
            {
              "internalType": "address",
              "name": "owner",
              "type": "address"
            },
            {
              "internalType": "address",
              "name": "patron",
              "type": "address"
            },
            {
              "internalType": "bytes",
              "name": "patronRSAPubKeyExponent",
              "type": "bytes"
            },
            {
              "internalType": "bytes",
              "name": "patronRSAPubKeyModulus",
              "type": "bytes"
            },
            {
              "internalType": "bytes",
              "name": "patronBlindSignature",
              "type": "bytes"
            },
            {
              "internalType": "uint256",
              "name": "tokens",
              "type": "uint256"
            },
            {
              "internalType": "bool",
              "name": "isPatron",
              "type": "bool"
            },
            {
              "internalType": "bool",
              "name": "gotInitialTokens",
              "type": "bool"
            },
            {
              "internalType": "bytes",
              "name": "publicIdentity",
              "type": "bytes"
            },
            {
              "internalType": "bytes",
              "name": "publicIdentitySignature",
              "type": "bytes"
            }
          ],
          "internalType": "struct SecTor.Pseudonym",
          "name": "",
          "type": "tuple"
        }
      ],
      "stateMutability": "nonpayable",
      "type": "function"
    },
    {
      "inputs": [],
      "name": "getCA",
      "outputs": [
        {
          "internalType": "address",
          "name": "",
          "type": "address"
        }
      ],
      "stateMutability": "view",
      "type": "function"
    },
    {
      "inputs": [],
      "name": "getPseudoList",
      "outputs": [
        {
          "internalType": "address[]",
          "name": "",
          "type": "address[]"
        }
      ],
      "stateMutability": "view",
      "type": "function"
    },
    {
      "inputs": [
        {
          "internalType": "address",
          "name": "_owner",
          "type": "address"
        }
      ],
      "name": "getPseudonym",
      "outputs": [
        {
          "components": [
            {
              "internalType": "address",
              "name": "owner",
              "type": "address"
            },
            {
              "internalType": "address",
              "name": "patron",
              "type": "address"
            },
            {
              "internalType": "bytes",
              "name": "patronRSAPubKeyExponent",
              "type": "bytes"
            },
            {
              "internalType": "bytes",
              "name": "patronRSAPubKeyModulus",
              "type": "bytes"
            },
            {
              "internalType": "bytes",
              "name": "patronBlindSignature",
              "type": "bytes"
            },
            {
              "internalType": "uint256",
              "name": "tokens",
              "type": "uint256"
            },
            {
              "internalType": "bool",
              "name": "isPatron",
              "type": "bool"
            },
            {
              "internalType": "bool",
              "name": "gotInitialTokens",
              "type": "bool"
            },
            {
              "internalType": "bytes",
              "name": "publicIdentity",
              "type": "bytes"
            },
            {
              "internalType": "bytes",
              "name": "publicIdentitySignature",
              "type": "bytes"
            }
          ],
          "internalType": "struct SecTor.Pseudonym",
          "name": "",
          "type": "tuple"
        }
      ],
      "stateMutability": "view",
      "type": "function"
    },
    {
      "inputs": [],
      "name": "getPatList",
      "outputs": [
        {
          "internalType": "address[]",
          "name": "",
          "type": "address[]"
        }
      ],
      "stateMutability": "view",
      "type": "function"
    },
    {
      "inputs": [
        {
          "internalType": "address",
          "name": "_owner",
          "type": "address"
        }
      ],
      "name": "getPatron",
      "outputs": [
        {
          "components": [
            {
              "internalType": "address",
              "name": "owner",
              "type": "address"
            },
            {
              "internalType": "address",
              "name": "patron",
              "type": "address"
            },
            {
              "internalType": "bytes",
              "name": "patronRSAPubKeyExponent",
              "type": "bytes"
            },
            {
              "internalType": "bytes",
              "name": "patronRSAPubKeyModulus",
              "type": "bytes"
            },
            {
              "internalType": "bytes",
              "name": "patronBlindSignature",
              "type": "bytes"
            },
            {
              "internalType": "uint256",
              "name": "tokens",
              "type": "uint256"
            },
            {
              "internalType": "bool",
              "name": "isPatron",
              "type": "bool"
            },
            {
              "internalType": "bool",
              "name": "gotInitialTokens",
              "type": "bool"
            },
            {
              "internalType": "bytes",
              "name": "publicIdentity",
              "type": "bytes"
            },
            {
              "internalType": "bytes",
              "name": "publicIdentitySignature",
              "type": "bytes"
            }
          ],
          "internalType": "struct SecTor.Pseudonym",
          "name": "",
          "type": "tuple"
        }
      ],
      "stateMutability": "view",
      "type": "function"
    },
    {
      "inputs": [],
      "name": "getDocHashes",
      "outputs": [
        {
          "internalType": "bytes[]",
          "name": "",
          "type": "bytes[]"
        }
      ],
      "stateMutability": "view",
      "type": "function"
    },
    {
      "inputs": [
        {
          "internalType": "bytes",
          "name": "_hash",
          "type": "bytes"
        }
      ],
      "name": "getDocument",
      "outputs": [
        {
          "components": [
            {
              "internalType": "bytes",
              "name": "hash",
              "type": "bytes"
            },
            {
              "internalType": "address",
              "name": "author",
              "type": "address"
            }
          ],
          "internalType": "struct SecTor.Document",
          "name": "",
          "type": "tuple"
        }
      ],
      "stateMutability": "view",
      "type": "function"
    },
    {
      "inputs": [],
      "name": "getInitialTokenGrant",
      "outputs": [
        {
          "internalType": "uint256",
          "name": "",
          "type": "uint256"
        }
      ],
      "stateMutability": "view",
      "type": "function"
    },
    {
      "inputs": [],
      "name": "getDocumentUploadCost",
      "outputs": [
        {
          "internalType": "uint256",
          "name": "",
          "type": "uint256"
        }
      ],
      "stateMutability": "view",
      "type": "function"
    }
  ],
  "bytecode": "0x6080604052737b5fb9a5535f2976cdc99c57d19111b2ed3cb9256000806101000a81548173ffffffffffffffffffffffffffffffffffffffff021916908373ffffffffffffffffffffffffffffffffffffffff160217905550600a600755600260085534801561006e57600080fd5b506155018061007e6000396000f3fe608060405234801561001057600080fd5b50600436106101005760003560e01c806378bd0af811610097578063e4897dd911610066578063e4897dd9146102fd578063f4a3764f1461031b578063f80a370f1461034b578063fd8cf8881461036957610100565b806378bd0af81461024f5780637aa408c01461027f57806380bc4aee146102af578063961f40ac146102cd57610100565b80632f3c3ad4116100d35780632f3c3ad4146101a15780633d70b1a4146101d1578063593b79fe146101ef5780636305988d1461021f57610100565b8063021dd34c14610105578063040ead311461012357806309385be61461014157806314547e1214610171575b600080fd5b61010d610387565b60405161011a919061511f565b60405180910390f35b61012b610415565b6040516101389190615247565b60405180910390f35b61015b60048036036101569190810190614897565b610f05565b6040516101689190615247565b60405180910390f35b61018b60048036036101869190810190614897565b611375565b6040516101989190615247565b60405180910390f35b6101bb60048036036101b69190810190614a67565b6117e5565b6040516101c89190615225565b60405180910390f35b6101d9612081565b6040516101e6919061511f565b60405180910390f35b61020960048036036102049190810190614897565b61210f565b6040516102169190615163565b60405180910390f35b610239600480360361023491908101906148c0565b6121d1565b6040516102469190615247565b60405180910390f35b61026960048036036102649190810190614aa8565b612b54565b6040516102769190615247565b60405180910390f35b61029960048036036102949190810190614a67565b613662565b6040516102a69190615225565b60405180910390f35b6102b7613792565b6040516102c49190615269565b60405180910390f35b6102e760048036036102e29190810190614993565b61379c565b6040516102f49190615269565b60405180910390f35b6103056137d3565b6040516103129190615141565b60405180910390f35b61033560048036036103309190810190614914565b6138bc565b6040516103429190615247565b60405180910390f35b6103536140a0565b6040516103609190615269565b60405180910390f35b6103716140aa565b60405161037e9190615104565b60405180910390f35b6060600280548060200260200160405190810160405280929190818152602001828054801561040b57602002820191906000526020600020905b8160009054906101000a900473ffffffffffffffffffffffffffffffffffffffff1673ffffffffffffffffffffffffffffffffffffffff16815260200190600101908083116103c1575b5050505050905090565b61041d61461e565b61042561461e565b600160003373ffffffffffffffffffffffffffffffffffffffff1673ffffffffffffffffffffffffffffffffffffffff168152602001908152602001600020604051806101400160405290816000820160009054906101000a900473ffffffffffffffffffffffffffffffffffffffff1673ffffffffffffffffffffffffffffffffffffffff1673ffffffffffffffffffffffffffffffffffffffff1681526020016001820160009054906101000a900473ffffffffffffffffffffffffffffffffffffffff1673ffffffffffffffffffffffffffffffffffffffff1673ffffffffffffffffffffffffffffffffffffffff168152602001600282018054600181600116156101000203166002900480601f0160208091040260200160405190810160405280929190818152602001828054600181600116156101000203166002900480156105b55780601f1061058a576101008083540402835291602001916105b5565b820191906000526020600020905b81548152906001019060200180831161059857829003601f168201915b50505050508152602001600382018054600181600116156101000203166002900480601f0160208091040260200160405190810160405280929190818152602001828054600181600116156101000203166002900480156106575780601f1061062c57610100808354040283529160200191610657565b820191906000526020600020905b81548152906001019060200180831161063a57829003601f168201915b50505050508152602001600482018054600181600116156101000203166002900480601f0160208091040260200160405190810160405280929190818152602001828054600181600116156101000203166002900480156106f95780601f106106ce576101008083540402835291602001916106f9565b820191906000526020600020905b8154815290600101906020018083116106dc57829003601f168201915b50505050508152602001600582015481526020016006820160009054906101000a900460ff161515151581526020016006820160019054906101000a900460ff16151515158152602001600782018054600181600116156101000203166002900480601f0160208091040260200160405190810160405280929190818152602001828054600181600116156101000203166002900480156107db5780601f106107b0576101008083540402835291602001916107db565b820191906000526020600020905b8154815290600101906020018083116107be57829003601f168201915b50505050508152602001600882018054600181600116156101000203166002900480601f01602080910402602001604051908101604052809291908181526020018280546001816001161561010002031660029004801561087d5780601f106108525761010080835404028352916020019161087d565b820191906000526020600020905b81548152906001019060200180831161086057829003601f168201915b5050505050815250509050600115158160e001511515146108d3576040517f08c379a00000000000000000000000000000000000000000000000000000000081526004016108ca906151a5565b60405180910390fd5b6007548160a001818152505060018160e001901515908115158152505080600160003373ffffffffffffffffffffffffffffffffffffffff1673ffffffffffffffffffffffffffffffffffffffff16815260200190815260200160002060008201518160000160006101000a81548173ffffffffffffffffffffffffffffffffffffffff021916908373ffffffffffffffffffffffffffffffffffffffff16021790555060208201518160010160006101000a81548173ffffffffffffffffffffffffffffffffffffffff021916908373ffffffffffffffffffffffffffffffffffffffff16021790555060408201518160020190805190602001906109da9291906146a1565b5060608201518160030190805190602001906109f79291906146a1565b506080820151816004019080519060200190610a149291906146a1565b5060a0820151816005015560c08201518160060160006101000a81548160ff02191690831515021790555060e08201518160060160016101000a81548160ff021916908315150217905550610100820151816007019080519060200190610a7c9291906146a1565b50610120820151816008019080519060200190610a9a9291906146a1565b50905050600160003373ffffffffffffffffffffffffffffffffffffffff1673ffffffffffffffffffffffffffffffffffffffff168152602001908152602001600020604051806101400160405290816000820160009054906101000a900473ffffffffffffffffffffffffffffffffffffffff1673ffffffffffffffffffffffffffffffffffffffff1673ffffffffffffffffffffffffffffffffffffffff1681526020016001820160009054906101000a900473ffffffffffffffffffffffffffffffffffffffff1673ffffffffffffffffffffffffffffffffffffffff1673ffffffffffffffffffffffffffffffffffffffff168152602001600282018054600181600116156101000203166002900480601f016020809104026020016040519081016040528092919081815260200182805460018160011615610100020316600290048015610c2e5780601f10610c0357610100808354040283529160200191610c2e565b820191906000526020600020905b815481529060010190602001808311610c1157829003601f168201915b50505050508152602001600382018054600181600116156101000203166002900480601f016020809104026020016040519081016040528092919081815260200182805460018160011615610100020316600290048015610cd05780601f10610ca557610100808354040283529160200191610cd0565b820191906000526020600020905b815481529060010190602001808311610cb357829003601f168201915b50505050508152602001600482018054600181600116156101000203166002900480601f016020809104026020016040519081016040528092919081815260200182805460018160011615610100020316600290048015610d725780601f10610d4757610100808354040283529160200191610d72565b820191906000526020600020905b815481529060010190602001808311610d5557829003601f168201915b50505050508152602001600582015481526020016006820160009054906101000a900460ff161515151581526020016006820160019054906101000a900460ff16151515158152602001600782018054600181600116156101000203166002900480601f016020809104026020016040519081016040528092919081815260200182805460018160011615610100020316600290048015610e545780601f10610e2957610100808354040283529160200191610e54565b820191906000526020600020905b815481529060010190602001808311610e3757829003601f168201915b50505050508152602001600882018054600181600116156101000203166002900480601f016020809104026020016040519081016040528092919081815260200182805460018160011615610100020316600290048015610ef65780601f10610ecb57610100808354040283529160200191610ef6565b820191906000526020600020905b815481529060010190602001808311610ed957829003601f168201915b50505050508152505091505090565b610f0d61461e565b600360008373ffffffffffffffffffffffffffffffffffffffff1673ffffffffffffffffffffffffffffffffffffffff168152602001908152602001600020604051806101400160405290816000820160009054906101000a900473ffffffffffffffffffffffffffffffffffffffff1673ffffffffffffffffffffffffffffffffffffffff1673ffffffffffffffffffffffffffffffffffffffff1681526020016001820160009054906101000a900473ffffffffffffffffffffffffffffffffffffffff1673ffffffffffffffffffffffffffffffffffffffff1673ffffffffffffffffffffffffffffffffffffffff168152602001600282018054600181600116156101000203166002900480601f01602080910402602001604051908101604052809291908181526020018280546001816001161561010002031660029004801561109d5780601f106110725761010080835404028352916020019161109d565b820191906000526020600020905b81548152906001019060200180831161108057829003601f168201915b50505050508152602001600382018054600181600116156101000203166002900480601f01602080910402602001604051908101604052809291908181526020018280546001816001161561010002031660029004801561113f5780601f106111145761010080835404028352916020019161113f565b820191906000526020600020905b81548152906001019060200180831161112257829003601f168201915b50505050508152602001600482018054600181600116156101000203166002900480601f0160208091040260200160405190810160405280929190818152602001828054600181600116156101000203166002900480156111e15780601f106111b6576101008083540402835291602001916111e1565b820191906000526020600020905b8154815290600101906020018083116111c457829003601f168201915b50505050508152602001600582015481526020016006820160009054906101000a900460ff161515151581526020016006820160019054906101000a900460ff16151515158152602001600782018054600181600116156101000203166002900480601f0160208091040260200160405190810160405280929190818152602001828054600181600116156101000203166002900480156112c35780601f10611298576101008083540402835291602001916112c3565b820191906000526020600020905b8154815290600101906020018083116112a657829003601f168201915b50505050508152602001600882018054600181600116156101000203166002900480601f0160208091040260200160405190810160405280929190818152602001828054600181600116156101000203166002900480156113655780601f1061133a57610100808354040283529160200191611365565b820191906000526020600020905b81548152906001019060200180831161134857829003601f168201915b5050505050815250509050919050565b61137d61461e565b600160008373ffffffffffffffffffffffffffffffffffffffff1673ffffffffffffffffffffffffffffffffffffffff168152602001908152602001600020604051806101400160405290816000820160009054906101000a900473ffffffffffffffffffffffffffffffffffffffff1673ffffffffffffffffffffffffffffffffffffffff1673ffffffffffffffffffffffffffffffffffffffff1681526020016001820160009054906101000a900473ffffffffffffffffffffffffffffffffffffffff1673ffffffffffffffffffffffffffffffffffffffff1673ffffffffffffffffffffffffffffffffffffffff168152602001600282018054600181600116156101000203166002900480601f01602080910402602001604051908101604052809291908181526020018280546001816001161561010002031660029004801561150d5780601f106114e25761010080835404028352916020019161150d565b820191906000526020600020905b8154815290600101906020018083116114f057829003601f168201915b50505050508152602001600382018054600181600116156101000203166002900480601f0160208091040260200160405190810160405280929190818152602001828054600181600116156101000203166002900480156115af5780601f10611584576101008083540402835291602001916115af565b820191906000526020600020905b81548152906001019060200180831161159257829003601f168201915b50505050508152602001600482018054600181600116156101000203166002900480601f0160208091040260200160405190810160405280929190818152602001828054600181600116156101000203166002900480156116515780601f1061162657610100808354040283529160200191611651565b820191906000526020600020905b81548152906001019060200180831161163457829003601f168201915b50505050508152602001600582015481526020016006820160009054906101000a900460ff161515151581526020016006820160019054906101000a900460ff16151515158152602001600782018054600181600116156101000203166002900480601f0160208091040260200160405190810160405280929190818152602001828054600181600116156101000203166002900480156117335780601f1061170857610100808354040283529160200191611733565b820191906000526020600020905b81548152906001019060200180831161171657829003601f168201915b50505050508152602001600882018054600181600116156101000203166002900480601f0160208091040260200160405190810160405280929190818152602001828054600181600116156101000203166002900480156117d55780601f106117aa576101008083540402835291602001916117d5565b820191906000526020600020905b8154815290600101906020018083116117b857829003601f168201915b5050505050815250509050919050565b6117ed614721565b6117f561461e565b600160003373ffffffffffffffffffffffffffffffffffffffff1673ffffffffffffffffffffffffffffffffffffffff168152602001908152602001600020604051806101400160405290816000820160009054906101000a900473ffffffffffffffffffffffffffffffffffffffff1673ffffffffffffffffffffffffffffffffffffffff1673ffffffffffffffffffffffffffffffffffffffff1681526020016001820160009054906101000a900473ffffffffffffffffffffffffffffffffffffffff1673ffffffffffffffffffffffffffffffffffffffff1673ffffffffffffffffffffffffffffffffffffffff168152602001600282018054600181600116156101000203166002900480601f0160208091040260200160405190810160405280929190818152602001828054600181600116156101000203166002900480156119855780601f1061195a57610100808354040283529160200191611985565b820191906000526020600020905b81548152906001019060200180831161196857829003601f168201915b50505050508152602001600382018054600181600116156101000203166002900480601f016020809104026020016040519081016040528092919081815260200182805460018160011615610100020316600290048015611a275780601f106119fc57610100808354040283529160200191611a27565b820191906000526020600020905b815481529060010190602001808311611a0a57829003601f168201915b50505050508152602001600482018054600181600116156101000203166002900480601f016020809104026020016040519081016040528092919081815260200182805460018160011615610100020316600290048015611ac95780601f10611a9e57610100808354040283529160200191611ac9565b820191906000526020600020905b815481529060010190602001808311611aac57829003601f168201915b50505050508152602001600582015481526020016006820160009054906101000a900460ff161515151581526020016006820160019054906101000a900460ff16151515158152602001600782018054600181600116156101000203166002900480601f016020809104026020016040519081016040528092919081815260200182805460018160011615610100020316600290048015611bab5780601f10611b8057610100808354040283529160200191611bab565b820191906000526020600020905b815481529060010190602001808311611b8e57829003601f168201915b50505050508152602001600882018054600181600116156101000203166002900480601f016020809104026020016040519081016040528092919081815260200182805460018160011615610100020316600290048015611c4d5780601f10611c2257610100808354040283529160200191611c4d565b820191906000526020600020905b815481529060010190602001808311611c3057829003601f168201915b50505050508152505090506008548160a0015110611ca0576040517f08c379a0000000000000000000000000000000000000000000000000000000008152600401611c97906151e5565b60405180910390fd5b6008548160a00151038160a0018181525050611cba614721565b60405180604001604052808581526020013373ffffffffffffffffffffffffffffffffffffffff16815250905080600585604051611cf891906150ed565b90815260200160405180910390206000820151816000019080519060200190611d229291906146a1565b5060208201518160010160006101000a81548173ffffffffffffffffffffffffffffffffffffffff021916908373ffffffffffffffffffffffffffffffffffffffff16021790555090505081600160003373ffffffffffffffffffffffffffffffffffffffff1673ffffffffffffffffffffffffffffffffffffffff16815260200190815260200160002060008201518160000160006101000a81548173ffffffffffffffffffffffffffffffffffffffff021916908373ffffffffffffffffffffffffffffffffffffffff16021790555060208201518160010160006101000a81548173ffffffffffffffffffffffffffffffffffffffff021916908373ffffffffffffffffffffffffffffffffffffffff1602179055506040820151816002019080519060200190611e579291906146a1565b506060820151816003019080519060200190611e749291906146a1565b506080820151816004019080519060200190611e919291906146a1565b5060a0820151816005015560c08201518160060160006101000a81548160ff02191690831515021790555060e08201518160060160016101000a81548160ff021916908315150217905550610100820151816007019080519060200190611ef99291906146a1565b50610120820151816008019080519060200190611f179291906146a1565b50905050600684908060018154018082558091505060019003906000526020600020016000909190919091509080519060200190611f56929190614751565b50600584604051611f6791906150ed565b9081526020016040518091039020604051806040016040529081600082018054600181600116156101000203166002900480601f0160208091040260200160405190810160405280929190818152602001828054600181600116156101000203166002900480156120195780601f10611fee57610100808354040283529160200191612019565b820191906000526020600020905b815481529060010190602001808311611ffc57829003601f168201915b505050505081526020016001820160009054906101000a900473ffffffffffffffffffffffffffffffffffffffff1673ffffffffffffffffffffffffffffffffffffffff1673ffffffffffffffffffffffffffffffffffffffff168152505092505050919050565b6060600480548060200260200160405190810160405280929190818152602001828054801561210557602002820191906000526020600020905b8160009054906101000a900473ffffffffffffffffffffffffffffffffffffffff1673ffffffffffffffffffffffffffffffffffffffff16815260200190600101908083116120bb575b5050505050905090565b606060146040519080825280601f01601f1916602001820160405280156121455781602001600182028038833980820191505090505b50905060008090505b60148110156121cb578060130360080260020a8373ffffffffffffffffffffffffffffffffffffffff168161217f57fe5b0460f81b82828151811061218f57fe5b60200101907effffffffffffffffffffffffffffffffffffffffffffffffffffffffffffff1916908160001a905350808060010191505061214e565b50919050565b6121d961461e565b6000600360008573ffffffffffffffffffffffffffffffffffffffff1673ffffffffffffffffffffffffffffffffffffffff1681526020019081526020016000209050600115158160060160009054906101000a900460ff16151514612274576040517f08c379a000000000000000000000000000000000000000000000000000000000815260040161226b90615205565b60405180910390fd5b60006123d93360405160200161228a91906150d2565b60405160208183030381529060405285846002018054600181600116156101000203166002900480601f0160208091040260200160405190810160405280929190818152602001828054600181600116156101000203166002900480156123325780601f1061230757610100808354040283529160200191612332565b820191906000526020600020905b81548152906001019060200180831161231557829003601f168201915b5050505050856003018054600181600116156101000203166002900480601f0160208091040260200160405190810160405280929190818152602001828054600181600116156101000203166002900480156123cf5780601f106123a4576101008083540402835291602001916123cf565b820191906000526020600020905b8154815290600101906020018083116123b257829003601f168201915b50505050506140d3565b14612419576040517f08c379a0000000000000000000000000000000000000000000000000000000008152600401612410906151c5565b60405180910390fd5b61242161461e565b6040518061014001604052803373ffffffffffffffffffffffffffffffffffffffff1681526020018673ffffffffffffffffffffffffffffffffffffffff1681526020016040518060200160405280600081525081526020016040518060200160405280600081525081526020018581526020016000815260200160001515815260200160001515815260200160405180602001604052806000815250815260200160405180602001604052806000815250815250905080600160003373ffffffffffffffffffffffffffffffffffffffff1673ffffffffffffffffffffffffffffffffffffffff16815260200190815260200160002060008201518160000160006101000a81548173ffffffffffffffffffffffffffffffffffffffff021916908373ffffffffffffffffffffffffffffffffffffffff16021790555060208201518160010160006101000a81548173ffffffffffffffffffffffffffffffffffffffff021916908373ffffffffffffffffffffffffffffffffffffffff16021790555060408201518160020190805190602001906125c29291906146a1565b5060608201518160030190805190602001906125df9291906146a1565b5060808201518160040190805190602001906125fc9291906146a1565b5060a0820151816005015560c08201518160060160006101000a81548160ff02191690831515021790555060e08201518160060160016101000a81548160ff0219169083151502179055506101008201518160070190805190602001906126649291906146a1565b506101208201518160080190805190602001906126829291906146a1565b509050506002339080600181540180825580915050600190039060005260206000200160009091909190916101000a81548173ffffffffffffffffffffffffffffffffffffffff021916908373ffffffffffffffffffffffffffffffffffffffff160217905550600160003373ffffffffffffffffffffffffffffffffffffffff1673ffffffffffffffffffffffffffffffffffffffff168152602001908152602001600020604051806101400160405290816000820160009054906101000a900473ffffffffffffffffffffffffffffffffffffffff1673ffffffffffffffffffffffffffffffffffffffff1673ffffffffffffffffffffffffffffffffffffffff1681526020016001820160009054906101000a900473ffffffffffffffffffffffffffffffffffffffff1673ffffffffffffffffffffffffffffffffffffffff1673ffffffffffffffffffffffffffffffffffffffff168152602001600282018054600181600116156101000203166002900480601f0160208091040260200160405190810160405280929190818152602001828054600181600116156101000203166002900480156128795780601f1061284e57610100808354040283529160200191612879565b820191906000526020600020905b81548152906001019060200180831161285c57829003601f168201915b50505050508152602001600382018054600181600116156101000203166002900480601f01602080910402602001604051908101604052809291908181526020018280546001816001161561010002031660029004801561291b5780601f106128f05761010080835404028352916020019161291b565b820191906000526020600020905b8154815290600101906020018083116128fe57829003601f168201915b50505050508152602001600482018054600181600116156101000203166002900480601f0160208091040260200160405190810160405280929190818152602001828054600181600116156101000203166002900480156129bd5780601f10612992576101008083540402835291602001916129bd565b820191906000526020600020905b8154815290600101906020018083116129a057829003601f168201915b50505050508152602001600582015481526020016006820160009054906101000a900460ff161515151581526020016006820160019054906101000a900460ff16151515158152602001600782018054600181600116156101000203166002900480601f016020809104026020016040519081016040528092919081815260200182805460018160011615610100020316600290048015612a9f5780601f10612a7457610100808354040283529160200191612a9f565b820191906000526020600020905b815481529060010190602001808311612a8257829003601f168201915b50505050508152602001600882018054600181600116156101000203166002900480601f016020809104026020016040519081016040528092919081815260200182805460018160011615610100020316600290048015612b415780601f10612b1657610100808354040283529160200191612b41565b820191906000526020600020905b815481529060010190602001808311612b2457829003601f168201915b5050505050815250509250505092915050565b612b5c61461e565b612b6461461e565b600160003373ffffffffffffffffffffffffffffffffffffffff1673ffffffffffffffffffffffffffffffffffffffff168152602001908152602001600020604051806101400160405290816000820160009054906101000a900473ffffffffffffffffffffffffffffffffffffffff1673ffffffffffffffffffffffffffffffffffffffff1673ffffffffffffffffffffffffffffffffffffffff1681526020016001820160009054906101000a900473ffffffffffffffffffffffffffffffffffffffff1673ffffffffffffffffffffffffffffffffffffffff1673ffffffffffffffffffffffffffffffffffffffff168152602001600282018054600181600116156101000203166002900480601f016020809104026020016040519081016040528092919081815260200182805460018160011615610100020316600290048015612cf45780601f10612cc957610100808354040283529160200191612cf4565b820191906000526020600020905b815481529060010190602001808311612cd757829003601f168201915b50505050508152602001600382018054600181600116156101000203166002900480601f016020809104026020016040519081016040528092919081815260200182805460018160011615610100020316600290048015612d965780601f10612d6b57610100808354040283529160200191612d96565b820191906000526020600020905b815481529060010190602001808311612d7957829003601f168201915b50505050508152602001600482018054600181600116156101000203166002900480601f016020809104026020016040519081016040528092919081815260200182805460018160011615610100020316600290048015612e385780601f10612e0d57610100808354040283529160200191612e38565b820191906000526020600020905b815481529060010190602001808311612e1b57829003601f168201915b50505050508152602001600582015481526020016006820160009054906101000a900460ff161515151581526020016006820160019054906101000a900460ff16151515158152602001600782018054600181600116156101000203166002900480601f016020809104026020016040519081016040528092919081815260200182805460018160011615610100020316600290048015612f1a5780601f10612eef57610100808354040283529160200191612f1a565b820191906000526020600020905b815481529060010190602001808311612efd57829003601f168201915b50505050508152602001600882018054600181600116156101000203166002900480601f016020809104026020016040519081016040528092919081815260200182805460018160011615610100020316600290048015612fbc5780601f10612f9157610100808354040283529160200191612fbc565b820191906000526020600020905b815481529060010190602001808311612f9f57829003601f168201915b50505050508152505090506000612ff433604051602001612fdd91906150d2565b6040516020818303038152906040528787876140d3565b14613034576040517f08c379a000000000000000000000000000000000000000000000000000000000815260040161302b906151c5565b60405180910390fd5b858161010001819052508481610120018190525080600160003373ffffffffffffffffffffffffffffffffffffffff1673ffffffffffffffffffffffffffffffffffffffff16815260200190815260200160002060008201518160000160006101000a81548173ffffffffffffffffffffffffffffffffffffffff021916908373ffffffffffffffffffffffffffffffffffffffff16021790555060208201518160010160006101000a81548173ffffffffffffffffffffffffffffffffffffffff021916908373ffffffffffffffffffffffffffffffffffffffff16021790555060408201518160020190805190602001906131329291906146a1565b50606082015181600301908051906020019061314f9291906146a1565b50608082015181600401908051906020019061316c9291906146a1565b5060a0820151816005015560c08201518160060160006101000a81548160ff02191690831515021790555060e08201518160060160016101000a81548160ff0219169083151502179055506101008201518160070190805190602001906131d49291906146a1565b506101208201518160080190805190602001906131f29291906146a1565b50905050600160003373ffffffffffffffffffffffffffffffffffffffff1673ffffffffffffffffffffffffffffffffffffffff168152602001908152602001600020604051806101400160405290816000820160009054906101000a900473ffffffffffffffffffffffffffffffffffffffff1673ffffffffffffffffffffffffffffffffffffffff1673ffffffffffffffffffffffffffffffffffffffff1681526020016001820160009054906101000a900473ffffffffffffffffffffffffffffffffffffffff1673ffffffffffffffffffffffffffffffffffffffff1673ffffffffffffffffffffffffffffffffffffffff168152602001600282018054600181600116156101000203166002900480601f0160208091040260200160405190810160405280929190818152602001828054600181600116156101000203166002900480156133865780601f1061335b57610100808354040283529160200191613386565b820191906000526020600020905b81548152906001019060200180831161336957829003601f168201915b50505050508152602001600382018054600181600116156101000203166002900480601f0160208091040260200160405190810160405280929190818152602001828054600181600116156101000203166002900480156134285780601f106133fd57610100808354040283529160200191613428565b820191906000526020600020905b81548152906001019060200180831161340b57829003601f168201915b50505050508152602001600482018054600181600116156101000203166002900480601f0160208091040260200160405190810160405280929190818152602001828054600181600116156101000203166002900480156134ca5780601f1061349f576101008083540402835291602001916134ca565b820191906000526020600020905b8154815290600101906020018083116134ad57829003601f168201915b50505050508152602001600582015481526020016006820160009054906101000a900460ff161515151581526020016006820160019054906101000a900460ff16151515158152602001600782018054600181600116156101000203166002900480601f0160208091040260200160405190810160405280929190818152602001828054600181600116156101000203166002900480156135ac5780601f10613581576101008083540402835291602001916135ac565b820191906000526020600020905b81548152906001019060200180831161358f57829003601f168201915b50505050508152602001600882018054600181600116156101000203166002900480601f01602080910402602001604051908101604052809291908181526020018280546001816001161561010002031660029004801561364e5780601f106136235761010080835404028352916020019161364e565b820191906000526020600020905b81548152906001019060200180831161363157829003601f168201915b505050505081525050915050949350505050565b61366a614721565b60058260405161367a91906150ed565b9081526020016040518091039020604051806040016040529081600082018054600181600116156101000203166002900480601f01602080910402602001604051908101604052809291908181526020018280546001816001161561010002031660029004801561372c5780601f106137015761010080835404028352916020019161372c565b820191906000526020600020905b81548152906001019060200180831161370f57829003601f168201915b505050505081526020016001820160009054906101000a900473ffffffffffffffffffffffffffffffffffffffff1673ffffffffffffffffffffffffffffffffffffffff1673ffffffffffffffffffffffffffffffffffffffff16815250509050919050565b6000600854905090565b60006137c9856040516020016137b291906150b7565b6040516020818303038152906040528585856140d3565b9050949350505050565b60606006805480602002602001604051908101604052809291908181526020016000905b828210156138b3578382906000526020600020018054600181600116156101000203166002900480601f01602080910402602001604051908101604052809291908181526020018280546001816001161561010002031660029004801561389f5780601f106138745761010080835404028352916020019161389f565b820191906000526020600020905b81548152906001019060200180831161388257829003601f168201915b5050505050815260200190600101906137f7565b50505050905090565b6138c461461e565b6000809054906101000a900473ffffffffffffffffffffffffffffffffffffffff1673ffffffffffffffffffffffffffffffffffffffff163373ffffffffffffffffffffffffffffffffffffffff1614613953576040517f08c379a000000000000000000000000000000000000000000000000000000000815260040161394a90615185565b60405180910390fd5b61395b61461e565b6040518061014001604052808673ffffffffffffffffffffffffffffffffffffffff1681526020016000809054906101000a900473ffffffffffffffffffffffffffffffffffffffff1673ffffffffffffffffffffffffffffffffffffffff1681526020018581526020018481526020016040518060200160405280600081525081526020016000815260200160011515815260200160011515815260200160405180602001604052806000815250815260200160405180602001604052806000815250815250905080600360008773ffffffffffffffffffffffffffffffffffffffff1673ffffffffffffffffffffffffffffffffffffffff16815260200190815260200160002060008201518160000160006101000a81548173ffffffffffffffffffffffffffffffffffffffff021916908373ffffffffffffffffffffffffffffffffffffffff16021790555060208201518160010160006101000a81548173ffffffffffffffffffffffffffffffffffffffff021916908373ffffffffffffffffffffffffffffffffffffffff1602179055506040820151816002019080519060200190613b0e9291906146a1565b506060820151816003019080519060200190613b2b9291906146a1565b506080820151816004019080519060200190613b489291906146a1565b5060a0820151816005015560c08201518160060160006101000a81548160ff02191690831515021790555060e08201518160060160016101000a81548160ff021916908315150217905550610100820151816007019080519060200190613bb09291906146a1565b50610120820151816008019080519060200190613bce9291906146a1565b509050506004859080600181540180825580915050600190039060005260206000200160009091909190916101000a81548173ffffffffffffffffffffffffffffffffffffffff021916908373ffffffffffffffffffffffffffffffffffffffff160217905550600360008673ffffffffffffffffffffffffffffffffffffffff1673ffffffffffffffffffffffffffffffffffffffff168152602001908152602001600020604051806101400160405290816000820160009054906101000a900473ffffffffffffffffffffffffffffffffffffffff1673ffffffffffffffffffffffffffffffffffffffff1673ffffffffffffffffffffffffffffffffffffffff1681526020016001820160009054906101000a900473ffffffffffffffffffffffffffffffffffffffff1673ffffffffffffffffffffffffffffffffffffffff1673ffffffffffffffffffffffffffffffffffffffff168152602001600282018054600181600116156101000203166002900480601f016020809104026020016040519081016040528092919081815260200182805460018160011615610100020316600290048015613dc55780601f10613d9a57610100808354040283529160200191613dc5565b820191906000526020600020905b815481529060010190602001808311613da857829003601f168201915b50505050508152602001600382018054600181600116156101000203166002900480601f016020809104026020016040519081016040528092919081815260200182805460018160011615610100020316600290048015613e675780601f10613e3c57610100808354040283529160200191613e67565b820191906000526020600020905b815481529060010190602001808311613e4a57829003601f168201915b50505050508152602001600482018054600181600116156101000203166002900480601f016020809104026020016040519081016040528092919081815260200182805460018160011615610100020316600290048015613f095780601f10613ede57610100808354040283529160200191613f09565b820191906000526020600020905b815481529060010190602001808311613eec57829003601f168201915b50505050508152602001600582015481526020016006820160009054906101000a900460ff161515151581526020016006820160019054906101000a900460ff16151515158152602001600782018054600181600116156101000203166002900480601f016020809104026020016040519081016040528092919081815260200182805460018160011615610100020316600290048015613feb5780601f10613fc057610100808354040283529160200191613feb565b820191906000526020600020905b815481529060010190602001808311613fce57829003601f168201915b50505050508152602001600882018054600181600116156101000203166002900480601f01602080910402602001604051908101604052809291908181526020018280546001816001161561010002031660029004801561408d5780601f106140625761010080835404028352916020019161408d565b820191906000526020600020905b81548152906001019060200180831161407057829003601f168201915b5050505050815250509150509392505050565b6000600754905090565b60008060009054906101000a900473ffffffffffffffffffffffffffffffffffffffff16905090565b60006141306002866040516140e891906150ed565b602060405180830381855afa158015614105573d6000803e3d6000fd5b5050506040513d601f19601f820116820180604052506141289190810190614a3e565b85858561413a565b9050949350505050565b60006141446147d1565b604051806102600160405280603060ff168152602001603160ff168152602001603060ff168152602001600d60ff168152602001600660ff168152602001600960ff168152602001606060ff168152602001608660ff168152602001604860ff168152602001600160ff168152602001606560ff168152602001600360ff168152602001600460ff168152602001600260ff168152602001600160ff168152602001600560ff168152602001600060ff168152602001600460ff168152602001602060ff168152509050600b602060ff16601301018351101561422657600080fd5b60006060614235878787614501565b90506000815190506000865190506060816040519080825280601f01601f1916602001820160405280156142785781602001600182028038833980820191505090505b5090508160208201846020870160056107d05a03fa506000602060136003850303039050600060f81b826000815181106142ae57fe5b602001015160f81c60f81b7effffffffffffffffffffffffffffffffffffffffffffffffffffffffffffff191614158061430657506001826001815181106142f257fe5b602001015160f81c60f81b60f81c60ff1614155b1561431b5760019750505050505050506144f9565b600295505b8060020186101561438b5760ff60f81b82878151811061433c57fe5b602001015160f81c60f81b7effffffffffffffffffffffffffffffffffffffffffffffffffffffffffffff19161461437e5760029750505050505050506144f9565b8580600101965050614320565b600060f81b82826002018151811061439f57fe5b602001015160f81c60f81b7effffffffffffffffffffffffffffffffffffffffffffffffffffffffffffff1916146143e15760039750505050505050506144f9565b600095505b6013861015614447578686601381106143fb57fe5b602002015160ff16828783600301018151811061441457fe5b602001015160f81c60f81b60f81c60ff161461443a5760049750505050505050506144f9565b85806001019650506143e6565b600095505b602060ff168610156144ed578b866020811061446457fe5b1a60f81b7effffffffffffffffffffffffffffffffffffffffffffffffffffffffffffff1916828760138460030101018151811061449e57fe5b602001015160f81c60f81b7effffffffffffffffffffffffffffffffffffffffffffffffffffffffffffff1916146144e05760059750505050505050506144f9565b858060010196505061444c565b60009750505050505050505b949350505050565b60606000825184518651606001010190506000855190506000855190506000855190506000806000806060886040519080825280601f01601f19166020018201604052801561455f5781602001600182028038833980820191505090505b50905060208d01945060208c01935060208b01925087602082015286604082015285606082015260208101915061459b60608301868f516145d5565b6145ad8d516060840101858e516145d5565b6145c28c518e51606085010101848d516145d5565b8099505050505050505050509392505050565b5b602081106145f957815183526020830192506020820191506020810390506145d6565b60006001826020036101000a0390508019835116818551168181178652505050505050565b604051806101400160405280600073ffffffffffffffffffffffffffffffffffffffff168152602001600073ffffffffffffffffffffffffffffffffffffffff1681526020016060815260200160608152602001606081526020016000815260200160001515815260200160001515815260200160608152602001606081525090565b828054600181600116156101000203166002900490600052602060002090601f016020900481019282601f106146e257805160ff1916838001178555614710565b82800160010185558215614710579182015b8281111561470f5782518255916020019190600101906146f4565b5b50905061471d91906147f4565b5090565b604051806040016040528060608152602001600073ffffffffffffffffffffffffffffffffffffffff1681525090565b828054600181600116156101000203166002900490600052602060002090601f016020900481019282601f1061479257805160ff19168380011785556147c0565b828001600101855582156147c0579182015b828111156147bf5782518255916020019190600101906147a4565b5b5090506147cd91906147f4565b5090565b604051806102600160405280601390602082028038833980820191505090505090565b61481691905b808211156148125760008160009055506001016147fa565b5090565b90565b6000813590506148288161549d565b92915050565b60008151905061483d816154b4565b92915050565b600082601f83011261485457600080fd5b8135614867614862826152b1565b615284565b9150808252602083016020830185838301111561488357600080fd5b61488e838284615407565b50505092915050565b6000602082840312156148a957600080fd5b60006148b784828501614819565b91505092915050565b600080604083850312156148d357600080fd5b60006148e185828601614819565b925050602083013567ffffffffffffffff8111156148fe57600080fd5b61490a85828601614843565b9150509250929050565b60008060006060848603121561492957600080fd5b600061493786828701614819565b935050602084013567ffffffffffffffff81111561495457600080fd5b61496086828701614843565b925050604084013567ffffffffffffffff81111561497d57600080fd5b61498986828701614843565b9150509250925092565b600080600080608085870312156149a957600080fd5b60006149b787828801614819565b945050602085013567ffffffffffffffff8111156149d457600080fd5b6149e087828801614843565b935050604085013567ffffffffffffffff8111156149fd57600080fd5b614a0987828801614843565b925050606085013567ffffffffffffffff811115614a2657600080fd5b614a3287828801614843565b91505092959194509250565b600060208284031215614a5057600080fd5b6000614a5e8482850161482e565b91505092915050565b600060208284031215614a7957600080fd5b600082013567ffffffffffffffff811115614a9357600080fd5b614a9f84828501614843565b91505092915050565b60008060008060808587031215614abe57600080fd5b600085013567ffffffffffffffff811115614ad857600080fd5b614ae487828801614843565b945050602085013567ffffffffffffffff811115614b0157600080fd5b614b0d87828801614843565b935050604085013567ffffffffffffffff811115614b2a57600080fd5b614b3687828801614843565b925050606085013567ffffffffffffffff811115614b5357600080fd5b614b5f87828801614843565b91505092959194509250565b6000614b778383614bae565b60208301905092915050565b6000614b8f8383614d2f565b905092915050565b614ba8614ba3826153b5565b61545b565b82525050565b614bb7816153a3565b82525050565b614bc6816153a3565b82525050565b614bdd614bd8826153a3565b615449565b82525050565b6000614bee826152fd565b614bf88185615343565b9350614c03836152dd565b8060005b83811015614c34578151614c1b8882614b6b565b9750614c2683615329565b925050600181019050614c07565b5085935050505092915050565b6000614c4c82615308565b614c568185615354565b935083602082028501614c68856152ed565b8060005b85811015614ca45784840389528151614c858582614b83565b9450614c9083615336565b925060208a01995050600181019050614c6c565b50829750879550505050505092915050565b614cbf816153c7565b82525050565b6000614cd08261531e565b614cda8185615376565b9350614cea818560208601615416565b614cf38161547f565b840191505092915050565b6000614d098261531e565b614d138185615387565b9350614d23818560208601615416565b80840191505092915050565b6000614d3a82615313565b614d448185615365565b9350614d54818560208601615416565b614d5d8161547f565b840191505092915050565b6000614d75603583615392565b91507f546869732066756e6374696f6e206973207265737472696374656420746f207460008301527f68652063656e7472616c20617574686f726974792e00000000000000000000006020830152604082019050919050565b6000614ddb602f83615392565b91507f546869732070736575646f6e796d20616c72656164792072656365697665642060008301527f696e697469616c20746f6b656e732e00000000000000000000000000000000006020830152604082019050919050565b6000614e41602883615392565b91507f5369676e617475726520646f6573206e6f74206d617463682073656e6465722060008301527f616464726573732e0000000000000000000000000000000000000000000000006020830152604082019050919050565b6000614ea7604283615392565b91507f546869732070736575646f6e796d20646f6573206e6f74206861766520656e6f60008301527f75676820746f6b656e7320746f20706179207468652075706c6f616420636f7360208301527f742e0000000000000000000000000000000000000000000000000000000000006040830152606082019050919050565b6000614f33601f83615392565b91507f476976656e2061646472657373206d757374206265206120706174726f6e2e006000830152602082019050919050565b60006040830160008301518482036000860152614f838282614d2f565b9150506020830151614f986020860182614bae565b508091505092915050565b600061014083016000830151614fbc6000860182614bae565b506020830151614fcf6020860182614bae565b5060408301518482036040860152614fe78282614d2f565b915050606083015184820360608601526150018282614d2f565b9150506080830151848203608086015261501b8282614d2f565b91505060a083015161503060a0860182615099565b5060c083015161504360c0860182614cb6565b5060e083015161505660e0860182614cb6565b506101008301518482036101008601526150708282614d2f565b91505061012083015184820361012086015261508c8282614d2f565b9150508091505092915050565b6150a2816153fd565b82525050565b6150b1816153fd565b82525050565b60006150c38284614bcc565b60148201915081905092915050565b60006150de8284614b97565b60148201915081905092915050565b60006150f98284614cfe565b915081905092915050565b60006020820190506151196000830184614bbd565b92915050565b600060208201905081810360008301526151398184614be3565b905092915050565b6000602082019050818103600083015261515b8184614c41565b905092915050565b6000602082019050818103600083015261517d8184614cc5565b905092915050565b6000602082019050818103600083015261519e81614d68565b9050919050565b600060208201905081810360008301526151be81614dce565b9050919050565b600060208201905081810360008301526151de81614e34565b9050919050565b600060208201905081810360008301526151fe81614e9a565b9050919050565b6000602082019050818103600083015261521e81614f26565b9050919050565b6000602082019050818103600083015261523f8184614f66565b905092915050565b600060208201905081810360008301526152618184614fa3565b905092915050565b600060208201905061527e60008301846150a8565b92915050565b6000604051905081810181811067ffffffffffffffff821117156152a757600080fd5b8060405250919050565b600067ffffffffffffffff8211156152c857600080fd5b601f19601f8301169050602081019050919050565b6000819050602082019050919050565b6000819050602082019050919050565b600081519050919050565b600081519050919050565b600081519050919050565b600081519050919050565b6000602082019050919050565b6000602082019050919050565b600082825260208201905092915050565b600082825260208201905092915050565b600082825260208201905092915050565b600082825260208201905092915050565b600081905092915050565b600082825260208201905092915050565b60006153ae826153dd565b9050919050565b60006153c0826153dd565b9050919050565b60008115159050919050565b6000819050919050565b600073ffffffffffffffffffffffffffffffffffffffff82169050919050565b6000819050919050565b82818337600083830152505050565b60005b83811015615434578082015181840152602081019050615419565b83811115615443576000848401525b50505050565b60006154548261546d565b9050919050565b60006154668261546d565b9050919050565b600061547882615490565b9050919050565b6000601f19601f8301169050919050565b60008160601b9050919050565b6154a6816153a3565b81146154b157600080fd5b50565b6154bd816153d3565b81146154c857600080fd5b5056fea26469706673582212200562dd35016531f7ebb1af92f380c6017fa23b3ad5de7fb778908001e6ef34c164736f6c63430006000033",
  "source": "pragma solidity ^0.6.0;\npragma experimental ABIEncoderV2;\n\n//import {SolRsaVerify} from './SolRsaVerify.sol';\n\nlibrary SolRsaVerify {\n\n    function memcpy(uint _dest, uint _src, uint _len) pure internal {\n        // Copy word-length chunks while possible\n        for ( ;_len >= 32; _len -= 32) {\n            assembly {\n                mstore(_dest, mload(_src))\n            }\n            _dest += 32;\n            _src += 32;\n        }\n\n        // Copy remaining bytes\n        uint mask = 256 ** (32 - _len) - 1;\n        assembly {\n            let srcpart := and(mload(_src), not(mask))\n            let destpart := and(mload(_dest), mask)\n            mstore(_dest, or(destpart, srcpart))\n        }\n    }\n\n\n    function join(\n\tbytes memory _s, bytes memory _e, bytes memory _m\n    ) pure internal returns (bytes memory) {\n        uint inputLen = 0x60+_s.length+_e.length+_m.length;\n\n        uint slen = _s.length;\n        uint elen = _e.length;\n        uint mlen = _m.length;\n        uint sptr;\n        uint eptr;\n        uint mptr;\n        uint inputPtr;\n\n        bytes memory input = new bytes(inputLen);\n        assembly {\n            sptr := add(_s,0x20)\n            eptr := add(_e,0x20)\n            mptr := add(_m,0x20)\n            mstore(add(input,0x20),slen)\n            mstore(add(input,0x40),elen)\n            mstore(add(input,0x60),mlen)\n            inputPtr := add(input,0x20)\n        }\n        memcpy(inputPtr+0x60,sptr,_s.length);\n        memcpy(inputPtr+0x60+_s.length,eptr,_e.length);\n        memcpy(inputPtr+0x60+_s.length+_e.length,mptr,_m.length);\n\n        return input;\n    }\n\n    /** @dev Verifies a PKCSv1.5 SHA256 signature\n      * @param _sha256 is the sha256 of the data\n      * @param _s is the signature\n      * @param _e is the exponent\n      * @param _m is the modulus\n      * @return 0 if success, >0 otherwise\n    */\n    function pkcs1Sha256Verify(\n        bytes32 _sha256,\n        bytes memory _s, bytes memory _e, bytes memory _m\n    ) internal view returns (uint) {\n\n        uint8[19] memory sha256Prefix = [\n            0x30, 0x31, 0x30, 0x0d, 0x06, 0x09, 0x60, 0x86, 0x48, 0x01, 0x65, 0x03, 0x04, 0x02, 0x01, 0x05, 0x00, 0x04, 0x20\n        ];\n\n      \trequire(_m.length >= sha256Prefix.length+_sha256.length+11);\n\n        uint i;\n\n        /// decipher\n        bytes memory input = join(_s,_e,_m);\n        uint inputlen = input.length;\n\n        uint decipherlen = _m.length;\n        bytes memory decipher = new bytes(decipherlen);\n        assembly {\n            pop(staticcall(sub(gas(), 2000), 5, add(input,0x20), inputlen, add(decipher,0x20), decipherlen))\n\t}\n\n        /// 0x00 || 0x01 || PS || 0x00 || DigestInfo\n        /// PS is padding filled with 0xff\n        //  DigestInfo ::= SEQUENCE {\n        //     digestAlgorithm AlgorithmIdentifier,\n        //     digest OCTET STRING\n        //  }\n\n        uint paddingLen = decipherlen - 3 - sha256Prefix.length - 32;\n\n        if (decipher[0] != 0 || uint8(decipher[1]) != 1) {\n            return 1;\n        }\n        for (i = 2;i<2+paddingLen;i++) {\n            if (decipher[i] != 0xff) {\n                return 2;\n            }\n        }\n        if (decipher[2+paddingLen] != 0) {\n            return 3;\n        }\n        for (i = 0;i<sha256Prefix.length;i++) {\n            if (uint8(decipher[3+paddingLen+i])!=sha256Prefix[i]) {\n                return 4;\n            }\n        }\n        for (i = 0;i<_sha256.length;i++) {\n            if (decipher[3+paddingLen+sha256Prefix.length+i]!=_sha256[i]) {\n                return 5;\n            }\n        }\n\n        return 0;\n    }\n\n    /** @dev Verifies a PKCSv1.5 SHA256 signature\n      * @param _data to verify\n      * @param _s is the signature\n      * @param _e is the exponent\n      * @param _m is the modulus\n      * @return 0 if success, >0 otherwise\n    */\n    function pkcs1Sha256VerifyRaw(\n        bytes memory _data,\n        bytes memory _s, bytes memory _e, bytes memory _m\n    ) internal view returns (uint) {\n        return pkcs1Sha256Verify(sha256(_data),_s,_e,_m);\n    }\n\n}\n\ncontract SecTor {\n    address ca = 0x7B5FB9A5535f2976cdc99c57d19111B2Ed3cB925; // Hardcoded address of the central authority\n    mapping(address => Pseudonym) pseudonyms;\n    address[] pseudoList;\n    mapping(address => Pseudonym) patrons;\n    address[] patList;\n    mapping(bytes => Document) docs;\n    bytes[] docHashes;\n    uint initialTokenGrant = 10; // The number of initially granted tokens\n    uint documentUploadCost = 2;\n\n    /*\n    This assumes that we only use one instance of this contract.\n    */\n\n    constructor() public{\n\n    }\n\n    struct Pseudonym {\n        address owner;\n        address patron;\n        bytes patronRSAPubKeyExponent;\n        bytes patronRSAPubKeyModulus;\n        bytes patronBlindSignature;\n        uint tokens;\n\n        bool isPatron;\n        bool gotInitialTokens;\n\n        bytes publicIdentity;\n        bytes publicIdentitySignature;\n    }\n\n    struct Document {\n        bytes hash;\n        address author;\n        // space for meta data\n        // bool accepted;\n    }\n\n    modifier caOnly() {\n        require(\n            msg.sender == ca,\n            \"This function is restricted to the central authority.\"\n        );\n        _;\n    }\n    \n    function verifyRSATest(address _data, bytes memory _signature, bytes memory _exponent, bytes memory _modulus) public view returns(uint){\n        return SolRsaVerify.pkcs1Sha256VerifyRaw(abi.encodePacked(_data), _signature, _exponent, _modulus);\n    }\n    \n   \n   function toBytes(address a) public pure returns (bytes memory b) {\n    b = new bytes(20);\n    for (uint i = 0; i < 20; i++)\n        b[i] = byte(uint8(uint(a) / (2**(8*(19 - i)))));\n    }\n\n\n    function createPatron(address _patron, bytes memory _RSAPublicKeyExponent, bytes memory _RSAPublicKeyModulus) public caOnly returns (Pseudonym memory){\n\n        // Create new patron\n        Pseudonym memory patron = Pseudonym({\n            owner: _patron,\n            patronRSAPubKeyExponent: _RSAPublicKeyExponent,\n            patronRSAPubKeyModulus: _RSAPublicKeyModulus,\n            patron: ca,\n            patronBlindSignature: \"\",\n            tokens: 0,\n            isPatron: true,\n            gotInitialTokens: true, // to disable patrons from getting tokens to publish documents\n            publicIdentity: \"\",\n            publicIdentitySignature: \"\"\n            });\n        patrons[_patron] = patron;\n        patList.push(_patron);\n\n        return patrons[_patron];\n    }\n\n    function addPseudonym(address _patron, bytes memory _patronBlindSignature) public returns (Pseudonym memory){\n        // Validate blind Signature of Patron\n        Pseudonym storage patron = patrons[_patron];\n        require(patron.isPatron == true, \"Given address must be a patron.\");\n        // Use RSA library here, signature should have been unblinded already\n        require( SolRsaVerify.pkcs1Sha256VerifyRaw(abi.encodePacked(msg.sender), _patronBlindSignature, patron.patronRSAPubKeyExponent , patron.patronRSAPubKeyModulus) == 0, \"Signature does not match sender address.\");\n\n        // Create new Pseudonym\n        Pseudonym memory pseudo = Pseudonym({\n            owner: msg.sender,\n            patronRSAPubKeyExponent: \"\",\n            patronRSAPubKeyModulus: \"\",\n            patron: _patron,\n            patronBlindSignature: _patronBlindSignature,\n            tokens: 0,\n            isPatron: false,\n            gotInitialTokens: false,\n            publicIdentity: \"\",\n            publicIdentitySignature: \"\"\n            });\n        pseudonyms[msg.sender] = pseudo;\n        pseudoList.push(msg.sender);\n\n        return pseudonyms[msg.sender];\n    }\n\n    function grantInitialTokens() public returns (Pseudonym memory){\n        Pseudonym memory pseudo = pseudonyms[msg.sender];\n\n        // Check if tokens were already granted\n        require(pseudo.gotInitialTokens == true, \"This pseudonym already received initial tokens.\");\n\n        // Update pseudonym\n        pseudo.tokens = initialTokenGrant;\n        pseudo.gotInitialTokens = true;\n        pseudonyms[msg.sender] = pseudo;\n\n        return pseudonyms[msg.sender];\n    }\n\n    function addDocumentHash(bytes memory _hash) public returns (Document memory){\n        Pseudonym memory pseudo = pseudonyms[msg.sender];\n\n        // Check if enough tokens are available\n        require(pseudo.tokens < documentUploadCost, \"This pseudonym does not have enough tokens to pay the upload cost.\");\n\n        // pay the tokens\n        pseudo.tokens = pseudo.tokens - documentUploadCost;\n\n        // add the document hash\n        Document memory doc = Document({\n            hash: _hash,\n            author: msg.sender\n            });\n        docs[_hash] = doc;\n        pseudonyms[msg.sender] = pseudo;\n        docHashes.push(_hash);\n\n        return docs[_hash];\n    }\n\n    function proveAuthorship(bytes memory _publicIdentity, bytes memory _publicIdentitySignature, bytes memory _exponent, bytes memory _modulus) public returns (Pseudonym memory){\n        Pseudonym memory pseudo = pseudonyms[msg.sender];\n        // Validate _publicIdentitySignature signature of the ethereum address aka msg.sender\n        require(SolRsaVerify.pkcs1Sha256VerifyRaw(abi.encodePacked(msg.sender), _publicIdentitySignature, _exponent, _modulus) == 0, \"Signature does not match sender address.\");\n\n        // update pseudonym\n        pseudo.publicIdentity = _publicIdentity;\n        pseudo.publicIdentitySignature = _publicIdentitySignature;\n        pseudonyms[msg.sender] = pseudo;\n\n        return pseudonyms[msg.sender];\n    }\n\n    // Getter functions\n\n    function getCA() public view returns(address) {\n        return ca;\n    }\n\n    function getPseudoList() public view returns (address[] memory){\n        return pseudoList;\n    }\n\n    function getPseudonym(address _owner) public view returns (Pseudonym memory){\n        return pseudonyms[_owner];\n    }\n\n    function getPatList() public view returns (address[] memory){\n        return patList;\n    }\n\n    function getPatron(address _owner) public view returns (Pseudonym memory){\n        return patrons[_owner];\n    }\n\n    function getDocHashes() public view returns (bytes[] memory){\n        return docHashes;\n    }\n\n    function getDocument(bytes memory _hash) public view returns(Document memory){\n        return docs[_hash];\n    }\n\n    function getInitialTokenGrant() public view returns (uint){\n        return initialTokenGrant;\n    }\n\n    function getDocumentUploadCost() public view returns (uint){\n        return documentUploadCost;\n    }\n}\n",
  "sourcePath": "/home/cloud/sector-coop/solidity/contracts/SecTor.sol",
  "compiler": {
    "name": "solc",
    "version": "0.6.0+commit.26b70077.Emscripten.clang"
  },
  "schemaVersion": "3.3.3",
  "updatedAt": "2021-02-10T18:06:41.623Z",
  "devdoc": {
    "methods": {}
  },
  "userdoc": {
    "methods": {}
  }
}