{
  "contractName": "SecTor",
  "abi": [
    {
      "inputs": [],
      "stateMutability": "nonpayable",
      "type": "constructor"
    },
    {
      "inputs": [
        {
          "internalType": "address",
          "name": "_patron",
          "type": "address"
        },
        {
          "internalType": "bytes",
          "name": "_RSAPublicKey",
          "type": "bytes"
        }
      ],
      "name": "createPatron",
      "outputs": [
        {
          "internalType": "bool",
          "name": "",
          "type": "bool"
        }
      ],
      "stateMutability": "nonpayable",
      "type": "function"
    },
    {
      "inputs": [
        {
          "internalType": "address",
          "name": "_patron",
          "type": "address"
        },
        {
          "internalType": "bytes",
          "name": "_patronBlindSignature",
          "type": "bytes"
        },
        {
          "internalType": "bytes",
          "name": "_exponent",
          "type": "bytes"
        },
        {
          "internalType": "bytes",
          "name": "_modulus",
          "type": "bytes"
        }
      ],
      "name": "addPseudonym",
      "outputs": [
        {
          "internalType": "bool",
          "name": "",
          "type": "bool"
        }
      ],
      "stateMutability": "nonpayable",
      "type": "function"
    },
    {
      "inputs": [],
      "name": "grantInitialTokens",
      "outputs": [
        {
          "internalType": "bool",
          "name": "",
          "type": "bool"
        }
      ],
      "stateMutability": "nonpayable",
      "type": "function"
    },
    {
      "inputs": [
        {
          "internalType": "bytes",
          "name": "_hash",
          "type": "bytes"
        }
      ],
      "name": "addDocumentHash",
      "outputs": [
        {
          "internalType": "bool",
          "name": "",
          "type": "bool"
        }
      ],
      "stateMutability": "nonpayable",
      "type": "function"
    },
    {
      "inputs": [
        {
          "internalType": "bytes",
          "name": "_publicIdentity",
          "type": "bytes"
        },
        {
          "internalType": "bytes",
          "name": "_publicIdentitySignature",
          "type": "bytes"
        },
        {
          "internalType": "bytes",
          "name": "_exponent",
          "type": "bytes"
        },
        {
          "internalType": "bytes",
          "name": "_modulus",
          "type": "bytes"
        }
      ],
      "name": "proveAuthorship",
      "outputs": [
        {
          "internalType": "bool",
          "name": "",
          "type": "bool"
        }
      ],
      "stateMutability": "nonpayable",
      "type": "function"
    }
  ],
  "bytecode": "0x6080604052737b5fb9a5535f2976cdc99c57d19111b2ed3cb9256000806101000a81548173ffffffffffffffffffffffffffffffffffffffff021916908373ffffffffffffffffffffffffffffffffffffffff160217905550600a600455600260055534801561006e57600080fd5b50600a6004819055506002600581905550737b5fb9a5535f2976cdc99c57d19111b2ed3cb9256000806101000a81548173ffffffffffffffffffffffffffffffffffffffff021916908373ffffffffffffffffffffffffffffffffffffffff16021790555061288c806100e26000396000f3fe608060405234801561001057600080fd5b50600436106100575760003560e01c8063040ead311461005c578063192924ed1461007e5780632f3c3ad414610171578063462d9dca1461024457806378bd0af814610465575b600080fd5b6100646106fd565b604051808215151515815260200191505060405180910390f35b6101576004803603604081101561009457600080fd5b81019080803573ffffffffffffffffffffffffffffffffffffffff169060200190929190803590602001906401000000008111156100d157600080fd5b8201836020820111156100e357600080fd5b8035906020019184600183028401116401000000008311171561010557600080fd5b91908080601f016020809104026020016040519081016040528093929190818152602001838380828437600081840152601f19601f820116905080830192505050505050509192919290505050610cde565b604051808215151515815260200191505060405180910390f35b61022a6004803603602081101561018757600080fd5b81019080803590602001906401000000008111156101a457600080fd5b8201836020820111156101b657600080fd5b803590602001918460018302840111640100000000831117156101d857600080fd5b91908080601f016020809104026020016040519081016040528093929190818152602001838380828437600081840152601f19601f820116905080830192505050505050509192919290505050610feb565b604051808215151515815260200191505060405180910390f35b61044b6004803603608081101561025a57600080fd5b81019080803573ffffffffffffffffffffffffffffffffffffffff1690602001909291908035906020019064010000000081111561029757600080fd5b8201836020820111156102a957600080fd5b803590602001918460018302840111640100000000831117156102cb57600080fd5b91908080601f016020809104026020016040519081016040528093929190818152602001838380828437600081840152601f19601f8201169050808301925050505050505091929192908035906020019064010000000081111561032e57600080fd5b82018360208201111561034057600080fd5b8035906020019184600183028401116401000000008311171561036257600080fd5b91908080601f016020809104026020016040519081016040528093929190818152602001838380828437600081840152601f19601f820116905080830192505050505050509192919290803590602001906401000000008111156103c557600080fd5b8201836020820111156103d757600080fd5b803590602001918460018302840111640100000000831117156103f957600080fd5b91908080601f016020809104026020016040519081016040528093929190818152602001838380828437600081840152601f19601f8201169050808301925050505050505091929192905050506116a1565b604051808215151515815260200191505060405180910390f35b6106e36004803603608081101561047b57600080fd5b810190808035906020019064010000000081111561049857600080fd5b8201836020820111156104aa57600080fd5b803590602001918460018302840111640100000000831117156104cc57600080fd5b91908080601f016020809104026020016040519081016040528093929190818152602001838380828437600081840152601f19601f8201169050808301925050505050505091929192908035906020019064010000000081111561052f57600080fd5b82018360208201111561054157600080fd5b8035906020019184600183028401116401000000008311171561056357600080fd5b91908080601f016020809104026020016040519081016040528093929190818152602001838380828437600081840152601f19601f820116905080830192505050505050509192919290803590602001906401000000008111156105c657600080fd5b8201836020820111156105d857600080fd5b803590602001918460018302840111640100000000831117156105fa57600080fd5b91908080601f016020809104026020016040519081016040528093929190818152602001838380828437600081840152601f19601f8201169050808301925050505050505091929192908035906020019064010000000081111561065d57600080fd5b82018360208201111561066f57600080fd5b8035906020019184600183028401116401000000008311171561069157600080fd5b91908080601f016020809104026020016040519081016040528093929190818152602001838380828437600081840152601f19601f820116905080830192505050505050509192919290505050611a6b565b604051808215151515815260200191505060405180910390f35b6000610707612631565b600160003373ffffffffffffffffffffffffffffffffffffffff1673ffffffffffffffffffffffffffffffffffffffff168152602001908152602001600020604051806101200160405290816000820160009054906101000a900473ffffffffffffffffffffffffffffffffffffffff1673ffffffffffffffffffffffffffffffffffffffff1673ffffffffffffffffffffffffffffffffffffffff1681526020016001820160009054906101000a900473ffffffffffffffffffffffffffffffffffffffff1673ffffffffffffffffffffffffffffffffffffffff1673ffffffffffffffffffffffffffffffffffffffff168152602001600282018054600181600116156101000203166002900480601f0160208091040260200160405190810160405280929190818152602001828054600181600116156101000203166002900480156108975780601f1061086c57610100808354040283529160200191610897565b820191906000526020600020905b81548152906001019060200180831161087a57829003601f168201915b50505050508152602001600382018054600181600116156101000203166002900480601f0160208091040260200160405190810160405280929190818152602001828054600181600116156101000203166002900480156109395780601f1061090e57610100808354040283529160200191610939565b820191906000526020600020905b81548152906001019060200180831161091c57829003601f168201915b50505050508152602001600482015481526020016005820160009054906101000a900460ff161515151581526020016005820160019054906101000a900460ff16151515158152602001600682018054600181600116156101000203166002900480601f016020809104026020016040519081016040528092919081815260200182805460018160011615610100020316600290048015610a1b5780601f106109f057610100808354040283529160200191610a1b565b820191906000526020600020905b8154815290600101906020018083116109fe57829003601f168201915b50505050508152602001600782018054600181600116156101000203166002900480601f016020809104026020016040519081016040528092919081815260200182805460018160011615610100020316600290048015610abd5780601f10610a9257610100808354040283529160200191610abd565b820191906000526020600020905b815481529060010190602001808311610aa057829003601f168201915b5050505050815250509050600115158160c00151151514610b29576040517f08c379a000000000000000000000000000000000000000000000000000000000815260040180806020018281038252602f8152602001806127be602f913960400191505060405180910390fd5b60045481608001818152505060018160c001901515908115158152505080600160003373ffffffffffffffffffffffffffffffffffffffff1673ffffffffffffffffffffffffffffffffffffffff16815260200190815260200160002060008201518160000160006101000a81548173ffffffffffffffffffffffffffffffffffffffff021916908373ffffffffffffffffffffffffffffffffffffffff16021790555060208201518160010160006101000a81548173ffffffffffffffffffffffffffffffffffffffff021916908373ffffffffffffffffffffffffffffffffffffffff1602179055506040820151816002019080519060200190610c309291906126ad565b506060820151816003019080519060200190610c4d9291906126ad565b506080820151816004015560a08201518160050160006101000a81548160ff02191690831515021790555060c08201518160050160016101000a81548160ff02191690831515021790555060e0820151816006019080519060200190610cb49291906126ad565b50610100820151816007019080519060200190610cd29291906126ad565b50905050600191505090565b60008060009054906101000a900473ffffffffffffffffffffffffffffffffffffffff1673ffffffffffffffffffffffffffffffffffffffff163373ffffffffffffffffffffffffffffffffffffffff1614610d85576040517f08c379a00000000000000000000000000000000000000000000000000000000081526004018080602001828103825260358152602001806127896035913960400191505060405180910390fd5b610d8d612631565b6040518061012001604052808573ffffffffffffffffffffffffffffffffffffffff1681526020016000809054906101000a900473ffffffffffffffffffffffffffffffffffffffff1673ffffffffffffffffffffffffffffffffffffffff1681526020018481526020016040518060200160405280600081525081526020016000815260200160011515815260200160011515815260200160405180602001604052806000815250815260200160405180602001604052806000815250815250905080600260008673ffffffffffffffffffffffffffffffffffffffff1673ffffffffffffffffffffffffffffffffffffffff16815260200190815260200160002060008201518160000160006101000a81548173ffffffffffffffffffffffffffffffffffffffff021916908373ffffffffffffffffffffffffffffffffffffffff16021790555060208201518160010160006101000a81548173ffffffffffffffffffffffffffffffffffffffff021916908373ffffffffffffffffffffffffffffffffffffffff1602179055506040820151816002019080519060200190610f3a9291906126ad565b506060820151816003019080519060200190610f579291906126ad565b506080820151816004015560a08201518160050160006101000a81548160ff02191690831515021790555060c08201518160050160016101000a81548160ff02191690831515021790555060e0820151816006019080519060200190610fbe9291906126ad565b50610100820151816007019080519060200190610fdc9291906126ad565b50905050600191505092915050565b6000610ff5612631565b600160003373ffffffffffffffffffffffffffffffffffffffff1673ffffffffffffffffffffffffffffffffffffffff168152602001908152602001600020604051806101200160405290816000820160009054906101000a900473ffffffffffffffffffffffffffffffffffffffff1673ffffffffffffffffffffffffffffffffffffffff1673ffffffffffffffffffffffffffffffffffffffff1681526020016001820160009054906101000a900473ffffffffffffffffffffffffffffffffffffffff1673ffffffffffffffffffffffffffffffffffffffff1673ffffffffffffffffffffffffffffffffffffffff168152602001600282018054600181600116156101000203166002900480601f0160208091040260200160405190810160405280929190818152602001828054600181600116156101000203166002900480156111855780601f1061115a57610100808354040283529160200191611185565b820191906000526020600020905b81548152906001019060200180831161116857829003601f168201915b50505050508152602001600382018054600181600116156101000203166002900480601f0160208091040260200160405190810160405280929190818152602001828054600181600116156101000203166002900480156112275780601f106111fc57610100808354040283529160200191611227565b820191906000526020600020905b81548152906001019060200180831161120a57829003601f168201915b50505050508152602001600482015481526020016005820160009054906101000a900460ff161515151581526020016005820160019054906101000a900460ff16151515158152602001600682018054600181600116156101000203166002900480601f0160208091040260200160405190810160405280929190818152602001828054600181600116156101000203166002900480156113095780601f106112de57610100808354040283529160200191611309565b820191906000526020600020905b8154815290600101906020018083116112ec57829003601f168201915b50505050508152602001600782018054600181600116156101000203166002900480601f0160208091040260200160405190810160405280929190818152602001828054600181600116156101000203166002900480156113ab5780601f10611380576101008083540402835291602001916113ab565b820191906000526020600020905b81548152906001019060200180831161138e57829003601f168201915b5050505050815250509050600554816080015110611414576040517f08c379a00000000000000000000000000000000000000000000000000000000081526004018080602001828103825260428152602001806128156042913960600191505060405180910390fd5b60055481608001510381608001818152505061142e61272d565b604051806020016040528085815250905080600360003373ffffffffffffffffffffffffffffffffffffffff1673ffffffffffffffffffffffffffffffffffffffff168152602001908152602001600020856040518082805190602001908083835b602083106114b35780518252602082019150602081019050602083039250611490565b6001836020036101000a038019825116818451168082178552505050505050905001915050908152602001604051809103902060008201518160000190805190602001906115029291906126ad565b5090505081600160003373ffffffffffffffffffffffffffffffffffffffff1673ffffffffffffffffffffffffffffffffffffffff16815260200190815260200160002060008201518160000160006101000a81548173ffffffffffffffffffffffffffffffffffffffff021916908373ffffffffffffffffffffffffffffffffffffffff16021790555060208201518160010160006101000a81548173ffffffffffffffffffffffffffffffffffffffff021916908373ffffffffffffffffffffffffffffffffffffffff16021790555060408201518160020190805190602001906115f09291906126ad565b50606082015181600301908051906020019061160d9291906126ad565b506080820151816004015560a08201518160050160006101000a81548160ff02191690831515021790555060c08201518160050160016101000a81548160ff02191690831515021790555060e08201518160060190805190602001906116749291906126ad565b506101008201518160070190805190602001906116929291906126ad565b50905050600192505050919050565b600080600260008773ffffffffffffffffffffffffffffffffffffffff1673ffffffffffffffffffffffffffffffffffffffff1681526020019081526020016000209050600115158160050160009054906101000a900460ff1615151415611771576040517f08c379a000000000000000000000000000000000000000000000000000000000815260040180806020018281038252601f8152602001807f476976656e2061646472657373206d757374206265206120706174726f6e2e0081525060200191505060405180910390fd5b60006117cd33604051602001808273ffffffffffffffffffffffffffffffffffffffff1673ffffffffffffffffffffffffffffffffffffffff1660601b8152601401915050604051602081830303815290604052878787612098565b14611823576040517f08c379a00000000000000000000000000000000000000000000000000000000081526004018080602001828103825260288152602001806127ed6028913960400191505060405180910390fd5b61182b612631565b6040518061012001604052803373ffffffffffffffffffffffffffffffffffffffff1681526020018873ffffffffffffffffffffffffffffffffffffffff1681526020016040518060200160405280600081525081526020018781526020016000815260200160001515815260200160001515815260200160405180602001604052806000815250815260200160405180602001604052806000815250815250905080600160003373ffffffffffffffffffffffffffffffffffffffff1673ffffffffffffffffffffffffffffffffffffffff16815260200190815260200160002060008201518160000160006101000a81548173ffffffffffffffffffffffffffffffffffffffff021916908373ffffffffffffffffffffffffffffffffffffffff16021790555060208201518160010160006101000a81548173ffffffffffffffffffffffffffffffffffffffff021916908373ffffffffffffffffffffffffffffffffffffffff16021790555060408201518160020190805190602001906119b79291906126ad565b5060608201518160030190805190602001906119d49291906126ad565b506080820151816004015560a08201518160050160006101000a81548160ff02191690831515021790555060c08201518160050160016101000a81548160ff02191690831515021790555060e0820151816006019080519060200190611a3b9291906126ad565b50610100820151816007019080519060200190611a599291906126ad565b50905050600192505050949350505050565b6000611a75612631565b600160003373ffffffffffffffffffffffffffffffffffffffff1673ffffffffffffffffffffffffffffffffffffffff168152602001908152602001600020604051806101200160405290816000820160009054906101000a900473ffffffffffffffffffffffffffffffffffffffff1673ffffffffffffffffffffffffffffffffffffffff1673ffffffffffffffffffffffffffffffffffffffff1681526020016001820160009054906101000a900473ffffffffffffffffffffffffffffffffffffffff1673ffffffffffffffffffffffffffffffffffffffff1673ffffffffffffffffffffffffffffffffffffffff168152602001600282018054600181600116156101000203166002900480601f016020809104026020016040519081016040528092919081815260200182805460018160011615610100020316600290048015611c055780601f10611bda57610100808354040283529160200191611c05565b820191906000526020600020905b815481529060010190602001808311611be857829003601f168201915b50505050508152602001600382018054600181600116156101000203166002900480601f016020809104026020016040519081016040528092919081815260200182805460018160011615610100020316600290048015611ca75780601f10611c7c57610100808354040283529160200191611ca7565b820191906000526020600020905b815481529060010190602001808311611c8a57829003601f168201915b50505050508152602001600482015481526020016005820160009054906101000a900460ff161515151581526020016005820160019054906101000a900460ff16151515158152602001600682018054600181600116156101000203166002900480601f016020809104026020016040519081016040528092919081815260200182805460018160011615610100020316600290048015611d895780601f10611d5e57610100808354040283529160200191611d89565b820191906000526020600020905b815481529060010190602001808311611d6c57829003601f168201915b50505050508152602001600782018054600181600116156101000203166002900480601f016020809104026020016040519081016040528092919081815260200182805460018160011615610100020316600290048015611e2b5780601f10611e0057610100808354040283529160200191611e2b565b820191906000526020600020905b815481529060010190602001808311611e0e57829003601f168201915b50505050508152505090506000611e9233604051602001808273ffffffffffffffffffffffffffffffffffffffff1673ffffffffffffffffffffffffffffffffffffffff1660601b8152601401915050604051602081830303815290604052878787612098565b14611ee8576040517f08c379a00000000000000000000000000000000000000000000000000000000081526004018080602001828103825260288152602001806127ed6028913960400191505060405180910390fd5b858160e001819052508481610100018190525080600160003373ffffffffffffffffffffffffffffffffffffffff1673ffffffffffffffffffffffffffffffffffffffff16815260200190815260200160002060008201518160000160006101000a81548173ffffffffffffffffffffffffffffffffffffffff021916908373ffffffffffffffffffffffffffffffffffffffff16021790555060208201518160010160006101000a81548173ffffffffffffffffffffffffffffffffffffffff021916908373ffffffffffffffffffffffffffffffffffffffff1602179055506040820151816002019080519060200190611fe59291906126ad565b5060608201518160030190805190602001906120029291906126ad565b506080820151816004015560a08201518160050160006101000a81548160ff02191690831515021790555060c08201518160050160016101000a81548160ff02191690831515021790555060e08201518160060190805190602001906120699291906126ad565b506101008201518160070190805190602001906120879291906126ad565b509050506001915050949350505050565b60006121436002866040518082805190602001908083835b602083106120d357805182526020820191506020810190506020830392506120b0565b6001836020036101000a038019825116818451168082178552505050505050905001915050602060405180830381855afa158015612115573d6000803e3d6000fd5b5050506040513d602081101561212a57600080fd5b810190808051906020019092919050505085858561214d565b9050949350505050565b6000612157612740565b604051806102600160405280603060ff168152602001603160ff168152602001603060ff168152602001600d60ff168152602001600660ff168152602001600960ff168152602001606060ff168152602001608660ff168152602001604860ff168152602001600160ff168152602001606560ff168152602001600360ff168152602001600460ff168152602001600260ff168152602001600160ff168152602001600560ff168152602001600060ff168152602001600460ff168152602001602060ff168152509050600b602060ff16601301018351101561223957600080fd5b60006060612248878787612514565b90506000815190506000865190506060816040519080825280601f01601f19166020018201604052801561228b5781602001600182028038833980820191505090505b5090508160208201846020870160056107d05a03fa506000602060136003850303039050600060f81b826000815181106122c157fe5b602001015160f81c60f81b7effffffffffffffffffffffffffffffffffffffffffffffffffffffffffffff1916141580612319575060018260018151811061230557fe5b602001015160f81c60f81b60f81c60ff1614155b1561232e57600197505050505050505061250c565b600295505b8060020186101561239e5760ff60f81b82878151811061234f57fe5b602001015160f81c60f81b7effffffffffffffffffffffffffffffffffffffffffffffffffffffffffffff19161461239157600297505050505050505061250c565b8580600101965050612333565b600060f81b8282600201815181106123b257fe5b602001015160f81c60f81b7effffffffffffffffffffffffffffffffffffffffffffffffffffffffffffff1916146123f457600397505050505050505061250c565b600095505b601386101561245a5786866013811061240e57fe5b602002015160ff16828783600301018151811061242757fe5b602001015160f81c60f81b60f81c60ff161461244d57600497505050505050505061250c565b85806001019650506123f9565b600095505b602060ff16861015612500578b866020811061247757fe5b1a60f81b7effffffffffffffffffffffffffffffffffffffffffffffffffffffffffffff191682876013846003010101815181106124b157fe5b602001015160f81c60f81b7effffffffffffffffffffffffffffffffffffffffffffffffffffffffffffff1916146124f357600597505050505050505061250c565b858060010196505061245f565b60009750505050505050505b949350505050565b60606000825184518651606001010190506000855190506000855190506000855190506000806000806060886040519080825280601f01601f1916602001820160405280156125725781602001600182028038833980820191505090505b50905060208d01945060208c01935060208b0192508760208201528660408201528560608201526020810191506125ae60608301868f516125e8565b6125c08d516060840101858e516125e8565b6125d58c518e51606085010101848d516125e8565b8099505050505050505050509392505050565b5b6020811061260c57815183526020830192506020820191506020810390506125e9565b60006001826020036101000a0390508019835116818551168181178652505050505050565b604051806101200160405280600073ffffffffffffffffffffffffffffffffffffffff168152602001600073ffffffffffffffffffffffffffffffffffffffff16815260200160608152602001606081526020016000815260200160001515815260200160001515815260200160608152602001606081525090565b828054600181600116156101000203166002900490600052602060002090601f016020900481019282601f106126ee57805160ff191683800117855561271c565b8280016001018555821561271c579182015b8281111561271b578251825591602001919060010190612700565b5b5090506127299190612763565b5090565b6040518060200160405280606081525090565b604051806102600160405280601390602082028038833980820191505090505090565b61278591905b80821115612781576000816000905550600101612769565b5090565b9056fe546869732066756e6374696f6e206973207265737472696374656420746f207468652063656e7472616c20617574686f726974792e546869732070736575646f6e796d20616c726561647920726563656976656420696e697469616c20746f6b656e732e5369676e617475726520646f6573206e6f74206d617463682073656e64657220616464726573732e546869732070736575646f6e796d20646f6573206e6f74206861766520656e6f75676820746f6b656e7320746f20706179207468652075706c6f616420636f73742ea2646970667358221220e2be9550cdc1866b9a4f66583661590e90fa21344e6a674fb0b127601d9d3ae064736f6c63430006000033",
  "source": "pragma solidity ^0.6.0;\n\n//import {SolRsaVerify} from './SolRsaVerify.sol';\n\nlibrary SolRsaVerify {\n\n    function memcpy(uint _dest, uint _src, uint _len) pure internal {\n        // Copy word-length chunks while possible\n        for ( ;_len >= 32; _len -= 32) {\n            assembly {\n                mstore(_dest, mload(_src))\n            }\n            _dest += 32;\n            _src += 32;\n        }\n\n        // Copy remaining bytes\n        uint mask = 256 ** (32 - _len) - 1;\n        assembly {\n            let srcpart := and(mload(_src), not(mask))\n            let destpart := and(mload(_dest), mask)\n            mstore(_dest, or(destpart, srcpart))\n        }\n    }\n\n\n    function join(\n\tbytes memory _s, bytes memory _e, bytes memory _m\n    ) pure internal returns (bytes memory) {\n        uint inputLen = 0x60+_s.length+_e.length+_m.length;\n\n        uint slen = _s.length;\n        uint elen = _e.length;\n        uint mlen = _m.length;\n        uint sptr;\n        uint eptr;\n        uint mptr;\n        uint inputPtr;\n\n        bytes memory input = new bytes(inputLen);\n        assembly {\n            sptr := add(_s,0x20)\n            eptr := add(_e,0x20)\n            mptr := add(_m,0x20)\n            mstore(add(input,0x20),slen)\n            mstore(add(input,0x40),elen)\n            mstore(add(input,0x60),mlen)\n            inputPtr := add(input,0x20)\n        }\n        memcpy(inputPtr+0x60,sptr,_s.length);\n        memcpy(inputPtr+0x60+_s.length,eptr,_e.length);\n        memcpy(inputPtr+0x60+_s.length+_e.length,mptr,_m.length);\n\n        return input;\n    }\n\n    /** @dev Verifies a PKCSv1.5 SHA256 signature\n      * @param _sha256 is the sha256 of the data\n      * @param _s is the signature\n      * @param _e is the exponent\n      * @param _m is the modulus\n      * @return 0 if success, >0 otherwise\n    */\n    function pkcs1Sha256Verify(\n        bytes32 _sha256,\n        bytes memory _s, bytes memory _e, bytes memory _m\n    ) internal view returns (uint) {\n\n        uint8[19] memory sha256Prefix = [\n            0x30, 0x31, 0x30, 0x0d, 0x06, 0x09, 0x60, 0x86, 0x48, 0x01, 0x65, 0x03, 0x04, 0x02, 0x01, 0x05, 0x00, 0x04, 0x20\n        ];\n\n      \trequire(_m.length >= sha256Prefix.length+_sha256.length+11);\n\n        uint i;\n\n        /// decipher\n        bytes memory input = join(_s,_e,_m);\n        uint inputlen = input.length;\n\n        uint decipherlen = _m.length;\n        bytes memory decipher = new bytes(decipherlen);\n        assembly {\n            pop(staticcall(sub(gas(), 2000), 5, add(input,0x20), inputlen, add(decipher,0x20), decipherlen))\n\t}\n\n        /// 0x00 || 0x01 || PS || 0x00 || DigestInfo\n        /// PS is padding filled with 0xff\n        //  DigestInfo ::= SEQUENCE {\n        //     digestAlgorithm AlgorithmIdentifier,\n        //     digest OCTET STRING\n        //  }\n\n        uint paddingLen = decipherlen - 3 - sha256Prefix.length - 32;\n\n        if (decipher[0] != 0 || uint8(decipher[1]) != 1) {\n            return 1;\n        }\n        for (i = 2;i<2+paddingLen;i++) {\n            if (decipher[i] != 0xff) {\n                return 2;\n            }\n        }\n        if (decipher[2+paddingLen] != 0) {\n            return 3;\n        }\n        for (i = 0;i<sha256Prefix.length;i++) {\n            if (uint8(decipher[3+paddingLen+i])!=sha256Prefix[i]) {\n                return 4;\n            }\n        }\n        for (i = 0;i<_sha256.length;i++) {\n            if (decipher[3+paddingLen+sha256Prefix.length+i]!=_sha256[i]) {\n                return 5;\n            }\n        }\n\n        return 0;\n    }\n\n    /** @dev Verifies a PKCSv1.5 SHA256 signature\n      * @param _data to verify\n      * @param _s is the signature\n      * @param _e is the exponent\n      * @param _m is the modulus\n      * @return 0 if success, >0 otherwise\n    */\n    function pkcs1Sha256VerifyRaw(\n        bytes memory _data,\n        bytes memory _s, bytes memory _e, bytes memory _m\n    ) internal view returns (uint) {\n        return pkcs1Sha256Verify(sha256(_data),_s,_e,_m);\n    }\n\n}\n\ncontract SecTor {\n    address ca = 0x7B5FB9A5535f2976cdc99c57d19111B2Ed3cB925; // Hardcoded address of the central authority\n    mapping(address => Pseudonym) pseudonyms;\n    mapping(address => Pseudonym) patrons;\n    mapping(address => mapping(bytes => Document)) docs;\n    uint initialTokenGrant = 10; // The number of initially granted tokens\n    uint documentUploadCost = 2;\n\n    /*\n    This assumes that we only use one instance of this contract.\n    */\n\n    constructor() public{\n        initialTokenGrant = 10; // The number of initially granted tokens\n        documentUploadCost = 2;\n        ca = 0x7B5FB9A5535f2976cdc99c57d19111B2Ed3cB925;\n    }\n\n    struct Pseudonym {\n        address owner;\n        address patron;\n        bytes patronRSAPubKey;\n        bytes patronBlindSignature;\n        uint tokens;\n\n        bool isPatron;\n        bool gotInitialTokens;\n\n        bytes publicIdentity;\n        bytes publicIdentitySignature;\n    }\n\n    struct Document {\n        bytes hash;\n        // bool accepted;\n    }\n\n    modifier caOnly() {\n        require(\n            msg.sender == ca,\n            \"This function is restricted to the central authority.\"\n        );\n        _;\n    }\n\n    function createPatron(address _patron, bytes memory _RSAPublicKey) public caOnly returns (bool){\n\n        // Create new patron\n        Pseudonym memory patron = Pseudonym({\n            owner: _patron,\n            patronRSAPubKey: _RSAPublicKey,\n            patron: ca,\n            patronBlindSignature: \"\",\n            tokens: 0,\n            isPatron: true,\n            gotInitialTokens: true, // to disable patrons from getting tokens to publish documents\n            publicIdentity: \"\",\n            publicIdentitySignature: \"\"\n            });\n        patrons[_patron] = patron;\n\n        return true;\n    }\n\n    function addPseudonym(address _patron, bytes memory _patronBlindSignature, bytes memory _exponent, bytes memory _modulus) public returns (bool){\n        // Validate blind Signature of Patron\n        Pseudonym storage patron = patrons[_patron];\n        require(patron.isPatron != true, \"Given address must be a patron.\");\n        // Use RSA library here, signature should have been unblinded already\n        require(SolRsaVerify.pkcs1Sha256VerifyRaw(abi.encodePacked(msg.sender), _patronBlindSignature, _exponent, _modulus) == 0, \"Signature does not match sender address.\");\n\n        // Create new Pseudonym\n        Pseudonym memory pseudo = Pseudonym({\n            owner: msg.sender,\n            patronRSAPubKey: \"\",\n            patron: _patron,\n            patronBlindSignature: _patronBlindSignature,\n            tokens: 0,\n            isPatron: false,\n            gotInitialTokens: false,\n            publicIdentity: \"\",\n            publicIdentitySignature: \"\"\n            });\n        pseudonyms[msg.sender] = pseudo;\n\n        return true;\n    }\n\n    function grantInitialTokens() public returns (bool){\n        Pseudonym memory pseudo = pseudonyms[msg.sender];\n\n        // Check if tokens were already granted\n        require(pseudo.gotInitialTokens == true, \"This pseudonym already received initial tokens.\");\n\n        // Update pseudonym\n        pseudo.tokens = initialTokenGrant;\n        pseudo.gotInitialTokens = true;\n        pseudonyms[msg.sender] = pseudo;\n\n        return true;\n    }\n\n    function addDocumentHash(bytes memory _hash) public returns (bool){\n        Pseudonym memory pseudo = pseudonyms[msg.sender];\n\n        // Check if enough tokens are available\n        require(pseudo.tokens < documentUploadCost, \"This pseudonym does not have enough tokens to pay the upload cost.\");\n\n        // pay the tokens\n        pseudo.tokens = pseudo.tokens - documentUploadCost;\n\n        // add the document hash\n        Document memory doc = Document({\n            hash: _hash\n            });\n        docs[msg.sender][_hash] = doc;\n        pseudonyms[msg.sender] = pseudo;\n\n        return true;\n    }\n\n    function proveAuthorship(bytes memory _publicIdentity, bytes memory _publicIdentitySignature, bytes memory _exponent, bytes memory _modulus) public returns (bool){\n        Pseudonym memory pseudo = pseudonyms[msg.sender];\n        // Validate _publicIdentitySignature signature of the ethereum address aka msg.sender\n        require(SolRsaVerify.pkcs1Sha256VerifyRaw(abi.encodePacked(msg.sender), _publicIdentitySignature, _exponent, _modulus) == 0, \"Signature does not match sender address.\");\n\n        // update pseudonym\n        pseudo.publicIdentity = _publicIdentity;\n        pseudo.publicIdentitySignature = _publicIdentitySignature;\n        pseudonyms[msg.sender] = pseudo;\n\n        return true;\n    }\n}\n",
  "sourcePath": "/home/cloud/sector-coop/solidity/contracts/SecTor.sol",
  "compiler": {
    "name": "solc",
    "version": "0.6.0+commit.26b70077.Emscripten.clang"
  },
  "schemaVersion": "3.3.3",
  "updatedAt": "2021-01-28T10:54:00.432Z",
  "networkType": "ethereum",
  "devdoc": {
    "methods": {}
  },
  "userdoc": {
    "methods": {}
  }
}