{
  "contractName": "SecTor",
  "abi": [
    {
      "inputs": [],
      "stateMutability": "nonpayable",
      "type": "constructor"
    },
    {
      "inputs": [
        {
          "internalType": "address",
          "name": "_patron",
          "type": "address"
        },
        {
          "internalType": "bytes",
          "name": "_RSAPublicKey",
          "type": "bytes"
        }
      ],
      "name": "createPatron",
      "outputs": [
        {
          "components": [
            {
              "internalType": "address",
              "name": "owner",
              "type": "address"
            },
            {
              "internalType": "address",
              "name": "patron",
              "type": "address"
            },
            {
              "internalType": "bytes",
              "name": "patronRSAPubKey",
              "type": "bytes"
            },
            {
              "internalType": "bytes",
              "name": "patronBlindSignature",
              "type": "bytes"
            },
            {
              "internalType": "uint256",
              "name": "tokens",
              "type": "uint256"
            },
            {
              "internalType": "bool",
              "name": "isPatron",
              "type": "bool"
            },
            {
              "internalType": "bool",
              "name": "gotInitialTokens",
              "type": "bool"
            },
            {
              "internalType": "bytes",
              "name": "publicIdentity",
              "type": "bytes"
            },
            {
              "internalType": "bytes",
              "name": "publicIdentitySignature",
              "type": "bytes"
            }
          ],
          "internalType": "struct SecTor.Pseudonym",
          "name": "",
          "type": "tuple"
        }
      ],
      "stateMutability": "nonpayable",
      "type": "function"
    },
    {
      "inputs": [
        {
          "internalType": "address",
          "name": "_patron",
          "type": "address"
        },
        {
          "internalType": "bytes",
          "name": "_patronBlindSignature",
          "type": "bytes"
        },
        {
          "internalType": "bytes",
          "name": "_exponent",
          "type": "bytes"
        },
        {
          "internalType": "bytes",
          "name": "_modulus",
          "type": "bytes"
        }
      ],
      "name": "addPseudonym",
      "outputs": [
        {
          "components": [
            {
              "internalType": "address",
              "name": "owner",
              "type": "address"
            },
            {
              "internalType": "address",
              "name": "patron",
              "type": "address"
            },
            {
              "internalType": "bytes",
              "name": "patronRSAPubKey",
              "type": "bytes"
            },
            {
              "internalType": "bytes",
              "name": "patronBlindSignature",
              "type": "bytes"
            },
            {
              "internalType": "uint256",
              "name": "tokens",
              "type": "uint256"
            },
            {
              "internalType": "bool",
              "name": "isPatron",
              "type": "bool"
            },
            {
              "internalType": "bool",
              "name": "gotInitialTokens",
              "type": "bool"
            },
            {
              "internalType": "bytes",
              "name": "publicIdentity",
              "type": "bytes"
            },
            {
              "internalType": "bytes",
              "name": "publicIdentitySignature",
              "type": "bytes"
            }
          ],
          "internalType": "struct SecTor.Pseudonym",
          "name": "",
          "type": "tuple"
        }
      ],
      "stateMutability": "nonpayable",
      "type": "function"
    },
    {
      "inputs": [],
      "name": "grantInitialTokens",
      "outputs": [
        {
          "components": [
            {
              "internalType": "address",
              "name": "owner",
              "type": "address"
            },
            {
              "internalType": "address",
              "name": "patron",
              "type": "address"
            },
            {
              "internalType": "bytes",
              "name": "patronRSAPubKey",
              "type": "bytes"
            },
            {
              "internalType": "bytes",
              "name": "patronBlindSignature",
              "type": "bytes"
            },
            {
              "internalType": "uint256",
              "name": "tokens",
              "type": "uint256"
            },
            {
              "internalType": "bool",
              "name": "isPatron",
              "type": "bool"
            },
            {
              "internalType": "bool",
              "name": "gotInitialTokens",
              "type": "bool"
            },
            {
              "internalType": "bytes",
              "name": "publicIdentity",
              "type": "bytes"
            },
            {
              "internalType": "bytes",
              "name": "publicIdentitySignature",
              "type": "bytes"
            }
          ],
          "internalType": "struct SecTor.Pseudonym",
          "name": "",
          "type": "tuple"
        }
      ],
      "stateMutability": "nonpayable",
      "type": "function"
    },
    {
      "inputs": [
        {
          "internalType": "bytes",
          "name": "_hash",
          "type": "bytes"
        }
      ],
      "name": "addDocumentHash",
      "outputs": [
        {
          "components": [
            {
              "internalType": "bytes",
              "name": "hash",
              "type": "bytes"
            },
            {
              "internalType": "address",
              "name": "author",
              "type": "address"
            }
          ],
          "internalType": "struct SecTor.Document",
          "name": "",
          "type": "tuple"
        }
      ],
      "stateMutability": "nonpayable",
      "type": "function"
    },
    {
      "inputs": [
        {
          "internalType": "bytes",
          "name": "_publicIdentity",
          "type": "bytes"
        },
        {
          "internalType": "bytes",
          "name": "_publicIdentitySignature",
          "type": "bytes"
        },
        {
          "internalType": "bytes",
          "name": "_exponent",
          "type": "bytes"
        },
        {
          "internalType": "bytes",
          "name": "_modulus",
          "type": "bytes"
        }
      ],
      "name": "proveAuthorship",
      "outputs": [
        {
          "components": [
            {
              "internalType": "address",
              "name": "owner",
              "type": "address"
            },
            {
              "internalType": "address",
              "name": "patron",
              "type": "address"
            },
            {
              "internalType": "bytes",
              "name": "patronRSAPubKey",
              "type": "bytes"
            },
            {
              "internalType": "bytes",
              "name": "patronBlindSignature",
              "type": "bytes"
            },
            {
              "internalType": "uint256",
              "name": "tokens",
              "type": "uint256"
            },
            {
              "internalType": "bool",
              "name": "isPatron",
              "type": "bool"
            },
            {
              "internalType": "bool",
              "name": "gotInitialTokens",
              "type": "bool"
            },
            {
              "internalType": "bytes",
              "name": "publicIdentity",
              "type": "bytes"
            },
            {
              "internalType": "bytes",
              "name": "publicIdentitySignature",
              "type": "bytes"
            }
          ],
          "internalType": "struct SecTor.Pseudonym",
          "name": "",
          "type": "tuple"
        }
      ],
      "stateMutability": "nonpayable",
      "type": "function"
    },
    {
      "inputs": [],
      "name": "getCA",
      "outputs": [
        {
          "internalType": "address",
          "name": "",
          "type": "address"
        }
      ],
      "stateMutability": "view",
      "type": "function"
    },
    {
      "inputs": [],
      "name": "getPseudoList",
      "outputs": [
        {
          "internalType": "address[]",
          "name": "",
          "type": "address[]"
        }
      ],
      "stateMutability": "view",
      "type": "function"
    },
    {
      "inputs": [
        {
          "internalType": "address",
          "name": "_owner",
          "type": "address"
        }
      ],
      "name": "getPseudonym",
      "outputs": [
        {
          "components": [
            {
              "internalType": "address",
              "name": "owner",
              "type": "address"
            },
            {
              "internalType": "address",
              "name": "patron",
              "type": "address"
            },
            {
              "internalType": "bytes",
              "name": "patronRSAPubKey",
              "type": "bytes"
            },
            {
              "internalType": "bytes",
              "name": "patronBlindSignature",
              "type": "bytes"
            },
            {
              "internalType": "uint256",
              "name": "tokens",
              "type": "uint256"
            },
            {
              "internalType": "bool",
              "name": "isPatron",
              "type": "bool"
            },
            {
              "internalType": "bool",
              "name": "gotInitialTokens",
              "type": "bool"
            },
            {
              "internalType": "bytes",
              "name": "publicIdentity",
              "type": "bytes"
            },
            {
              "internalType": "bytes",
              "name": "publicIdentitySignature",
              "type": "bytes"
            }
          ],
          "internalType": "struct SecTor.Pseudonym",
          "name": "",
          "type": "tuple"
        }
      ],
      "stateMutability": "view",
      "type": "function"
    },
    {
      "inputs": [],
      "name": "getPatList",
      "outputs": [
        {
          "internalType": "address[]",
          "name": "",
          "type": "address[]"
        }
      ],
      "stateMutability": "view",
      "type": "function"
    },
    {
      "inputs": [
        {
          "internalType": "address",
          "name": "_owner",
          "type": "address"
        }
      ],
      "name": "getPatron",
      "outputs": [
        {
          "components": [
            {
              "internalType": "address",
              "name": "owner",
              "type": "address"
            },
            {
              "internalType": "address",
              "name": "patron",
              "type": "address"
            },
            {
              "internalType": "bytes",
              "name": "patronRSAPubKey",
              "type": "bytes"
            },
            {
              "internalType": "bytes",
              "name": "patronBlindSignature",
              "type": "bytes"
            },
            {
              "internalType": "uint256",
              "name": "tokens",
              "type": "uint256"
            },
            {
              "internalType": "bool",
              "name": "isPatron",
              "type": "bool"
            },
            {
              "internalType": "bool",
              "name": "gotInitialTokens",
              "type": "bool"
            },
            {
              "internalType": "bytes",
              "name": "publicIdentity",
              "type": "bytes"
            },
            {
              "internalType": "bytes",
              "name": "publicIdentitySignature",
              "type": "bytes"
            }
          ],
          "internalType": "struct SecTor.Pseudonym",
          "name": "",
          "type": "tuple"
        }
      ],
      "stateMutability": "view",
      "type": "function"
    },
    {
      "inputs": [],
      "name": "getDocHashes",
      "outputs": [
        {
          "internalType": "bytes[]",
          "name": "",
          "type": "bytes[]"
        }
      ],
      "stateMutability": "view",
      "type": "function"
    },
    {
      "inputs": [
        {
          "internalType": "bytes",
          "name": "_hash",
          "type": "bytes"
        }
      ],
      "name": "getDocument",
      "outputs": [
        {
          "components": [
            {
              "internalType": "bytes",
              "name": "hash",
              "type": "bytes"
            },
            {
              "internalType": "address",
              "name": "author",
              "type": "address"
            }
          ],
          "internalType": "struct SecTor.Document",
          "name": "",
          "type": "tuple"
        }
      ],
      "stateMutability": "view",
      "type": "function"
    },
    {
      "inputs": [],
      "name": "getInitialTokenGrant",
      "outputs": [
        {
          "internalType": "uint256",
          "name": "",
          "type": "uint256"
        }
      ],
      "stateMutability": "view",
      "type": "function"
    },
    {
      "inputs": [],
      "name": "getDocumentUploadCost",
      "outputs": [
        {
          "internalType": "uint256",
          "name": "",
          "type": "uint256"
        }
      ],
      "stateMutability": "view",
      "type": "function"
    }
  ],
  "bytecode": "0x6080604052737b5fb9a5535f2976cdc99c57d19111b2ed3cb9256000806101000a81548173ffffffffffffffffffffffffffffffffffffffff021916908373ffffffffffffffffffffffffffffffffffffffff160217905550600a600755600260085534801561006e57600080fd5b50614aa68061007e6000396000f3fe608060405234801561001057600080fd5b50600436106100ea5760003560e01c8063462d9dca1161008c57806380bc4aee1161006657806380bc4aee14610299578063e4897dd9146102b7578063f80a370f146102d5578063fd8cf888146102f3576100ea565b8063462d9dca1461020957806378bd0af8146102395780637aa408c014610269576100ea565b806314547e12116100c857806314547e121461015b578063192924ed1461018b5780632f3c3ad4146101bb5780633d70b1a4146101eb576100ea565b8063021dd34c146100ef578063040ead311461010d57806309385be61461012b575b600080fd5b6100f7610311565b6040516101049190614709565b60405180910390f35b61011561039f565b604051610122919061480f565b60405180910390f35b61014560048036036101409190810190613f87565b610d2d565b604051610152919061480f565b60405180910390f35b61017560048036036101709190810190613f87565b6110fb565b604051610182919061480f565b60405180910390f35b6101a560048036036101a09190810190613fb0565b6114c9565b6040516101b2919061480f565b60405180910390f35b6101d560048036036101d091908101906140d8565b611be6565b6040516101e291906147ed565b60405180910390f35b6101f36123c2565b6040516102009190614709565b60405180910390f35b610223600480360361021e9190810190614004565b612450565b604051610230919061480f565b60405180910390f35b610253600480360361024e9190810190614119565b612bc9565b604051610260919061480f565b60405180910390f35b610283600480360361027e91908101906140d8565b613574565b60405161029091906147ed565b60405180910390f35b6102a16136a4565b6040516102ae9190614831565b60405180910390f35b6102bf6136ae565b6040516102cc919061472b565b60405180910390f35b6102dd613797565b6040516102ea9190614831565b60405180910390f35b6102fb6137a1565b60405161030891906146ee565b60405180910390f35b6060600280548060200260200160405190810160405280929190818152602001828054801561039557602002820191906000526020600020905b8160009054906101000a900473ffffffffffffffffffffffffffffffffffffffff1673ffffffffffffffffffffffffffffffffffffffff168152602001906001019080831161034b575b5050505050905090565b6103a7613d15565b6103af613d15565b600160003373ffffffffffffffffffffffffffffffffffffffff1673ffffffffffffffffffffffffffffffffffffffff168152602001908152602001600020604051806101200160405290816000820160009054906101000a900473ffffffffffffffffffffffffffffffffffffffff1673ffffffffffffffffffffffffffffffffffffffff1673ffffffffffffffffffffffffffffffffffffffff1681526020016001820160009054906101000a900473ffffffffffffffffffffffffffffffffffffffff1673ffffffffffffffffffffffffffffffffffffffff1673ffffffffffffffffffffffffffffffffffffffff168152602001600282018054600181600116156101000203166002900480601f01602080910402602001604051908101604052809291908181526020018280546001816001161561010002031660029004801561053f5780601f106105145761010080835404028352916020019161053f565b820191906000526020600020905b81548152906001019060200180831161052257829003601f168201915b50505050508152602001600382018054600181600116156101000203166002900480601f0160208091040260200160405190810160405280929190818152602001828054600181600116156101000203166002900480156105e15780601f106105b6576101008083540402835291602001916105e1565b820191906000526020600020905b8154815290600101906020018083116105c457829003601f168201915b50505050508152602001600482015481526020016005820160009054906101000a900460ff161515151581526020016005820160019054906101000a900460ff16151515158152602001600682018054600181600116156101000203166002900480601f0160208091040260200160405190810160405280929190818152602001828054600181600116156101000203166002900480156106c35780601f10610698576101008083540402835291602001916106c3565b820191906000526020600020905b8154815290600101906020018083116106a657829003601f168201915b50505050508152602001600782018054600181600116156101000203166002900480601f0160208091040260200160405190810160405280929190818152602001828054600181600116156101000203166002900480156107655780601f1061073a57610100808354040283529160200191610765565b820191906000526020600020905b81548152906001019060200180831161074857829003601f168201915b5050505050815250509050600115158160c001511515146107bb576040517f08c379a00000000000000000000000000000000000000000000000000000000081526004016107b29061476d565b60405180910390fd5b60075481608001818152505060018160c001901515908115158152505080600160003373ffffffffffffffffffffffffffffffffffffffff1673ffffffffffffffffffffffffffffffffffffffff16815260200190815260200160002060008201518160000160006101000a81548173ffffffffffffffffffffffffffffffffffffffff021916908373ffffffffffffffffffffffffffffffffffffffff16021790555060208201518160010160006101000a81548173ffffffffffffffffffffffffffffffffffffffff021916908373ffffffffffffffffffffffffffffffffffffffff16021790555060408201518160020190805190602001906108c2929190613d91565b5060608201518160030190805190602001906108df929190613d91565b506080820151816004015560a08201518160050160006101000a81548160ff02191690831515021790555060c08201518160050160016101000a81548160ff02191690831515021790555060e0820151816006019080519060200190610946929190613d91565b50610100820151816007019080519060200190610964929190613d91565b50905050600160003373ffffffffffffffffffffffffffffffffffffffff1673ffffffffffffffffffffffffffffffffffffffff168152602001908152602001600020604051806101200160405290816000820160009054906101000a900473ffffffffffffffffffffffffffffffffffffffff1673ffffffffffffffffffffffffffffffffffffffff1673ffffffffffffffffffffffffffffffffffffffff1681526020016001820160009054906101000a900473ffffffffffffffffffffffffffffffffffffffff1673ffffffffffffffffffffffffffffffffffffffff1673ffffffffffffffffffffffffffffffffffffffff168152602001600282018054600181600116156101000203166002900480601f016020809104026020016040519081016040528092919081815260200182805460018160011615610100020316600290048015610af85780601f10610acd57610100808354040283529160200191610af8565b820191906000526020600020905b815481529060010190602001808311610adb57829003601f168201915b50505050508152602001600382018054600181600116156101000203166002900480601f016020809104026020016040519081016040528092919081815260200182805460018160011615610100020316600290048015610b9a5780601f10610b6f57610100808354040283529160200191610b9a565b820191906000526020600020905b815481529060010190602001808311610b7d57829003601f168201915b50505050508152602001600482015481526020016005820160009054906101000a900460ff161515151581526020016005820160019054906101000a900460ff16151515158152602001600682018054600181600116156101000203166002900480601f016020809104026020016040519081016040528092919081815260200182805460018160011615610100020316600290048015610c7c5780601f10610c5157610100808354040283529160200191610c7c565b820191906000526020600020905b815481529060010190602001808311610c5f57829003601f168201915b50505050508152602001600782018054600181600116156101000203166002900480601f016020809104026020016040519081016040528092919081815260200182805460018160011615610100020316600290048015610d1e5780601f10610cf357610100808354040283529160200191610d1e565b820191906000526020600020905b815481529060010190602001808311610d0157829003601f168201915b50505050508152505091505090565b610d35613d15565b600360008373ffffffffffffffffffffffffffffffffffffffff1673ffffffffffffffffffffffffffffffffffffffff168152602001908152602001600020604051806101200160405290816000820160009054906101000a900473ffffffffffffffffffffffffffffffffffffffff1673ffffffffffffffffffffffffffffffffffffffff1673ffffffffffffffffffffffffffffffffffffffff1681526020016001820160009054906101000a900473ffffffffffffffffffffffffffffffffffffffff1673ffffffffffffffffffffffffffffffffffffffff1673ffffffffffffffffffffffffffffffffffffffff168152602001600282018054600181600116156101000203166002900480601f016020809104026020016040519081016040528092919081815260200182805460018160011615610100020316600290048015610ec55780601f10610e9a57610100808354040283529160200191610ec5565b820191906000526020600020905b815481529060010190602001808311610ea857829003601f168201915b50505050508152602001600382018054600181600116156101000203166002900480601f016020809104026020016040519081016040528092919081815260200182805460018160011615610100020316600290048015610f675780601f10610f3c57610100808354040283529160200191610f67565b820191906000526020600020905b815481529060010190602001808311610f4a57829003601f168201915b50505050508152602001600482015481526020016005820160009054906101000a900460ff161515151581526020016005820160019054906101000a900460ff16151515158152602001600682018054600181600116156101000203166002900480601f0160208091040260200160405190810160405280929190818152602001828054600181600116156101000203166002900480156110495780601f1061101e57610100808354040283529160200191611049565b820191906000526020600020905b81548152906001019060200180831161102c57829003601f168201915b50505050508152602001600782018054600181600116156101000203166002900480601f0160208091040260200160405190810160405280929190818152602001828054600181600116156101000203166002900480156110eb5780601f106110c0576101008083540402835291602001916110eb565b820191906000526020600020905b8154815290600101906020018083116110ce57829003601f168201915b5050505050815250509050919050565b611103613d15565b600160008373ffffffffffffffffffffffffffffffffffffffff1673ffffffffffffffffffffffffffffffffffffffff168152602001908152602001600020604051806101200160405290816000820160009054906101000a900473ffffffffffffffffffffffffffffffffffffffff1673ffffffffffffffffffffffffffffffffffffffff1673ffffffffffffffffffffffffffffffffffffffff1681526020016001820160009054906101000a900473ffffffffffffffffffffffffffffffffffffffff1673ffffffffffffffffffffffffffffffffffffffff1673ffffffffffffffffffffffffffffffffffffffff168152602001600282018054600181600116156101000203166002900480601f0160208091040260200160405190810160405280929190818152602001828054600181600116156101000203166002900480156112935780601f1061126857610100808354040283529160200191611293565b820191906000526020600020905b81548152906001019060200180831161127657829003601f168201915b50505050508152602001600382018054600181600116156101000203166002900480601f0160208091040260200160405190810160405280929190818152602001828054600181600116156101000203166002900480156113355780601f1061130a57610100808354040283529160200191611335565b820191906000526020600020905b81548152906001019060200180831161131857829003601f168201915b50505050508152602001600482015481526020016005820160009054906101000a900460ff161515151581526020016005820160019054906101000a900460ff16151515158152602001600682018054600181600116156101000203166002900480601f0160208091040260200160405190810160405280929190818152602001828054600181600116156101000203166002900480156114175780601f106113ec57610100808354040283529160200191611417565b820191906000526020600020905b8154815290600101906020018083116113fa57829003601f168201915b50505050508152602001600782018054600181600116156101000203166002900480601f0160208091040260200160405190810160405280929190818152602001828054600181600116156101000203166002900480156114b95780601f1061148e576101008083540402835291602001916114b9565b820191906000526020600020905b81548152906001019060200180831161149c57829003601f168201915b5050505050815250509050919050565b6114d1613d15565b6000809054906101000a900473ffffffffffffffffffffffffffffffffffffffff1673ffffffffffffffffffffffffffffffffffffffff163373ffffffffffffffffffffffffffffffffffffffff1614611560576040517f08c379a00000000000000000000000000000000000000000000000000000000081526004016115579061474d565b60405180910390fd5b611568613d15565b6040518061012001604052808573ffffffffffffffffffffffffffffffffffffffff1681526020016000809054906101000a900473ffffffffffffffffffffffffffffffffffffffff1673ffffffffffffffffffffffffffffffffffffffff1681526020018481526020016040518060200160405280600081525081526020016000815260200160011515815260200160011515815260200160405180602001604052806000815250815260200160405180602001604052806000815250815250905080600360008673ffffffffffffffffffffffffffffffffffffffff1673ffffffffffffffffffffffffffffffffffffffff16815260200190815260200160002060008201518160000160006101000a81548173ffffffffffffffffffffffffffffffffffffffff021916908373ffffffffffffffffffffffffffffffffffffffff16021790555060208201518160010160006101000a81548173ffffffffffffffffffffffffffffffffffffffff021916908373ffffffffffffffffffffffffffffffffffffffff1602179055506040820151816002019080519060200190611715929190613d91565b506060820151816003019080519060200190611732929190613d91565b506080820151816004015560a08201518160050160006101000a81548160ff02191690831515021790555060c08201518160050160016101000a81548160ff02191690831515021790555060e0820151816006019080519060200190611799929190613d91565b506101008201518160070190805190602001906117b7929190613d91565b509050506004849080600181540180825580915050600190039060005260206000200160009091909190916101000a81548173ffffffffffffffffffffffffffffffffffffffff021916908373ffffffffffffffffffffffffffffffffffffffff160217905550600360008573ffffffffffffffffffffffffffffffffffffffff1673ffffffffffffffffffffffffffffffffffffffff168152602001908152602001600020604051806101200160405290816000820160009054906101000a900473ffffffffffffffffffffffffffffffffffffffff1673ffffffffffffffffffffffffffffffffffffffff1673ffffffffffffffffffffffffffffffffffffffff1681526020016001820160009054906101000a900473ffffffffffffffffffffffffffffffffffffffff1673ffffffffffffffffffffffffffffffffffffffff1673ffffffffffffffffffffffffffffffffffffffff168152602001600282018054600181600116156101000203166002900480601f0160208091040260200160405190810160405280929190818152602001828054600181600116156101000203166002900480156119ae5780601f10611983576101008083540402835291602001916119ae565b820191906000526020600020905b81548152906001019060200180831161199157829003601f168201915b50505050508152602001600382018054600181600116156101000203166002900480601f016020809104026020016040519081016040528092919081815260200182805460018160011615610100020316600290048015611a505780601f10611a2557610100808354040283529160200191611a50565b820191906000526020600020905b815481529060010190602001808311611a3357829003601f168201915b50505050508152602001600482015481526020016005820160009054906101000a900460ff161515151581526020016005820160019054906101000a900460ff16151515158152602001600682018054600181600116156101000203166002900480601f016020809104026020016040519081016040528092919081815260200182805460018160011615610100020316600290048015611b325780601f10611b0757610100808354040283529160200191611b32565b820191906000526020600020905b815481529060010190602001808311611b1557829003601f168201915b50505050508152602001600782018054600181600116156101000203166002900480601f016020809104026020016040519081016040528092919081815260200182805460018160011615610100020316600290048015611bd45780601f10611ba957610100808354040283529160200191611bd4565b820191906000526020600020905b815481529060010190602001808311611bb757829003601f168201915b50505050508152505091505092915050565b611bee613e11565b611bf6613d15565b600160003373ffffffffffffffffffffffffffffffffffffffff1673ffffffffffffffffffffffffffffffffffffffff168152602001908152602001600020604051806101200160405290816000820160009054906101000a900473ffffffffffffffffffffffffffffffffffffffff1673ffffffffffffffffffffffffffffffffffffffff1673ffffffffffffffffffffffffffffffffffffffff1681526020016001820160009054906101000a900473ffffffffffffffffffffffffffffffffffffffff1673ffffffffffffffffffffffffffffffffffffffff1673ffffffffffffffffffffffffffffffffffffffff168152602001600282018054600181600116156101000203166002900480601f016020809104026020016040519081016040528092919081815260200182805460018160011615610100020316600290048015611d865780601f10611d5b57610100808354040283529160200191611d86565b820191906000526020600020905b815481529060010190602001808311611d6957829003601f168201915b50505050508152602001600382018054600181600116156101000203166002900480601f016020809104026020016040519081016040528092919081815260200182805460018160011615610100020316600290048015611e285780601f10611dfd57610100808354040283529160200191611e28565b820191906000526020600020905b815481529060010190602001808311611e0b57829003601f168201915b50505050508152602001600482015481526020016005820160009054906101000a900460ff161515151581526020016005820160019054906101000a900460ff16151515158152602001600682018054600181600116156101000203166002900480601f016020809104026020016040519081016040528092919081815260200182805460018160011615610100020316600290048015611f0a5780601f10611edf57610100808354040283529160200191611f0a565b820191906000526020600020905b815481529060010190602001808311611eed57829003601f168201915b50505050508152602001600782018054600181600116156101000203166002900480601f016020809104026020016040519081016040528092919081815260200182805460018160011615610100020316600290048015611fac5780601f10611f8157610100808354040283529160200191611fac565b820191906000526020600020905b815481529060010190602001808311611f8f57829003601f168201915b5050505050815250509050600854816080015110611fff576040517f08c379a0000000000000000000000000000000000000000000000000000000008152600401611ff6906147ad565b60405180910390fd5b600854816080015103816080018181525050612019613e11565b60405180604001604052808581526020013373ffffffffffffffffffffffffffffffffffffffff1681525090508060058560405161205791906146d7565b90815260200160405180910390206000820151816000019080519060200190612081929190613d91565b5060208201518160010160006101000a81548173ffffffffffffffffffffffffffffffffffffffff021916908373ffffffffffffffffffffffffffffffffffffffff16021790555090505081600160003373ffffffffffffffffffffffffffffffffffffffff1673ffffffffffffffffffffffffffffffffffffffff16815260200190815260200160002060008201518160000160006101000a81548173ffffffffffffffffffffffffffffffffffffffff021916908373ffffffffffffffffffffffffffffffffffffffff16021790555060208201518160010160006101000a81548173ffffffffffffffffffffffffffffffffffffffff021916908373ffffffffffffffffffffffffffffffffffffffff16021790555060408201518160020190805190602001906121b6929190613d91565b5060608201518160030190805190602001906121d3929190613d91565b506080820151816004015560a08201518160050160006101000a81548160ff02191690831515021790555060c08201518160050160016101000a81548160ff02191690831515021790555060e082015181600601908051906020019061223a929190613d91565b50610100820151816007019080519060200190612258929190613d91565b50905050600684908060018154018082558091505060019003906000526020600020016000909190919091509080519060200190612297929190613e41565b506005846040516122a891906146d7565b9081526020016040518091039020604051806040016040529081600082018054600181600116156101000203166002900480601f01602080910402602001604051908101604052809291908181526020018280546001816001161561010002031660029004801561235a5780601f1061232f5761010080835404028352916020019161235a565b820191906000526020600020905b81548152906001019060200180831161233d57829003601f168201915b505050505081526020016001820160009054906101000a900473ffffffffffffffffffffffffffffffffffffffff1673ffffffffffffffffffffffffffffffffffffffff1673ffffffffffffffffffffffffffffffffffffffff168152505092505050919050565b6060600480548060200260200160405190810160405280929190818152602001828054801561244657602002820191906000526020600020905b8160009054906101000a900473ffffffffffffffffffffffffffffffffffffffff1673ffffffffffffffffffffffffffffffffffffffff16815260200190600101908083116123fc575b5050505050905090565b612458613d15565b6000600360008773ffffffffffffffffffffffffffffffffffffffff1673ffffffffffffffffffffffffffffffffffffffff1681526020019081526020016000209050600115158160050160009054906101000a900460ff16151514156124f4576040517f08c379a00000000000000000000000000000000000000000000000000000000081526004016124eb906147cd565b60405180910390fd5b60006125213360405160200161250a91906146bc565b6040516020818303038152906040528787876137ca565b14612561576040517f08c379a00000000000000000000000000000000000000000000000000000000081526004016125589061478d565b60405180910390fd5b612569613d15565b6040518061012001604052803373ffffffffffffffffffffffffffffffffffffffff1681526020018873ffffffffffffffffffffffffffffffffffffffff1681526020016040518060200160405280600081525081526020018781526020016000815260200160001515815260200160001515815260200160405180602001604052806000815250815260200160405180602001604052806000815250815250905080600160003373ffffffffffffffffffffffffffffffffffffffff1673ffffffffffffffffffffffffffffffffffffffff16815260200190815260200160002060008201518160000160006101000a81548173ffffffffffffffffffffffffffffffffffffffff021916908373ffffffffffffffffffffffffffffffffffffffff16021790555060208201518160010160006101000a81548173ffffffffffffffffffffffffffffffffffffffff021916908373ffffffffffffffffffffffffffffffffffffffff16021790555060408201518160020190805190602001906126f5929190613d91565b506060820151816003019080519060200190612712929190613d91565b506080820151816004015560a08201518160050160006101000a81548160ff02191690831515021790555060c08201518160050160016101000a81548160ff02191690831515021790555060e0820151816006019080519060200190612779929190613d91565b50610100820151816007019080519060200190612797929190613d91565b509050506002339080600181540180825580915050600190039060005260206000200160009091909190916101000a81548173ffffffffffffffffffffffffffffffffffffffff021916908373ffffffffffffffffffffffffffffffffffffffff160217905550600160003373ffffffffffffffffffffffffffffffffffffffff1673ffffffffffffffffffffffffffffffffffffffff168152602001908152602001600020604051806101200160405290816000820160009054906101000a900473ffffffffffffffffffffffffffffffffffffffff1673ffffffffffffffffffffffffffffffffffffffff1673ffffffffffffffffffffffffffffffffffffffff1681526020016001820160009054906101000a900473ffffffffffffffffffffffffffffffffffffffff1673ffffffffffffffffffffffffffffffffffffffff1673ffffffffffffffffffffffffffffffffffffffff168152602001600282018054600181600116156101000203166002900480601f01602080910402602001604051908101604052809291908181526020018280546001816001161561010002031660029004801561298e5780601f106129635761010080835404028352916020019161298e565b820191906000526020600020905b81548152906001019060200180831161297157829003601f168201915b50505050508152602001600382018054600181600116156101000203166002900480601f016020809104026020016040519081016040528092919081815260200182805460018160011615610100020316600290048015612a305780601f10612a0557610100808354040283529160200191612a30565b820191906000526020600020905b815481529060010190602001808311612a1357829003601f168201915b50505050508152602001600482015481526020016005820160009054906101000a900460ff161515151581526020016005820160019054906101000a900460ff16151515158152602001600682018054600181600116156101000203166002900480601f016020809104026020016040519081016040528092919081815260200182805460018160011615610100020316600290048015612b125780601f10612ae757610100808354040283529160200191612b12565b820191906000526020600020905b815481529060010190602001808311612af557829003601f168201915b50505050508152602001600782018054600181600116156101000203166002900480601f016020809104026020016040519081016040528092919081815260200182805460018160011615610100020316600290048015612bb45780601f10612b8957610100808354040283529160200191612bb4565b820191906000526020600020905b815481529060010190602001808311612b9757829003601f168201915b50505050508152505092505050949350505050565b612bd1613d15565b612bd9613d15565b600160003373ffffffffffffffffffffffffffffffffffffffff1673ffffffffffffffffffffffffffffffffffffffff168152602001908152602001600020604051806101200160405290816000820160009054906101000a900473ffffffffffffffffffffffffffffffffffffffff1673ffffffffffffffffffffffffffffffffffffffff1673ffffffffffffffffffffffffffffffffffffffff1681526020016001820160009054906101000a900473ffffffffffffffffffffffffffffffffffffffff1673ffffffffffffffffffffffffffffffffffffffff1673ffffffffffffffffffffffffffffffffffffffff168152602001600282018054600181600116156101000203166002900480601f016020809104026020016040519081016040528092919081815260200182805460018160011615610100020316600290048015612d695780601f10612d3e57610100808354040283529160200191612d69565b820191906000526020600020905b815481529060010190602001808311612d4c57829003601f168201915b50505050508152602001600382018054600181600116156101000203166002900480601f016020809104026020016040519081016040528092919081815260200182805460018160011615610100020316600290048015612e0b5780601f10612de057610100808354040283529160200191612e0b565b820191906000526020600020905b815481529060010190602001808311612dee57829003601f168201915b50505050508152602001600482015481526020016005820160009054906101000a900460ff161515151581526020016005820160019054906101000a900460ff16151515158152602001600682018054600181600116156101000203166002900480601f016020809104026020016040519081016040528092919081815260200182805460018160011615610100020316600290048015612eed5780601f10612ec257610100808354040283529160200191612eed565b820191906000526020600020905b815481529060010190602001808311612ed057829003601f168201915b50505050508152602001600782018054600181600116156101000203166002900480601f016020809104026020016040519081016040528092919081815260200182805460018160011615610100020316600290048015612f8f5780601f10612f6457610100808354040283529160200191612f8f565b820191906000526020600020905b815481529060010190602001808311612f7257829003601f168201915b50505050508152505090506000612fc733604051602001612fb091906146bc565b6040516020818303038152906040528787876137ca565b14613007576040517f08c379a0000000000000000000000000000000000000000000000000000000008152600401612ffe9061478d565b60405180910390fd5b858160e001819052508481610100018190525080600160003373ffffffffffffffffffffffffffffffffffffffff1673ffffffffffffffffffffffffffffffffffffffff16815260200190815260200160002060008201518160000160006101000a81548173ffffffffffffffffffffffffffffffffffffffff021916908373ffffffffffffffffffffffffffffffffffffffff16021790555060208201518160010160006101000a81548173ffffffffffffffffffffffffffffffffffffffff021916908373ffffffffffffffffffffffffffffffffffffffff1602179055506040820151816002019080519060200190613104929190613d91565b506060820151816003019080519060200190613121929190613d91565b506080820151816004015560a08201518160050160006101000a81548160ff02191690831515021790555060c08201518160050160016101000a81548160ff02191690831515021790555060e0820151816006019080519060200190613188929190613d91565b506101008201518160070190805190602001906131a6929190613d91565b50905050600160003373ffffffffffffffffffffffffffffffffffffffff1673ffffffffffffffffffffffffffffffffffffffff168152602001908152602001600020604051806101200160405290816000820160009054906101000a900473ffffffffffffffffffffffffffffffffffffffff1673ffffffffffffffffffffffffffffffffffffffff1673ffffffffffffffffffffffffffffffffffffffff1681526020016001820160009054906101000a900473ffffffffffffffffffffffffffffffffffffffff1673ffffffffffffffffffffffffffffffffffffffff1673ffffffffffffffffffffffffffffffffffffffff168152602001600282018054600181600116156101000203166002900480601f01602080910402602001604051908101604052809291908181526020018280546001816001161561010002031660029004801561333a5780601f1061330f5761010080835404028352916020019161333a565b820191906000526020600020905b81548152906001019060200180831161331d57829003601f168201915b50505050508152602001600382018054600181600116156101000203166002900480601f0160208091040260200160405190810160405280929190818152602001828054600181600116156101000203166002900480156133dc5780601f106133b1576101008083540402835291602001916133dc565b820191906000526020600020905b8154815290600101906020018083116133bf57829003601f168201915b50505050508152602001600482015481526020016005820160009054906101000a900460ff161515151581526020016005820160019054906101000a900460ff16151515158152602001600682018054600181600116156101000203166002900480601f0160208091040260200160405190810160405280929190818152602001828054600181600116156101000203166002900480156134be5780601f10613493576101008083540402835291602001916134be565b820191906000526020600020905b8154815290600101906020018083116134a157829003601f168201915b50505050508152602001600782018054600181600116156101000203166002900480601f0160208091040260200160405190810160405280929190818152602001828054600181600116156101000203166002900480156135605780601f1061353557610100808354040283529160200191613560565b820191906000526020600020905b81548152906001019060200180831161354357829003601f168201915b505050505081525050915050949350505050565b61357c613e11565b60058260405161358c91906146d7565b9081526020016040518091039020604051806040016040529081600082018054600181600116156101000203166002900480601f01602080910402602001604051908101604052809291908181526020018280546001816001161561010002031660029004801561363e5780601f106136135761010080835404028352916020019161363e565b820191906000526020600020905b81548152906001019060200180831161362157829003601f168201915b505050505081526020016001820160009054906101000a900473ffffffffffffffffffffffffffffffffffffffff1673ffffffffffffffffffffffffffffffffffffffff1673ffffffffffffffffffffffffffffffffffffffff16815250509050919050565b6000600854905090565b60606006805480602002602001604051908101604052809291908181526020016000905b8282101561378e578382906000526020600020018054600181600116156101000203166002900480601f01602080910402602001604051908101604052809291908181526020018280546001816001161561010002031660029004801561377a5780601f1061374f5761010080835404028352916020019161377a565b820191906000526020600020905b81548152906001019060200180831161375d57829003601f168201915b5050505050815260200190600101906136d2565b50505050905090565b6000600754905090565b60008060009054906101000a900473ffffffffffffffffffffffffffffffffffffffff16905090565b60006138276002866040516137df91906146d7565b602060405180830381855afa1580156137fc573d6000803e3d6000fd5b5050506040513d601f19601f8201168201806040525061381f91908101906140af565b858585613831565b9050949350505050565b600061383b613ec1565b604051806102600160405280603060ff168152602001603160ff168152602001603060ff168152602001600d60ff168152602001600660ff168152602001600960ff168152602001606060ff168152602001608660ff168152602001604860ff168152602001600160ff168152602001606560ff168152602001600360ff168152602001600460ff168152602001600260ff168152602001600160ff168152602001600560ff168152602001600060ff168152602001600460ff168152602001602060ff168152509050600b602060ff16601301018351101561391d57600080fd5b6000606061392c878787613bf8565b90506000815190506000865190506060816040519080825280601f01601f19166020018201604052801561396f5781602001600182028038833980820191505090505b5090508160208201846020870160056107d05a03fa506000602060136003850303039050600060f81b826000815181106139a557fe5b602001015160f81c60f81b7effffffffffffffffffffffffffffffffffffffffffffffffffffffffffffff19161415806139fd57506001826001815181106139e957fe5b602001015160f81c60f81b60f81c60ff1614155b15613a12576001975050505050505050613bf0565b600295505b80600201861015613a825760ff60f81b828781518110613a3357fe5b602001015160f81c60f81b7effffffffffffffffffffffffffffffffffffffffffffffffffffffffffffff191614613a75576002975050505050505050613bf0565b8580600101965050613a17565b600060f81b828260020181518110613a9657fe5b602001015160f81c60f81b7effffffffffffffffffffffffffffffffffffffffffffffffffffffffffffff191614613ad8576003975050505050505050613bf0565b600095505b6013861015613b3e57868660138110613af257fe5b602002015160ff168287836003010181518110613b0b57fe5b602001015160f81c60f81b60f81c60ff1614613b31576004975050505050505050613bf0565b8580600101965050613add565b600095505b602060ff16861015613be4578b8660208110613b5b57fe5b1a60f81b7effffffffffffffffffffffffffffffffffffffffffffffffffffffffffffff19168287601384600301010181518110613b9557fe5b602001015160f81c60f81b7effffffffffffffffffffffffffffffffffffffffffffffffffffffffffffff191614613bd7576005975050505050505050613bf0565b8580600101965050613b43565b60009750505050505050505b949350505050565b60606000825184518651606001010190506000855190506000855190506000855190506000806000806060886040519080825280601f01601f191660200182016040528015613c565781602001600182028038833980820191505090505b50905060208d01945060208c01935060208b019250876020820152866040820152856060820152602081019150613c9260608301868f51613ccc565b613ca48d516060840101858e51613ccc565b613cb98c518e51606085010101848d51613ccc565b8099505050505050505050509392505050565b5b60208110613cf05781518352602083019250602082019150602081039050613ccd565b60006001826020036101000a0390508019835116818551168181178652505050505050565b604051806101200160405280600073ffffffffffffffffffffffffffffffffffffffff168152602001600073ffffffffffffffffffffffffffffffffffffffff16815260200160608152602001606081526020016000815260200160001515815260200160001515815260200160608152602001606081525090565b828054600181600116156101000203166002900490600052602060002090601f016020900481019282601f10613dd257805160ff1916838001178555613e00565b82800160010185558215613e00579182015b82811115613dff578251825591602001919060010190613de4565b5b509050613e0d9190613ee4565b5090565b604051806040016040528060608152602001600073ffffffffffffffffffffffffffffffffffffffff1681525090565b828054600181600116156101000203166002900490600052602060002090601f016020900481019282601f10613e8257805160ff1916838001178555613eb0565b82800160010185558215613eb0579182015b82811115613eaf578251825591602001919060010190613e94565b5b509050613ebd9190613ee4565b5090565b604051806102600160405280601390602082028038833980820191505090505090565b613f0691905b80821115613f02576000816000905550600101613eea565b5090565b90565b600081359050613f1881614a42565b92915050565b600081519050613f2d81614a59565b92915050565b600082601f830112613f4457600080fd5b8135613f57613f5282614879565b61484c565b91508082526020830160208301858383011115613f7357600080fd5b613f7e8382846149be565b50505092915050565b600060208284031215613f9957600080fd5b6000613fa784828501613f09565b91505092915050565b60008060408385031215613fc357600080fd5b6000613fd185828601613f09565b925050602083013567ffffffffffffffff811115613fee57600080fd5b613ffa85828601613f33565b9150509250929050565b6000806000806080858703121561401a57600080fd5b600061402887828801613f09565b945050602085013567ffffffffffffffff81111561404557600080fd5b61405187828801613f33565b935050604085013567ffffffffffffffff81111561406e57600080fd5b61407a87828801613f33565b925050606085013567ffffffffffffffff81111561409757600080fd5b6140a387828801613f33565b91505092959194509250565b6000602082840312156140c157600080fd5b60006140cf84828501613f1e565b91505092915050565b6000602082840312156140ea57600080fd5b600082013567ffffffffffffffff81111561410457600080fd5b61411084828501613f33565b91505092915050565b6000806000806080858703121561412f57600080fd5b600085013567ffffffffffffffff81111561414957600080fd5b61415587828801613f33565b945050602085013567ffffffffffffffff81111561417257600080fd5b61417e87828801613f33565b935050604085013567ffffffffffffffff81111561419b57600080fd5b6141a787828801613f33565b925050606085013567ffffffffffffffff8111156141c457600080fd5b6141d087828801613f33565b91505092959194509250565b60006141e8838361421f565b60208301905092915050565b60006142008383614350565b905092915050565b6142196142148261496c565b614a00565b82525050565b6142288161495a565b82525050565b6142378161495a565b82525050565b6000614248826148c5565b614252818561490b565b935061425d836148a5565b8060005b8381101561428e57815161427588826141dc565b9750614280836148f1565b925050600181019050614261565b5085935050505092915050565b60006142a6826148d0565b6142b0818561491c565b9350836020820285016142c2856148b5565b8060005b858110156142fe57848403895281516142df85826141f4565b94506142ea836148fe565b925060208a019950506001810190506142c6565b50829750879550505050505092915050565b6143198161497e565b82525050565b600061432a826148e6565b614334818561493e565b93506143448185602086016149cd565b80840191505092915050565b600061435b826148db565b614365818561492d565b93506143758185602086016149cd565b61437e81614a24565b840191505092915050565b6000614396603583614949565b91507f546869732066756e6374696f6e206973207265737472696374656420746f207460008301527f68652063656e7472616c20617574686f726974792e00000000000000000000006020830152604082019050919050565b60006143fc602f83614949565b91507f546869732070736575646f6e796d20616c72656164792072656365697665642060008301527f696e697469616c20746f6b656e732e00000000000000000000000000000000006020830152604082019050919050565b6000614462602883614949565b91507f5369676e617475726520646f6573206e6f74206d617463682073656e6465722060008301527f616464726573732e0000000000000000000000000000000000000000000000006020830152604082019050919050565b60006144c8604283614949565b91507f546869732070736575646f6e796d20646f6573206e6f74206861766520656e6f60008301527f75676820746f6b656e7320746f20706179207468652075706c6f616420636f7360208301527f742e0000000000000000000000000000000000000000000000000000000000006040830152606082019050919050565b6000614554601f83614949565b91507f476976656e2061646472657373206d757374206265206120706174726f6e2e006000830152602082019050919050565b600060408301600083015184820360008601526145a48282614350565b91505060208301516145b9602086018261421f565b508091505092915050565b6000610120830160008301516145dd600086018261421f565b5060208301516145f0602086018261421f565b50604083015184820360408601526146088282614350565b915050606083015184820360608601526146228282614350565b9150506080830151614637608086018261469e565b5060a083015161464a60a0860182614310565b5060c083015161465d60c0860182614310565b5060e083015184820360e08601526146758282614350565b9150506101008301518482036101008601526146918282614350565b9150508091505092915050565b6146a7816149b4565b82525050565b6146b6816149b4565b82525050565b60006146c88284614208565b60148201915081905092915050565b60006146e3828461431f565b915081905092915050565b6000602082019050614703600083018461422e565b92915050565b60006020820190508181036000830152614723818461423d565b905092915050565b60006020820190508181036000830152614745818461429b565b905092915050565b6000602082019050818103600083015261476681614389565b9050919050565b60006020820190508181036000830152614786816143ef565b9050919050565b600060208201905081810360008301526147a681614455565b9050919050565b600060208201905081810360008301526147c6816144bb565b9050919050565b600060208201905081810360008301526147e681614547565b9050919050565b600060208201905081810360008301526148078184614587565b905092915050565b6000602082019050818103600083015261482981846145c4565b905092915050565b600060208201905061484660008301846146ad565b92915050565b6000604051905081810181811067ffffffffffffffff8211171561486f57600080fd5b8060405250919050565b600067ffffffffffffffff82111561489057600080fd5b601f19601f8301169050602081019050919050565b6000819050602082019050919050565b6000819050602082019050919050565b600081519050919050565b600081519050919050565b600081519050919050565b600081519050919050565b6000602082019050919050565b6000602082019050919050565b600082825260208201905092915050565b600082825260208201905092915050565b600082825260208201905092915050565b600081905092915050565b600082825260208201905092915050565b600061496582614994565b9050919050565b600061497782614994565b9050919050565b60008115159050919050565b6000819050919050565b600073ffffffffffffffffffffffffffffffffffffffff82169050919050565b6000819050919050565b82818337600083830152505050565b60005b838110156149eb5780820151818401526020810190506149d0565b838111156149fa576000848401525b50505050565b6000614a0b82614a12565b9050919050565b6000614a1d82614a35565b9050919050565b6000601f19601f8301169050919050565b60008160601b9050919050565b614a4b8161495a565b8114614a5657600080fd5b50565b614a628161498a565b8114614a6d57600080fd5b5056fea26469706673582212209772d40c2041d84a0f46ec0e3d4816523c81fa28a2b8c4eb6b826da7c1a876b564736f6c63430006000033",
  "source": "pragma solidity ^0.6.0;\npragma experimental ABIEncoderV2;\n\n//import {SolRsaVerify} from './SolRsaVerify.sol';\n\nlibrary SolRsaVerify {\n\n    function memcpy(uint _dest, uint _src, uint _len) pure internal {\n        // Copy word-length chunks while possible\n        for ( ;_len >= 32; _len -= 32) {\n            assembly {\n                mstore(_dest, mload(_src))\n            }\n            _dest += 32;\n            _src += 32;\n        }\n\n        // Copy remaining bytes\n        uint mask = 256 ** (32 - _len) - 1;\n        assembly {\n            let srcpart := and(mload(_src), not(mask))\n            let destpart := and(mload(_dest), mask)\n            mstore(_dest, or(destpart, srcpart))\n        }\n    }\n\n\n    function join(\n\tbytes memory _s, bytes memory _e, bytes memory _m\n    ) pure internal returns (bytes memory) {\n        uint inputLen = 0x60+_s.length+_e.length+_m.length;\n\n        uint slen = _s.length;\n        uint elen = _e.length;\n        uint mlen = _m.length;\n        uint sptr;\n        uint eptr;\n        uint mptr;\n        uint inputPtr;\n\n        bytes memory input = new bytes(inputLen);\n        assembly {\n            sptr := add(_s,0x20)\n            eptr := add(_e,0x20)\n            mptr := add(_m,0x20)\n            mstore(add(input,0x20),slen)\n            mstore(add(input,0x40),elen)\n            mstore(add(input,0x60),mlen)\n            inputPtr := add(input,0x20)\n        }\n        memcpy(inputPtr+0x60,sptr,_s.length);\n        memcpy(inputPtr+0x60+_s.length,eptr,_e.length);\n        memcpy(inputPtr+0x60+_s.length+_e.length,mptr,_m.length);\n\n        return input;\n    }\n\n    /** @dev Verifies a PKCSv1.5 SHA256 signature\n      * @param _sha256 is the sha256 of the data\n      * @param _s is the signature\n      * @param _e is the exponent\n      * @param _m is the modulus\n      * @return 0 if success, >0 otherwise\n    */\n    function pkcs1Sha256Verify(\n        bytes32 _sha256,\n        bytes memory _s, bytes memory _e, bytes memory _m\n    ) internal view returns (uint) {\n\n        uint8[19] memory sha256Prefix = [\n            0x30, 0x31, 0x30, 0x0d, 0x06, 0x09, 0x60, 0x86, 0x48, 0x01, 0x65, 0x03, 0x04, 0x02, 0x01, 0x05, 0x00, 0x04, 0x20\n        ];\n\n      \trequire(_m.length >= sha256Prefix.length+_sha256.length+11);\n\n        uint i;\n\n        /// decipher\n        bytes memory input = join(_s,_e,_m);\n        uint inputlen = input.length;\n\n        uint decipherlen = _m.length;\n        bytes memory decipher = new bytes(decipherlen);\n        assembly {\n            pop(staticcall(sub(gas(), 2000), 5, add(input,0x20), inputlen, add(decipher,0x20), decipherlen))\n\t}\n\n        /// 0x00 || 0x01 || PS || 0x00 || DigestInfo\n        /// PS is padding filled with 0xff\n        //  DigestInfo ::= SEQUENCE {\n        //     digestAlgorithm AlgorithmIdentifier,\n        //     digest OCTET STRING\n        //  }\n\n        uint paddingLen = decipherlen - 3 - sha256Prefix.length - 32;\n\n        if (decipher[0] != 0 || uint8(decipher[1]) != 1) {\n            return 1;\n        }\n        for (i = 2;i<2+paddingLen;i++) {\n            if (decipher[i] != 0xff) {\n                return 2;\n            }\n        }\n        if (decipher[2+paddingLen] != 0) {\n            return 3;\n        }\n        for (i = 0;i<sha256Prefix.length;i++) {\n            if (uint8(decipher[3+paddingLen+i])!=sha256Prefix[i]) {\n                return 4;\n            }\n        }\n        for (i = 0;i<_sha256.length;i++) {\n            if (decipher[3+paddingLen+sha256Prefix.length+i]!=_sha256[i]) {\n                return 5;\n            }\n        }\n\n        return 0;\n    }\n\n    /** @dev Verifies a PKCSv1.5 SHA256 signature\n      * @param _data to verify\n      * @param _s is the signature\n      * @param _e is the exponent\n      * @param _m is the modulus\n      * @return 0 if success, >0 otherwise\n    */\n    function pkcs1Sha256VerifyRaw(\n        bytes memory _data,\n        bytes memory _s, bytes memory _e, bytes memory _m\n    ) internal view returns (uint) {\n        return pkcs1Sha256Verify(sha256(_data),_s,_e,_m);\n    }\n\n}\n\ncontract SecTor {\n    address ca = 0x7B5FB9A5535f2976cdc99c57d19111B2Ed3cB925; // Hardcoded address of the central authority\n    mapping(address => Pseudonym) pseudonyms;\n    address[] pseudoList;\n    mapping(address => Pseudonym) patrons;\n    address[] patList;\n    mapping(bytes => Document) docs;\n    bytes[] docHashes;\n    uint initialTokenGrant = 10; // The number of initially granted tokens\n    uint documentUploadCost = 2;\n\n    /*\n    This assumes that we only use one instance of this contract.\n    */\n\n    constructor() public{\n\n    }\n\n    struct Pseudonym {\n        address owner;\n        address patron;\n        bytes patronRSAPubKey;\n        bytes patronBlindSignature;\n        uint tokens;\n\n        bool isPatron;\n        bool gotInitialTokens;\n\n        bytes publicIdentity;\n        bytes publicIdentitySignature;\n    }\n\n    struct Document {\n        bytes hash;\n        address author;\n        // space for meta data\n        // bool accepted;\n    }\n\n    modifier caOnly() {\n        require(\n            msg.sender == ca,\n            \"This function is restricted to the central authority.\"\n        );\n        _;\n    }\n\n    function createPatron(address _patron, bytes memory _RSAPublicKey) public caOnly returns (Pseudonym memory){\n\n        // Create new patron\n        Pseudonym memory patron = Pseudonym({\n            owner: _patron,\n            patronRSAPubKey: _RSAPublicKey,\n            patron: ca,\n            patronBlindSignature: \"\",\n            tokens: 0,\n            isPatron: true,\n            gotInitialTokens: true, // to disable patrons from getting tokens to publish documents\n            publicIdentity: \"\",\n            publicIdentitySignature: \"\"\n            });\n        patrons[_patron] = patron;\n        patList.push(_patron);\n\n        return patrons[_patron];\n    }\n\n    function addPseudonym(address _patron, bytes memory _patronBlindSignature, bytes memory _exponent, bytes memory _modulus) public returns (Pseudonym memory){\n        // Validate blind Signature of Patron\n        Pseudonym storage patron = patrons[_patron];\n        require(patron.isPatron != true, \"Given address must be a patron.\");\n        // Use RSA library here, signature should have been unblinded already\n        require(SolRsaVerify.pkcs1Sha256VerifyRaw(abi.encodePacked(msg.sender), _patronBlindSignature, _exponent, _modulus) == 0, \"Signature does not match sender address.\");\n\n        // Create new Pseudonym\n        Pseudonym memory pseudo = Pseudonym({\n            owner: msg.sender,\n            patronRSAPubKey: \"\",\n            patron: _patron,\n            patronBlindSignature: _patronBlindSignature,\n            tokens: 0,\n            isPatron: false,\n            gotInitialTokens: false,\n            publicIdentity: \"\",\n            publicIdentitySignature: \"\"\n            });\n        pseudonyms[msg.sender] = pseudo;\n        pseudoList.push(msg.sender);\n\n        return pseudonyms[msg.sender];\n    }\n\n    function grantInitialTokens() public returns (Pseudonym memory){\n        Pseudonym memory pseudo = pseudonyms[msg.sender];\n\n        // Check if tokens were already granted\n        require(pseudo.gotInitialTokens == true, \"This pseudonym already received initial tokens.\");\n\n        // Update pseudonym\n        pseudo.tokens = initialTokenGrant;\n        pseudo.gotInitialTokens = true;\n        pseudonyms[msg.sender] = pseudo;\n\n        return pseudonyms[msg.sender];\n    }\n\n    function addDocumentHash(bytes memory _hash) public returns (Document memory){\n        Pseudonym memory pseudo = pseudonyms[msg.sender];\n\n        // Check if enough tokens are available\n        require(pseudo.tokens < documentUploadCost, \"This pseudonym does not have enough tokens to pay the upload cost.\");\n\n        // pay the tokens\n        pseudo.tokens = pseudo.tokens - documentUploadCost;\n\n        // add the document hash\n        Document memory doc = Document({\n            hash: _hash,\n            author: msg.sender\n            });\n        docs[_hash] = doc;\n        pseudonyms[msg.sender] = pseudo;\n        docHashes.push(_hash);\n\n        return docs[_hash];\n    }\n\n    function proveAuthorship(bytes memory _publicIdentity, bytes memory _publicIdentitySignature, bytes memory _exponent, bytes memory _modulus) public returns (Pseudonym memory){\n        Pseudonym memory pseudo = pseudonyms[msg.sender];\n        // Validate _publicIdentitySignature signature of the ethereum address aka msg.sender\n        require(SolRsaVerify.pkcs1Sha256VerifyRaw(abi.encodePacked(msg.sender), _publicIdentitySignature, _exponent, _modulus) == 0, \"Signature does not match sender address.\");\n\n        // update pseudonym\n        pseudo.publicIdentity = _publicIdentity;\n        pseudo.publicIdentitySignature = _publicIdentitySignature;\n        pseudonyms[msg.sender] = pseudo;\n\n        return pseudonyms[msg.sender];\n    }\n\n    // Getter functions\n\n    function getCA() public view returns(address) {\n        return ca;\n    }\n\n    function getPseudoList() public view returns (address[] memory){\n        return pseudoList;\n    }\n\n    function getPseudonym(address _owner) public view returns (Pseudonym memory){\n        return pseudonyms[_owner];\n    }\n\n    function getPatList() public view returns (address[] memory){\n        return patList;\n    }\n\n    function getPatron(address _owner) public view returns (Pseudonym memory){\n        return patrons[_owner];\n    }\n\n    function getDocHashes() public view returns (bytes[] memory){\n        return docHashes;\n    }\n\n    function getDocument(bytes memory _hash) public view returns(Document memory){\n        return docs[_hash];\n    }\n\n    function getInitialTokenGrant() public view returns (uint){\n        return initialTokenGrant;\n    }\n\n    function getDocumentUploadCost() public view returns (uint){\n        return documentUploadCost;\n    }\n}\n",
  "sourcePath": "/home/discord/PycharmProjects/sector-coop/solidity/contracts/SecTor.sol",
  "compiler": {
    "name": "solc",
    "version": "0.6.0+commit.26b70077.Emscripten.clang"
  },
  "schemaVersion": "3.3.3",
  "updatedAt": "2021-02-08T13:03:31.349Z",
  "devdoc": {
    "methods": {}
  },
  "userdoc": {
    "methods": {}
  }
}