{
  "contractName": "SecTor",
  "abi": [
    {
      "inputs": [],
      "stateMutability": "nonpayable",
      "type": "constructor"
    },
    {
      "inputs": [
        {
          "internalType": "address",
          "name": "_data",
          "type": "address"
        },
        {
          "internalType": "bytes",
          "name": "_signature",
          "type": "bytes"
        },
        {
          "internalType": "bytes",
          "name": "_exponent",
          "type": "bytes"
        },
        {
          "internalType": "bytes",
          "name": "_modulus",
          "type": "bytes"
        }
      ],
      "name": "verifyRSATest",
      "outputs": [
        {
          "internalType": "uint256",
          "name": "",
          "type": "uint256"
        }
      ],
      "stateMutability": "view",
      "type": "function"
    },
    {
      "inputs": [
        {
          "internalType": "address",
          "name": "a",
          "type": "address"
        }
      ],
      "name": "toBytes",
      "outputs": [
        {
          "internalType": "bytes",
          "name": "b",
          "type": "bytes"
        }
      ],
      "stateMutability": "pure",
      "type": "function"
    },
    {
      "inputs": [
        {
          "internalType": "address",
          "name": "_patron",
          "type": "address"
        },
        {
          "internalType": "bytes",
          "name": "_RSAPublicKeyExponent",
          "type": "bytes"
        },
        {
          "internalType": "bytes",
          "name": "_RSAPublicKeyModulus",
          "type": "bytes"
        }
      ],
      "name": "createPatron",
      "outputs": [
        {
          "components": [
            {
              "internalType": "address",
              "name": "owner",
              "type": "address"
            },
            {
              "internalType": "address",
              "name": "ca",
              "type": "address"
            },
            {
              "internalType": "bytes",
              "name": "patronRSAPubKeyExponent",
              "type": "bytes"
            },
            {
              "internalType": "bytes",
              "name": "patronRSAPubKeyModulus",
              "type": "bytes"
            },
            {
              "internalType": "bool",
              "name": "isValue",
              "type": "bool"
            }
          ],
          "internalType": "struct SecTor.Patron",
          "name": "",
          "type": "tuple"
        }
      ],
      "stateMutability": "nonpayable",
      "type": "function"
    },
    {
      "inputs": [
        {
          "internalType": "address",
          "name": "_patron",
          "type": "address"
        },
        {
          "internalType": "bytes",
          "name": "_patronBlindSignature",
          "type": "bytes"
        }
      ],
      "name": "addPseudonym",
      "outputs": [
        {
          "components": [
            {
              "internalType": "address",
              "name": "owner",
              "type": "address"
            },
            {
              "internalType": "address",
              "name": "patron",
              "type": "address"
            },
            {
              "internalType": "bytes",
              "name": "patronBlindSignature",
              "type": "bytes"
            },
            {
              "internalType": "uint256",
              "name": "tokens",
              "type": "uint256"
            },
            {
              "internalType": "bool",
              "name": "gotInitialTokens",
              "type": "bool"
            },
            {
              "internalType": "bytes",
              "name": "publicIdentity",
              "type": "bytes"
            },
            {
              "internalType": "bytes",
              "name": "publicIdentitySignature",
              "type": "bytes"
            },
            {
              "internalType": "bool",
              "name": "isValue",
              "type": "bool"
            }
          ],
          "internalType": "struct SecTor.Pseudonym",
          "name": "",
          "type": "tuple"
        }
      ],
      "stateMutability": "nonpayable",
      "type": "function"
    },
    {
      "inputs": [],
      "name": "grantInitialTokens",
      "outputs": [
        {
          "components": [
            {
              "internalType": "address",
              "name": "owner",
              "type": "address"
            },
            {
              "internalType": "address",
              "name": "patron",
              "type": "address"
            },
            {
              "internalType": "bytes",
              "name": "patronBlindSignature",
              "type": "bytes"
            },
            {
              "internalType": "uint256",
              "name": "tokens",
              "type": "uint256"
            },
            {
              "internalType": "bool",
              "name": "gotInitialTokens",
              "type": "bool"
            },
            {
              "internalType": "bytes",
              "name": "publicIdentity",
              "type": "bytes"
            },
            {
              "internalType": "bytes",
              "name": "publicIdentitySignature",
              "type": "bytes"
            },
            {
              "internalType": "bool",
              "name": "isValue",
              "type": "bool"
            }
          ],
          "internalType": "struct SecTor.Pseudonym",
          "name": "",
          "type": "tuple"
        }
      ],
      "stateMutability": "nonpayable",
      "type": "function"
    },
    {
      "inputs": [
        {
          "internalType": "bytes",
          "name": "_hash",
          "type": "bytes"
        }
      ],
      "name": "addDocumentHash",
      "outputs": [
        {
          "components": [
            {
              "internalType": "bytes",
              "name": "hash",
              "type": "bytes"
            },
            {
              "internalType": "address",
              "name": "author",
              "type": "address"
            },
            {
              "internalType": "bool",
              "name": "isValue",
              "type": "bool"
            }
          ],
          "internalType": "struct SecTor.Document",
          "name": "",
          "type": "tuple"
        }
      ],
      "stateMutability": "nonpayable",
      "type": "function"
    },
    {
      "inputs": [
        {
          "internalType": "bytes",
          "name": "_publicIdentity",
          "type": "bytes"
        },
        {
          "internalType": "bytes",
          "name": "_publicIdentitySignature",
          "type": "bytes"
        },
        {
          "internalType": "bytes",
          "name": "_exponent",
          "type": "bytes"
        },
        {
          "internalType": "bytes",
          "name": "_modulus",
          "type": "bytes"
        }
      ],
      "name": "proveAuthorship",
      "outputs": [
        {
          "components": [
            {
              "internalType": "address",
              "name": "owner",
              "type": "address"
            },
            {
              "internalType": "address",
              "name": "patron",
              "type": "address"
            },
            {
              "internalType": "bytes",
              "name": "patronBlindSignature",
              "type": "bytes"
            },
            {
              "internalType": "uint256",
              "name": "tokens",
              "type": "uint256"
            },
            {
              "internalType": "bool",
              "name": "gotInitialTokens",
              "type": "bool"
            },
            {
              "internalType": "bytes",
              "name": "publicIdentity",
              "type": "bytes"
            },
            {
              "internalType": "bytes",
              "name": "publicIdentitySignature",
              "type": "bytes"
            },
            {
              "internalType": "bool",
              "name": "isValue",
              "type": "bool"
            }
          ],
          "internalType": "struct SecTor.Pseudonym",
          "name": "",
          "type": "tuple"
        }
      ],
      "stateMutability": "nonpayable",
      "type": "function"
    },
    {
      "inputs": [],
      "name": "getCA",
      "outputs": [
        {
          "internalType": "address",
          "name": "",
          "type": "address"
        }
      ],
      "stateMutability": "view",
      "type": "function"
    },
    {
      "inputs": [],
      "name": "getPseudoList",
      "outputs": [
        {
          "internalType": "address[]",
          "name": "",
          "type": "address[]"
        }
      ],
      "stateMutability": "view",
      "type": "function"
    },
    {
      "inputs": [
        {
          "internalType": "address",
          "name": "_owner",
          "type": "address"
        }
      ],
      "name": "getPseudonym",
      "outputs": [
        {
          "components": [
            {
              "internalType": "address",
              "name": "owner",
              "type": "address"
            },
            {
              "internalType": "address",
              "name": "patron",
              "type": "address"
            },
            {
              "internalType": "bytes",
              "name": "patronBlindSignature",
              "type": "bytes"
            },
            {
              "internalType": "uint256",
              "name": "tokens",
              "type": "uint256"
            },
            {
              "internalType": "bool",
              "name": "gotInitialTokens",
              "type": "bool"
            },
            {
              "internalType": "bytes",
              "name": "publicIdentity",
              "type": "bytes"
            },
            {
              "internalType": "bytes",
              "name": "publicIdentitySignature",
              "type": "bytes"
            },
            {
              "internalType": "bool",
              "name": "isValue",
              "type": "bool"
            }
          ],
          "internalType": "struct SecTor.Pseudonym",
          "name": "",
          "type": "tuple"
        }
      ],
      "stateMutability": "view",
      "type": "function"
    },
    {
      "inputs": [],
      "name": "getPatList",
      "outputs": [
        {
          "internalType": "address[]",
          "name": "",
          "type": "address[]"
        }
      ],
      "stateMutability": "view",
      "type": "function"
    },
    {
      "inputs": [
        {
          "internalType": "address",
          "name": "_owner",
          "type": "address"
        }
      ],
      "name": "getPatron",
      "outputs": [
        {
          "components": [
            {
              "internalType": "address",
              "name": "owner",
              "type": "address"
            },
            {
              "internalType": "address",
              "name": "ca",
              "type": "address"
            },
            {
              "internalType": "bytes",
              "name": "patronRSAPubKeyExponent",
              "type": "bytes"
            },
            {
              "internalType": "bytes",
              "name": "patronRSAPubKeyModulus",
              "type": "bytes"
            },
            {
              "internalType": "bool",
              "name": "isValue",
              "type": "bool"
            }
          ],
          "internalType": "struct SecTor.Patron",
          "name": "",
          "type": "tuple"
        }
      ],
      "stateMutability": "view",
      "type": "function"
    },
    {
      "inputs": [],
      "name": "getDocHashes",
      "outputs": [
        {
          "internalType": "bytes[]",
          "name": "",
          "type": "bytes[]"
        }
      ],
      "stateMutability": "view",
      "type": "function"
    },
    {
      "inputs": [
        {
          "internalType": "bytes",
          "name": "_hash",
          "type": "bytes"
        }
      ],
      "name": "getDocument",
      "outputs": [
        {
          "components": [
            {
              "internalType": "bytes",
              "name": "hash",
              "type": "bytes"
            },
            {
              "internalType": "address",
              "name": "author",
              "type": "address"
            },
            {
              "internalType": "bool",
              "name": "isValue",
              "type": "bool"
            }
          ],
          "internalType": "struct SecTor.Document",
          "name": "",
          "type": "tuple"
        }
      ],
      "stateMutability": "view",
      "type": "function"
    },
    {
      "inputs": [],
      "name": "getInitialTokenGrant",
      "outputs": [
        {
          "internalType": "uint256",
          "name": "",
          "type": "uint256"
        }
      ],
      "stateMutability": "view",
      "type": "function"
    },
    {
      "inputs": [],
      "name": "getDocumentUploadCost",
      "outputs": [
        {
          "internalType": "uint256",
          "name": "",
          "type": "uint256"
        }
      ],
      "stateMutability": "view",
      "type": "function"
    }
  ],
  "bytecode": "0x6080604052737b5fb9a5535f2976cdc99c57d19111b2ed3cb9256000806101000a81548173ffffffffffffffffffffffffffffffffffffffff021916908373ffffffffffffffffffffffffffffffffffffffff160217905550600a600755600260085534801561006e57600080fd5b5061486f8061007e6000396000f3fe608060405234801561001057600080fd5b50600436106101005760003560e01c806378bd0af811610097578063e4897dd911610066578063e4897dd9146102fd578063f4a3764f1461031b578063f80a370f1461034b578063fd8cf8881461036957610100565b806378bd0af81461024f5780637aa408c01461027f57806380bc4aee146102af578063961f40ac146102cd57610100565b80632f3c3ad4116100d35780632f3c3ad4146101a15780633d70b1a4146101d1578063593b79fe146101ef5780636305988d1461021f57610100565b8063021dd34c14610105578063040ead311461012357806309385be61461014157806314547e1214610171575b600080fd5b61010d610387565b60405161011a919061444b565b60405180910390f35b61012b610415565b60405161013891906145b5565b60405180910390f35b61015b60048036036101569190810190613b2b565b610c8c565b6040516101689190614593565b60405180910390f35b61018b60048036036101869190810190613b2b565b610ef0565b60405161019891906145b5565b60405180910390f35b6101bb60048036036101b69190810190613cfb565b61121c565b6040516101c89190614571565b60405180910390f35b6101d96119c7565b6040516101e6919061444b565b60405180910390f35b61020960048036036102049190810190613b2b565b611a55565b604051610216919061448f565b60405180910390f35b61023960048036036102349190810190613b54565b611b17565b60405161024691906145b5565b60405180910390f35b61026960048036036102649190810190613d3c565b6122f0565b60405161027691906145b5565b60405180910390f35b61029960048036036102949190810190613cfb565b612b83565b6040516102a69190614571565b60405180910390f35b6102b7612cce565b6040516102c491906145d7565b60405180910390f35b6102e760048036036102e29190810190613c27565b612cd8565b6040516102f491906145d7565b60405180910390f35b610305612d0f565b604051610312919061446d565b60405180910390f35b61033560048036036103309190810190613ba8565b612df8565b6040516103429190614593565b60405180910390f35b6103536132dc565b60405161036091906145d7565b60405180910390f35b6103716132e6565b60405161037e9190614430565b60405180910390f35b6060600280548060200260200160405190810160405280929190818152602001828054801561040b57602002820191906000526020600020905b8160009054906101000a900473ffffffffffffffffffffffffffffffffffffffff1673ffffffffffffffffffffffffffffffffffffffff16815260200190600101908083116103c1575b5050505050905090565b61041d61385a565b61042561385a565b600160003373ffffffffffffffffffffffffffffffffffffffff1673ffffffffffffffffffffffffffffffffffffffff168152602001908152602001600020604051806101000160405290816000820160009054906101000a900473ffffffffffffffffffffffffffffffffffffffff1673ffffffffffffffffffffffffffffffffffffffff1673ffffffffffffffffffffffffffffffffffffffff1681526020016001820160009054906101000a900473ffffffffffffffffffffffffffffffffffffffff1673ffffffffffffffffffffffffffffffffffffffff1673ffffffffffffffffffffffffffffffffffffffff168152602001600282018054600181600116156101000203166002900480601f0160208091040260200160405190810160405280929190818152602001828054600181600116156101000203166002900480156105b55780601f1061058a576101008083540402835291602001916105b5565b820191906000526020600020905b81548152906001019060200180831161059857829003601f168201915b50505050508152602001600382015481526020016004820160009054906101000a900460ff16151515158152602001600582018054600181600116156101000203166002900480601f01602080910402602001604051908101604052809291908181526020018280546001816001161561010002031660029004801561067c5780601f106106515761010080835404028352916020019161067c565b820191906000526020600020905b81548152906001019060200180831161065f57829003601f168201915b50505050508152602001600682018054600181600116156101000203166002900480601f01602080910402602001604051908101604052809291908181526020018280546001816001161561010002031660029004801561071e5780601f106106f35761010080835404028352916020019161071e565b820191906000526020600020905b81548152906001019060200180831161070157829003601f168201915b505050505081526020016007820160009054906101000a900460ff1615151515815250509050600115158160e0015115151461078f576040517f08c379a0000000000000000000000000000000000000000000000000000000008152600401610786906144d1565b60405180910390fd5b6001151581608001511515146107da576040517f08c379a00000000000000000000000000000000000000000000000000000000081526004016107d1906144f1565b60405180910390fd5b600754816060018181525050600181608001901515908115158152505080600160003373ffffffffffffffffffffffffffffffffffffffff1673ffffffffffffffffffffffffffffffffffffffff16815260200190815260200160002060008201518160000160006101000a81548173ffffffffffffffffffffffffffffffffffffffff021916908373ffffffffffffffffffffffffffffffffffffffff16021790555060208201518160010160006101000a81548173ffffffffffffffffffffffffffffffffffffffff021916908373ffffffffffffffffffffffffffffffffffffffff16021790555060408201518160020190805190602001906108e19291906138cf565b506060820151816003015560808201518160040160006101000a81548160ff02191690831515021790555060a08201518160050190805190602001906109289291906138cf565b5060c08201518160060190805190602001906109459291906138cf565b5060e08201518160070160006101000a81548160ff021916908315150217905550905050600160003373ffffffffffffffffffffffffffffffffffffffff1673ffffffffffffffffffffffffffffffffffffffff168152602001908152602001600020604051806101000160405290816000820160009054906101000a900473ffffffffffffffffffffffffffffffffffffffff1673ffffffffffffffffffffffffffffffffffffffff1673ffffffffffffffffffffffffffffffffffffffff1681526020016001820160009054906101000a900473ffffffffffffffffffffffffffffffffffffffff1673ffffffffffffffffffffffffffffffffffffffff1673ffffffffffffffffffffffffffffffffffffffff168152602001600282018054600181600116156101000203166002900480601f016020809104026020016040519081016040528092919081815260200182805460018160011615610100020316600290048015610af95780601f10610ace57610100808354040283529160200191610af9565b820191906000526020600020905b815481529060010190602001808311610adc57829003601f168201915b50505050508152602001600382015481526020016004820160009054906101000a900460ff16151515158152602001600582018054600181600116156101000203166002900480601f016020809104026020016040519081016040528092919081815260200182805460018160011615610100020316600290048015610bc05780601f10610b9557610100808354040283529160200191610bc0565b820191906000526020600020905b815481529060010190602001808311610ba357829003601f168201915b50505050508152602001600682018054600181600116156101000203166002900480601f016020809104026020016040519081016040528092919081815260200182805460018160011615610100020316600290048015610c625780601f10610c3757610100808354040283529160200191610c62565b820191906000526020600020905b815481529060010190602001808311610c4557829003601f168201915b505050505081526020016007820160009054906101000a900460ff16151515158152505091505090565b610c9461394f565b600360008373ffffffffffffffffffffffffffffffffffffffff1673ffffffffffffffffffffffffffffffffffffffff1681526020019081526020016000206040518060a00160405290816000820160009054906101000a900473ffffffffffffffffffffffffffffffffffffffff1673ffffffffffffffffffffffffffffffffffffffff1673ffffffffffffffffffffffffffffffffffffffff1681526020016001820160009054906101000a900473ffffffffffffffffffffffffffffffffffffffff1673ffffffffffffffffffffffffffffffffffffffff1673ffffffffffffffffffffffffffffffffffffffff168152602001600282018054600181600116156101000203166002900480601f016020809104026020016040519081016040528092919081815260200182805460018160011615610100020316600290048015610e235780601f10610df857610100808354040283529160200191610e23565b820191906000526020600020905b815481529060010190602001808311610e0657829003601f168201915b50505050508152602001600382018054600181600116156101000203166002900480601f016020809104026020016040519081016040528092919081815260200182805460018160011615610100020316600290048015610ec55780601f10610e9a57610100808354040283529160200191610ec5565b820191906000526020600020905b815481529060010190602001808311610ea857829003601f168201915b505050505081526020016004820160009054906101000a900460ff1615151515815250509050919050565b610ef861385a565b600160008373ffffffffffffffffffffffffffffffffffffffff1673ffffffffffffffffffffffffffffffffffffffff168152602001908152602001600020604051806101000160405290816000820160009054906101000a900473ffffffffffffffffffffffffffffffffffffffff1673ffffffffffffffffffffffffffffffffffffffff1673ffffffffffffffffffffffffffffffffffffffff1681526020016001820160009054906101000a900473ffffffffffffffffffffffffffffffffffffffff1673ffffffffffffffffffffffffffffffffffffffff1673ffffffffffffffffffffffffffffffffffffffff168152602001600282018054600181600116156101000203166002900480601f0160208091040260200160405190810160405280929190818152602001828054600181600116156101000203166002900480156110885780601f1061105d57610100808354040283529160200191611088565b820191906000526020600020905b81548152906001019060200180831161106b57829003601f168201915b50505050508152602001600382015481526020016004820160009054906101000a900460ff16151515158152602001600582018054600181600116156101000203166002900480601f01602080910402602001604051908101604052809291908181526020018280546001816001161561010002031660029004801561114f5780601f106111245761010080835404028352916020019161114f565b820191906000526020600020905b81548152906001019060200180831161113257829003601f168201915b50505050508152602001600682018054600181600116156101000203166002900480601f0160208091040260200160405190810160405280929190818152602001828054600181600116156101000203166002900480156111f15780601f106111c6576101008083540402835291602001916111f1565b820191906000526020600020905b8154815290600101906020018083116111d457829003601f168201915b505050505081526020016007820160009054906101000a900460ff1615151515815250509050919050565b6112246139ac565b61122c61385a565b600160003373ffffffffffffffffffffffffffffffffffffffff1673ffffffffffffffffffffffffffffffffffffffff168152602001908152602001600020604051806101000160405290816000820160009054906101000a900473ffffffffffffffffffffffffffffffffffffffff1673ffffffffffffffffffffffffffffffffffffffff1673ffffffffffffffffffffffffffffffffffffffff1681526020016001820160009054906101000a900473ffffffffffffffffffffffffffffffffffffffff1673ffffffffffffffffffffffffffffffffffffffff1673ffffffffffffffffffffffffffffffffffffffff168152602001600282018054600181600116156101000203166002900480601f0160208091040260200160405190810160405280929190818152602001828054600181600116156101000203166002900480156113bc5780601f10611391576101008083540402835291602001916113bc565b820191906000526020600020905b81548152906001019060200180831161139f57829003601f168201915b50505050508152602001600382015481526020016004820160009054906101000a900460ff16151515158152602001600582018054600181600116156101000203166002900480601f0160208091040260200160405190810160405280929190818152602001828054600181600116156101000203166002900480156114835780601f1061145857610100808354040283529160200191611483565b820191906000526020600020905b81548152906001019060200180831161146657829003601f168201915b50505050508152602001600682018054600181600116156101000203166002900480601f0160208091040260200160405190810160405280929190818152602001828054600181600116156101000203166002900480156115255780601f106114fa57610100808354040283529160200191611525565b820191906000526020600020905b81548152906001019060200180831161150857829003601f168201915b505050505081526020016007820160009054906101000a900460ff1615151515815250509050600115158160e00151151514611596576040517f08c379a000000000000000000000000000000000000000000000000000000000815260040161158d906144d1565b60405180910390fd5b6008548160600151106115de576040517f08c379a00000000000000000000000000000000000000000000000000000000081526004016115d590614531565b60405180910390fd5b6008548160600151038160600181815250506115f86139ac565b60405180606001604052808581526020013373ffffffffffffffffffffffffffffffffffffffff1681526020016001151581525090508060058560405161163f9190614419565b908152602001604051809103902060008201518160000190805190602001906116699291906138cf565b5060208201518160010160006101000a81548173ffffffffffffffffffffffffffffffffffffffff021916908373ffffffffffffffffffffffffffffffffffffffff16021790555060408201518160010160146101000a81548160ff02191690831515021790555090505081600160003373ffffffffffffffffffffffffffffffffffffffff1673ffffffffffffffffffffffffffffffffffffffff16815260200190815260200160002060008201518160000160006101000a81548173ffffffffffffffffffffffffffffffffffffffff021916908373ffffffffffffffffffffffffffffffffffffffff16021790555060208201518160010160006101000a81548173ffffffffffffffffffffffffffffffffffffffff021916908373ffffffffffffffffffffffffffffffffffffffff16021790555060408201518160020190805190602001906117be9291906138cf565b506060820151816003015560808201518160040160006101000a81548160ff02191690831515021790555060a08201518160050190805190602001906118059291906138cf565b5060c08201518160060190805190602001906118229291906138cf565b5060e08201518160070160006101000a81548160ff0219169083151502179055509050506006849080600181540180825580915050600190039060005260206000200160009091909190915090805190602001906118819291906139e5565b506005846040516118929190614419565b9081526020016040518091039020604051806060016040529081600082018054600181600116156101000203166002900480601f0160208091040260200160405190810160405280929190818152602001828054600181600116156101000203166002900480156119445780601f1061191957610100808354040283529160200191611944565b820191906000526020600020905b81548152906001019060200180831161192757829003601f168201915b505050505081526020016001820160009054906101000a900473ffffffffffffffffffffffffffffffffffffffff1673ffffffffffffffffffffffffffffffffffffffff1673ffffffffffffffffffffffffffffffffffffffff1681526020016001820160149054906101000a900460ff16151515158152505092505050919050565b60606004805480602002602001604051908101604052809291908181526020018280548015611a4b57602002820191906000526020600020905b8160009054906101000a900473ffffffffffffffffffffffffffffffffffffffff1673ffffffffffffffffffffffffffffffffffffffff1681526020019060010190808311611a01575b5050505050905090565b606060146040519080825280601f01601f191660200182016040528015611a8b5781602001600182028038833980820191505090505b50905060008090505b6014811015611b11578060130360080260020a8373ffffffffffffffffffffffffffffffffffffffff1681611ac557fe5b0460f81b828281518110611ad557fe5b60200101907effffffffffffffffffffffffffffffffffffffffffffffffffffffffffffff1916908160001a9053508080600101915050611a94565b50919050565b611b1f61385a565b6000600360008573ffffffffffffffffffffffffffffffffffffffff1673ffffffffffffffffffffffffffffffffffffffff1681526020019081526020016000209050600115158160040160009054906101000a900460ff16151514611bba576040517f08c379a0000000000000000000000000000000000000000000000000000000008152600401611bb190614551565b60405180910390fd5b6000611d1f33604051602001611bd091906143fe565b60405160208183030381529060405285846002018054600181600116156101000203166002900480601f016020809104026020016040519081016040528092919081815260200182805460018160011615610100020316600290048015611c785780601f10611c4d57610100808354040283529160200191611c78565b820191906000526020600020905b815481529060010190602001808311611c5b57829003601f168201915b5050505050856003018054600181600116156101000203166002900480601f016020809104026020016040519081016040528092919081815260200182805460018160011615610100020316600290048015611d155780601f10611cea57610100808354040283529160200191611d15565b820191906000526020600020905b815481529060010190602001808311611cf857829003601f168201915b505050505061330f565b14611d5f576040517f08c379a0000000000000000000000000000000000000000000000000000000008152600401611d5690614511565b60405180910390fd5b611d6761385a565b6040518061010001604052803373ffffffffffffffffffffffffffffffffffffffff1681526020018673ffffffffffffffffffffffffffffffffffffffff1681526020018581526020016000815260200160001515815260200160405180602001604052806000815250815260200160405180602001604052806000815250815260200160011515815250905080600160003373ffffffffffffffffffffffffffffffffffffffff1673ffffffffffffffffffffffffffffffffffffffff16815260200190815260200160002060008201518160000160006101000a81548173ffffffffffffffffffffffffffffffffffffffff021916908373ffffffffffffffffffffffffffffffffffffffff16021790555060208201518160010160006101000a81548173ffffffffffffffffffffffffffffffffffffffff021916908373ffffffffffffffffffffffffffffffffffffffff1602179055506040820151816002019080519060200190611ede9291906138cf565b506060820151816003015560808201518160040160006101000a81548160ff02191690831515021790555060a0820151816005019080519060200190611f259291906138cf565b5060c0820151816006019080519060200190611f429291906138cf565b5060e08201518160070160006101000a81548160ff0219169083151502179055509050506002339080600181540180825580915050600190039060005260206000200160009091909190916101000a81548173ffffffffffffffffffffffffffffffffffffffff021916908373ffffffffffffffffffffffffffffffffffffffff160217905550600160003373ffffffffffffffffffffffffffffffffffffffff1673ffffffffffffffffffffffffffffffffffffffff168152602001908152602001600020604051806101000160405290816000820160009054906101000a900473ffffffffffffffffffffffffffffffffffffffff1673ffffffffffffffffffffffffffffffffffffffff1673ffffffffffffffffffffffffffffffffffffffff1681526020016001820160009054906101000a900473ffffffffffffffffffffffffffffffffffffffff1673ffffffffffffffffffffffffffffffffffffffff1673ffffffffffffffffffffffffffffffffffffffff168152602001600282018054600181600116156101000203166002900480601f0160208091040260200160405190810160405280929190818152602001828054600181600116156101000203166002900480156121595780601f1061212e57610100808354040283529160200191612159565b820191906000526020600020905b81548152906001019060200180831161213c57829003601f168201915b50505050508152602001600382015481526020016004820160009054906101000a900460ff16151515158152602001600582018054600181600116156101000203166002900480601f0160208091040260200160405190810160405280929190818152602001828054600181600116156101000203166002900480156122205780601f106121f557610100808354040283529160200191612220565b820191906000526020600020905b81548152906001019060200180831161220357829003601f168201915b50505050508152602001600682018054600181600116156101000203166002900480601f0160208091040260200160405190810160405280929190818152602001828054600181600116156101000203166002900480156122c25780601f10612297576101008083540402835291602001916122c2565b820191906000526020600020905b8154815290600101906020018083116122a557829003601f168201915b505050505081526020016007820160009054906101000a900460ff1615151515815250509250505092915050565b6122f861385a565b61230061385a565b600160003373ffffffffffffffffffffffffffffffffffffffff1673ffffffffffffffffffffffffffffffffffffffff168152602001908152602001600020604051806101000160405290816000820160009054906101000a900473ffffffffffffffffffffffffffffffffffffffff1673ffffffffffffffffffffffffffffffffffffffff1673ffffffffffffffffffffffffffffffffffffffff1681526020016001820160009054906101000a900473ffffffffffffffffffffffffffffffffffffffff1673ffffffffffffffffffffffffffffffffffffffff1673ffffffffffffffffffffffffffffffffffffffff168152602001600282018054600181600116156101000203166002900480601f0160208091040260200160405190810160405280929190818152602001828054600181600116156101000203166002900480156124905780601f1061246557610100808354040283529160200191612490565b820191906000526020600020905b81548152906001019060200180831161247357829003601f168201915b50505050508152602001600382015481526020016004820160009054906101000a900460ff16151515158152602001600582018054600181600116156101000203166002900480601f0160208091040260200160405190810160405280929190818152602001828054600181600116156101000203166002900480156125575780601f1061252c57610100808354040283529160200191612557565b820191906000526020600020905b81548152906001019060200180831161253a57829003601f168201915b50505050508152602001600682018054600181600116156101000203166002900480601f0160208091040260200160405190810160405280929190818152602001828054600181600116156101000203166002900480156125f95780601f106125ce576101008083540402835291602001916125f9565b820191906000526020600020905b8154815290600101906020018083116125dc57829003601f168201915b505050505081526020016007820160009054906101000a900460ff1615151515815250509050600115158160e0015115151461266a576040517f08c379a0000000000000000000000000000000000000000000000000000000008152600401612661906144d1565b60405180910390fd5b60006126973360405160200161268091906143fe565b60405160208183030381529060405287878761330f565b146126d7576040517f08c379a00000000000000000000000000000000000000000000000000000000081526004016126ce90614511565b60405180910390fd5b858160a00181905250848160c0018190525080600160003373ffffffffffffffffffffffffffffffffffffffff1673ffffffffffffffffffffffffffffffffffffffff16815260200190815260200160002060008201518160000160006101000a81548173ffffffffffffffffffffffffffffffffffffffff021916908373ffffffffffffffffffffffffffffffffffffffff16021790555060208201518160010160006101000a81548173ffffffffffffffffffffffffffffffffffffffff021916908373ffffffffffffffffffffffffffffffffffffffff16021790555060408201518160020190805190602001906127d39291906138cf565b506060820151816003015560808201518160040160006101000a81548160ff02191690831515021790555060a082015181600501908051906020019061281a9291906138cf565b5060c08201518160060190805190602001906128379291906138cf565b5060e08201518160070160006101000a81548160ff021916908315150217905550905050600160003373ffffffffffffffffffffffffffffffffffffffff1673ffffffffffffffffffffffffffffffffffffffff168152602001908152602001600020604051806101000160405290816000820160009054906101000a900473ffffffffffffffffffffffffffffffffffffffff1673ffffffffffffffffffffffffffffffffffffffff1673ffffffffffffffffffffffffffffffffffffffff1681526020016001820160009054906101000a900473ffffffffffffffffffffffffffffffffffffffff1673ffffffffffffffffffffffffffffffffffffffff1673ffffffffffffffffffffffffffffffffffffffff168152602001600282018054600181600116156101000203166002900480601f0160208091040260200160405190810160405280929190818152602001828054600181600116156101000203166002900480156129eb5780601f106129c0576101008083540402835291602001916129eb565b820191906000526020600020905b8154815290600101906020018083116129ce57829003601f168201915b50505050508152602001600382015481526020016004820160009054906101000a900460ff16151515158152602001600582018054600181600116156101000203166002900480601f016020809104026020016040519081016040528092919081815260200182805460018160011615610100020316600290048015612ab25780601f10612a8757610100808354040283529160200191612ab2565b820191906000526020600020905b815481529060010190602001808311612a9557829003601f168201915b50505050508152602001600682018054600181600116156101000203166002900480601f016020809104026020016040519081016040528092919081815260200182805460018160011615610100020316600290048015612b545780601f10612b2957610100808354040283529160200191612b54565b820191906000526020600020905b815481529060010190602001808311612b3757829003601f168201915b505050505081526020016007820160009054906101000a900460ff161515151581525050915050949350505050565b612b8b6139ac565b600582604051612b9b9190614419565b9081526020016040518091039020604051806060016040529081600082018054600181600116156101000203166002900480601f016020809104026020016040519081016040528092919081815260200182805460018160011615610100020316600290048015612c4d5780601f10612c2257610100808354040283529160200191612c4d565b820191906000526020600020905b815481529060010190602001808311612c3057829003601f168201915b505050505081526020016001820160009054906101000a900473ffffffffffffffffffffffffffffffffffffffff1673ffffffffffffffffffffffffffffffffffffffff1673ffffffffffffffffffffffffffffffffffffffff1681526020016001820160149054906101000a900460ff1615151515815250509050919050565b6000600854905090565b6000612d0585604051602001612cee91906143e3565b60405160208183030381529060405285858561330f565b9050949350505050565b60606006805480602002602001604051908101604052809291908181526020016000905b82821015612def578382906000526020600020018054600181600116156101000203166002900480601f016020809104026020016040519081016040528092919081815260200182805460018160011615610100020316600290048015612ddb5780601f10612db057610100808354040283529160200191612ddb565b820191906000526020600020905b815481529060010190602001808311612dbe57829003601f168201915b505050505081526020019060010190612d33565b50505050905090565b612e0061394f565b6000809054906101000a900473ffffffffffffffffffffffffffffffffffffffff1673ffffffffffffffffffffffffffffffffffffffff163373ffffffffffffffffffffffffffffffffffffffff1614612e8f576040517f08c379a0000000000000000000000000000000000000000000000000000000008152600401612e86906144b1565b60405180910390fd5b612e9761394f565b6040518060a001604052808673ffffffffffffffffffffffffffffffffffffffff1681526020013373ffffffffffffffffffffffffffffffffffffffff16815260200185815260200184815260200160011515815250905080600360008773ffffffffffffffffffffffffffffffffffffffff1673ffffffffffffffffffffffffffffffffffffffff16815260200190815260200160002060008201518160000160006101000a81548173ffffffffffffffffffffffffffffffffffffffff021916908373ffffffffffffffffffffffffffffffffffffffff16021790555060208201518160010160006101000a81548173ffffffffffffffffffffffffffffffffffffffff021916908373ffffffffffffffffffffffffffffffffffffffff1602179055506040820151816002019080519060200190612fd99291906138cf565b506060820151816003019080519060200190612ff69291906138cf565b5060808201518160040160006101000a81548160ff0219169083151502179055509050506004859080600181540180825580915050600190039060005260206000200160009091909190916101000a81548173ffffffffffffffffffffffffffffffffffffffff021916908373ffffffffffffffffffffffffffffffffffffffff160217905550600360008673ffffffffffffffffffffffffffffffffffffffff1673ffffffffffffffffffffffffffffffffffffffff1681526020019081526020016000206040518060a00160405290816000820160009054906101000a900473ffffffffffffffffffffffffffffffffffffffff1673ffffffffffffffffffffffffffffffffffffffff1673ffffffffffffffffffffffffffffffffffffffff1681526020016001820160009054906101000a900473ffffffffffffffffffffffffffffffffffffffff1673ffffffffffffffffffffffffffffffffffffffff1673ffffffffffffffffffffffffffffffffffffffff168152602001600282018054600181600116156101000203166002900480601f01602080910402602001604051908101604052809291908181526020018280546001816001161561010002031660029004801561320c5780601f106131e15761010080835404028352916020019161320c565b820191906000526020600020905b8154815290600101906020018083116131ef57829003601f168201915b50505050508152602001600382018054600181600116156101000203166002900480601f0160208091040260200160405190810160405280929190818152602001828054600181600116156101000203166002900480156132ae5780601f10613283576101008083540402835291602001916132ae565b820191906000526020600020905b81548152906001019060200180831161329157829003601f168201915b505050505081526020016004820160009054906101000a900460ff1615151515815250509150509392505050565b6000600754905090565b60008060009054906101000a900473ffffffffffffffffffffffffffffffffffffffff16905090565b600061336c6002866040516133249190614419565b602060405180830381855afa158015613341573d6000803e3d6000fd5b5050506040513d601f19601f820116820180604052506133649190810190613cd2565b858585613376565b9050949350505050565b6000613380613a65565b604051806102600160405280603060ff168152602001603160ff168152602001603060ff168152602001600d60ff168152602001600660ff168152602001600960ff168152602001606060ff168152602001608660ff168152602001604860ff168152602001600160ff168152602001606560ff168152602001600360ff168152602001600460ff168152602001600260ff168152602001600160ff168152602001600560ff168152602001600060ff168152602001600460ff168152602001602060ff168152509050600b602060ff16601301018351101561346257600080fd5b6000606061347187878761373d565b90506000815190506000865190506060816040519080825280601f01601f1916602001820160405280156134b45781602001600182028038833980820191505090505b5090508160208201846020870160056107d05a03fa506000602060136003850303039050600060f81b826000815181106134ea57fe5b602001015160f81c60f81b7effffffffffffffffffffffffffffffffffffffffffffffffffffffffffffff1916141580613542575060018260018151811061352e57fe5b602001015160f81c60f81b60f81c60ff1614155b15613557576001975050505050505050613735565b600295505b806002018610156135c75760ff60f81b82878151811061357857fe5b602001015160f81c60f81b7effffffffffffffffffffffffffffffffffffffffffffffffffffffffffffff1916146135ba576002975050505050505050613735565b858060010196505061355c565b600060f81b8282600201815181106135db57fe5b602001015160f81c60f81b7effffffffffffffffffffffffffffffffffffffffffffffffffffffffffffff19161461361d576003975050505050505050613735565b600095505b60138610156136835786866013811061363757fe5b602002015160ff16828783600301018151811061365057fe5b602001015160f81c60f81b60f81c60ff1614613676576004975050505050505050613735565b8580600101965050613622565b600095505b602060ff16861015613729578b86602081106136a057fe5b1a60f81b7effffffffffffffffffffffffffffffffffffffffffffffffffffffffffffff191682876013846003010101815181106136da57fe5b602001015160f81c60f81b7effffffffffffffffffffffffffffffffffffffffffffffffffffffffffffff19161461371c576005975050505050505050613735565b8580600101965050613688565b60009750505050505050505b949350505050565b60606000825184518651606001010190506000855190506000855190506000855190506000806000806060886040519080825280601f01601f19166020018201604052801561379b5781602001600182028038833980820191505090505b50905060208d01945060208c01935060208b0192508760208201528660408201528560608201526020810191506137d760608301868f51613811565b6137e98d516060840101858e51613811565b6137fe8c518e51606085010101848d51613811565b8099505050505050505050509392505050565b5b602081106138355781518352602083019250602082019150602081039050613812565b60006001826020036101000a0390508019835116818551168181178652505050505050565b604051806101000160405280600073ffffffffffffffffffffffffffffffffffffffff168152602001600073ffffffffffffffffffffffffffffffffffffffff168152602001606081526020016000815260200160001515815260200160608152602001606081526020016000151581525090565b828054600181600116156101000203166002900490600052602060002090601f016020900481019282601f1061391057805160ff191683800117855561393e565b8280016001018555821561393e579182015b8281111561393d578251825591602001919060010190613922565b5b50905061394b9190613a88565b5090565b6040518060a00160405280600073ffffffffffffffffffffffffffffffffffffffff168152602001600073ffffffffffffffffffffffffffffffffffffffff16815260200160608152602001606081526020016000151581525090565b604051806060016040528060608152602001600073ffffffffffffffffffffffffffffffffffffffff1681526020016000151581525090565b828054600181600116156101000203166002900490600052602060002090601f016020900481019282601f10613a2657805160ff1916838001178555613a54565b82800160010185558215613a54579182015b82811115613a53578251825591602001919060010190613a38565b5b509050613a619190613a88565b5090565b604051806102600160405280601390602082028038833980820191505090505090565b613aaa91905b80821115613aa6576000816000905550600101613a8e565b5090565b90565b600081359050613abc8161480b565b92915050565b600081519050613ad181614822565b92915050565b600082601f830112613ae857600080fd5b8135613afb613af68261461f565b6145f2565b91508082526020830160208301858383011115613b1757600080fd5b613b22838284614775565b50505092915050565b600060208284031215613b3d57600080fd5b6000613b4b84828501613aad565b91505092915050565b60008060408385031215613b6757600080fd5b6000613b7585828601613aad565b925050602083013567ffffffffffffffff811115613b9257600080fd5b613b9e85828601613ad7565b9150509250929050565b600080600060608486031215613bbd57600080fd5b6000613bcb86828701613aad565b935050602084013567ffffffffffffffff811115613be857600080fd5b613bf486828701613ad7565b925050604084013567ffffffffffffffff811115613c1157600080fd5b613c1d86828701613ad7565b9150509250925092565b60008060008060808587031215613c3d57600080fd5b6000613c4b87828801613aad565b945050602085013567ffffffffffffffff811115613c6857600080fd5b613c7487828801613ad7565b935050604085013567ffffffffffffffff811115613c9157600080fd5b613c9d87828801613ad7565b925050606085013567ffffffffffffffff811115613cba57600080fd5b613cc687828801613ad7565b91505092959194509250565b600060208284031215613ce457600080fd5b6000613cf284828501613ac2565b91505092915050565b600060208284031215613d0d57600080fd5b600082013567ffffffffffffffff811115613d2757600080fd5b613d3384828501613ad7565b91505092915050565b60008060008060808587031215613d5257600080fd5b600085013567ffffffffffffffff811115613d6c57600080fd5b613d7887828801613ad7565b945050602085013567ffffffffffffffff811115613d9557600080fd5b613da187828801613ad7565b935050604085013567ffffffffffffffff811115613dbe57600080fd5b613dca87828801613ad7565b925050606085013567ffffffffffffffff811115613de757600080fd5b613df387828801613ad7565b91505092959194509250565b6000613e0b8383613e42565b60208301905092915050565b6000613e238383613fc3565b905092915050565b613e3c613e3782614723565b6147c9565b82525050565b613e4b81614711565b82525050565b613e5a81614711565b82525050565b613e71613e6c82614711565b6147b7565b82525050565b6000613e828261466b565b613e8c81856146b1565b9350613e978361464b565b8060005b83811015613ec8578151613eaf8882613dff565b9750613eba83614697565b925050600181019050613e9b565b5085935050505092915050565b6000613ee082614676565b613eea81856146c2565b935083602082028501613efc8561465b565b8060005b85811015613f385784840389528151613f198582613e17565b9450613f24836146a4565b925060208a01995050600181019050613f00565b50829750879550505050505092915050565b613f5381614735565b82525050565b6000613f648261468c565b613f6e81856146e4565b9350613f7e818560208601614784565b613f87816147ed565b840191505092915050565b6000613f9d8261468c565b613fa781856146f5565b9350613fb7818560208601614784565b80840191505092915050565b6000613fce82614681565b613fd881856146d3565b9350613fe8818560208601614784565b613ff1816147ed565b840191505092915050565b6000614009603583614700565b91507f546869732066756e6374696f6e206973207265737472696374656420746f207460008301527f68652063656e7472616c20617574686f726974792e00000000000000000000006020830152604082019050919050565b600061406f601a83614700565b91507f53656e646572206973206e6f7420612070736575646f6e796d2e0000000000006000830152602082019050919050565b60006140af602f83614700565b91507f546869732070736575646f6e796d20616c72656164792072656365697665642060008301527f696e697469616c20746f6b656e732e00000000000000000000000000000000006020830152604082019050919050565b6000614115602883614700565b91507f5369676e617475726520646f6573206e6f74206d617463682073656e6465722060008301527f616464726573732e0000000000000000000000000000000000000000000000006020830152604082019050919050565b600061417b604283614700565b91507f546869732070736575646f6e796d20646f6573206e6f74206861766520656e6f60008301527f75676820746f6b656e7320746f20706179207468652075706c6f616420636f7360208301527f742e0000000000000000000000000000000000000000000000000000000000006040830152606082019050919050565b6000614207601f83614700565b91507f476976656e2061646472657373206d757374206265206120706174726f6e2e006000830152602082019050919050565b600060608301600083015184820360008601526142578282613fc3565b915050602083015161426c6020860182613e42565b50604083015161427f6040860182613f4a565b508091505092915050565b600060a0830160008301516142a26000860182613e42565b5060208301516142b56020860182613e42565b50604083015184820360408601526142cd8282613fc3565b915050606083015184820360608601526142e78282613fc3565b91505060808301516142fc6080860182613f4a565b508091505092915050565b6000610100830160008301516143206000860182613e42565b5060208301516143336020860182613e42565b506040830151848203604086015261434b8282613fc3565b915050606083015161436060608601826143c5565b5060808301516143736080860182613f4a565b5060a083015184820360a086015261438b8282613fc3565b91505060c083015184820360c08601526143a58282613fc3565b91505060e08301516143ba60e0860182613f4a565b508091505092915050565b6143ce8161476b565b82525050565b6143dd8161476b565b82525050565b60006143ef8284613e60565b60148201915081905092915050565b600061440a8284613e2b565b60148201915081905092915050565b60006144258284613f92565b915081905092915050565b60006020820190506144456000830184613e51565b92915050565b600060208201905081810360008301526144658184613e77565b905092915050565b600060208201905081810360008301526144878184613ed5565b905092915050565b600060208201905081810360008301526144a98184613f59565b905092915050565b600060208201905081810360008301526144ca81613ffc565b9050919050565b600060208201905081810360008301526144ea81614062565b9050919050565b6000602082019050818103600083015261450a816140a2565b9050919050565b6000602082019050818103600083015261452a81614108565b9050919050565b6000602082019050818103600083015261454a8161416e565b9050919050565b6000602082019050818103600083015261456a816141fa565b9050919050565b6000602082019050818103600083015261458b818461423a565b905092915050565b600060208201905081810360008301526145ad818461428a565b905092915050565b600060208201905081810360008301526145cf8184614307565b905092915050565b60006020820190506145ec60008301846143d4565b92915050565b6000604051905081810181811067ffffffffffffffff8211171561461557600080fd5b8060405250919050565b600067ffffffffffffffff82111561463657600080fd5b601f19601f8301169050602081019050919050565b6000819050602082019050919050565b6000819050602082019050919050565b600081519050919050565b600081519050919050565b600081519050919050565b600081519050919050565b6000602082019050919050565b6000602082019050919050565b600082825260208201905092915050565b600082825260208201905092915050565b600082825260208201905092915050565b600082825260208201905092915050565b600081905092915050565b600082825260208201905092915050565b600061471c8261474b565b9050919050565b600061472e8261474b565b9050919050565b60008115159050919050565b6000819050919050565b600073ffffffffffffffffffffffffffffffffffffffff82169050919050565b6000819050919050565b82818337600083830152505050565b60005b838110156147a2578082015181840152602081019050614787565b838111156147b1576000848401525b50505050565b60006147c2826147db565b9050919050565b60006147d4826147db565b9050919050565b60006147e6826147fe565b9050919050565b6000601f19601f8301169050919050565b60008160601b9050919050565b61481481614711565b811461481f57600080fd5b50565b61482b81614741565b811461483657600080fd5b5056fea26469706673582212204ab96a6435077541e31ab9fefb2f23553a05ea94bbe5ee9f08865605bc91f40664736f6c63430006000033",
  "source": "pragma solidity ^0.6.0;\npragma experimental ABIEncoderV2;\n\n//import {SolRsaVerify} from './SolRsaVerify.sol';\n\nlibrary SolRsaVerify {\n\n    function memcpy(uint _dest, uint _src, uint _len) pure internal {\n        // Copy word-length chunks while possible\n        for ( ;_len >= 32; _len -= 32) {\n            assembly {\n                mstore(_dest, mload(_src))\n            }\n            _dest += 32;\n            _src += 32;\n        }\n\n        // Copy remaining bytes\n        uint mask = 256 ** (32 - _len) - 1;\n        assembly {\n            let srcpart := and(mload(_src), not(mask))\n            let destpart := and(mload(_dest), mask)\n            mstore(_dest, or(destpart, srcpart))\n        }\n    }\n\n\n    function join(\n\tbytes memory _s, bytes memory _e, bytes memory _m\n    ) pure internal returns (bytes memory) {\n        uint inputLen = 0x60+_s.length+_e.length+_m.length;\n\n        uint slen = _s.length;\n        uint elen = _e.length;\n        uint mlen = _m.length;\n        uint sptr;\n        uint eptr;\n        uint mptr;\n        uint inputPtr;\n\n        bytes memory input = new bytes(inputLen);\n        assembly {\n            sptr := add(_s,0x20)\n            eptr := add(_e,0x20)\n            mptr := add(_m,0x20)\n            mstore(add(input,0x20),slen)\n            mstore(add(input,0x40),elen)\n            mstore(add(input,0x60),mlen)\n            inputPtr := add(input,0x20)\n        }\n        memcpy(inputPtr+0x60,sptr,_s.length);\n        memcpy(inputPtr+0x60+_s.length,eptr,_e.length);\n        memcpy(inputPtr+0x60+_s.length+_e.length,mptr,_m.length);\n\n        return input;\n    }\n\n    /** @dev Verifies a PKCSv1.5 SHA256 signature\n      * @param _sha256 is the sha256 of the data\n      * @param _s is the signature\n      * @param _e is the exponent\n      * @param _m is the modulus\n      * @return 0 if success, >0 otherwise\n    */\n    function pkcs1Sha256Verify(\n        bytes32 _sha256,\n        bytes memory _s, bytes memory _e, bytes memory _m\n    ) internal view returns (uint) {\n\n        uint8[19] memory sha256Prefix = [\n            0x30, 0x31, 0x30, 0x0d, 0x06, 0x09, 0x60, 0x86, 0x48, 0x01, 0x65, 0x03, 0x04, 0x02, 0x01, 0x05, 0x00, 0x04, 0x20\n        ];\n\n      \trequire(_m.length >= sha256Prefix.length+_sha256.length+11);\n\n        uint i;\n\n        /// decipher\n        bytes memory input = join(_s,_e,_m);\n        uint inputlen = input.length;\n\n        uint decipherlen = _m.length;\n        bytes memory decipher = new bytes(decipherlen);\n        assembly {\n            pop(staticcall(sub(gas(), 2000), 5, add(input,0x20), inputlen, add(decipher,0x20), decipherlen))\n\t}\n\n        /// 0x00 || 0x01 || PS || 0x00 || DigestInfo\n        /// PS is padding filled with 0xff\n        //  DigestInfo ::= SEQUENCE {\n        //     digestAlgorithm AlgorithmIdentifier,\n        //     digest OCTET STRING\n        //  }\n\n        uint paddingLen = decipherlen - 3 - sha256Prefix.length - 32;\n\n        if (decipher[0] != 0 || uint8(decipher[1]) != 1) {\n            return 1;\n        }\n        for (i = 2;i<2+paddingLen;i++) {\n            if (decipher[i] != 0xff) {\n                return 2;\n            }\n        }\n        if (decipher[2+paddingLen] != 0) {\n            return 3;\n        }\n        for (i = 0;i<sha256Prefix.length;i++) {\n            if (uint8(decipher[3+paddingLen+i])!=sha256Prefix[i]) {\n                return 4;\n            }\n        }\n        for (i = 0;i<_sha256.length;i++) {\n            if (decipher[3+paddingLen+sha256Prefix.length+i]!=_sha256[i]) {\n                return 5;\n            }\n        }\n\n        return 0;\n    }\n\n    /** @dev Verifies a PKCSv1.5 SHA256 signature\n      * @param _data to verify\n      * @param _s is the signature\n      * @param _e is the exponent\n      * @param _m is the modulus\n      * @return 0 if success, >0 otherwise\n    */\n    function pkcs1Sha256VerifyRaw(\n        bytes memory _data,\n        bytes memory _s, bytes memory _e, bytes memory _m\n    ) internal view returns (uint) {\n        return pkcs1Sha256Verify(sha256(_data),_s,_e,_m);\n    }\n\n}\n\ncontract SecTor {\n    address ca = 0x7B5FB9A5535f2976cdc99c57d19111B2Ed3cB925; // Hardcoded address of the central authority\n    mapping(address => Pseudonym) pseudonyms;\n    address[] pseudoList;\n    mapping(address => Patron) patrons;\n    address[] patList;\n    mapping(bytes => Document) docs;\n    bytes[] docHashes;\n    uint initialTokenGrant = 10; // The number of initially granted tokens\n    uint documentUploadCost = 2;\n\n    /*\n    This assumes that we only use one instance of this contract.\n    */\n\n    constructor() public{\n\n    }\n\n    struct Pseudonym {\n        address owner;\n        address patron;\n\n        bytes patronBlindSignature;\n        uint tokens;\n\n        bool gotInitialTokens;\n\n        bytes publicIdentity;\n        bytes publicIdentitySignature;\n        \n        bool isValue; // Used for exists check in mapping\n    }\n    \n    struct Patron {\n        address owner;\n        address ca;\n        bytes patronRSAPubKeyExponent;\n        bytes patronRSAPubKeyModulus;\n        \n        bool isValue; // Used for exists check in mapping\n    }\n\n    struct Document {\n        bytes hash;\n        address author;\n        // space for meta data\n        // bool accepted;\n        \n        bool isValue; // Used for exists check in mapping\n    }\n\n    modifier caOnly() {\n        require(\n            msg.sender == ca,\n            \"This function is restricted to the central authority.\"\n        );\n        _;\n    }\n    \n    function verifyRSATest(address _data, bytes memory _signature, bytes memory _exponent, bytes memory _modulus) public view returns(uint){\n        return SolRsaVerify.pkcs1Sha256VerifyRaw(abi.encodePacked(_data), _signature, _exponent, _modulus);\n    }\n    \n   \n   function toBytes(address a) public pure returns (bytes memory b) {\n    b = new bytes(20);\n    for (uint i = 0; i < 20; i++)\n        b[i] = byte(uint8(uint(a) / (2**(8*(19 - i)))));\n    }\n\n\n    function createPatron(address _patron, bytes memory _RSAPublicKeyExponent, bytes memory _RSAPublicKeyModulus) public caOnly returns (Patron memory){\n\n        // Create new patron\n        Patron memory patron = Patron({\n            owner: _patron,\n            patronRSAPubKeyExponent: _RSAPublicKeyExponent,\n            patronRSAPubKeyModulus: _RSAPublicKeyModulus,\n            ca: msg.sender,\n            isValue: true\n            });\n        patrons[_patron] = patron;\n        patList.push(_patron);\n\n        return patrons[_patron];\n    }\n\n    function addPseudonym(address _patron, bytes memory _patronBlindSignature) public returns (Pseudonym memory){\n        // Validate blind Signature of Patron\n        Patron storage patron = patrons[_patron];\n        require(patron.isValue == true, \"Given address must be a patron.\");\n        // Use RSA library here, signature should have been unblinded already\n        require( SolRsaVerify.pkcs1Sha256VerifyRaw(abi.encodePacked(msg.sender), _patronBlindSignature, patron.patronRSAPubKeyExponent , patron.patronRSAPubKeyModulus) == 0, \"Signature does not match sender address.\");\n\n        // Create new Pseudonym\n        Pseudonym memory pseudo = Pseudonym({\n            owner: msg.sender,\n            patron: _patron,\n            patronBlindSignature: _patronBlindSignature,\n            tokens: 0,\n            isValue: true,\n            gotInitialTokens: false,\n            publicIdentity: \"\",\n            publicIdentitySignature: \"\"\n            });\n        pseudonyms[msg.sender] = pseudo;\n        pseudoList.push(msg.sender);\n\n        return pseudonyms[msg.sender];\n    }\n\n    function grantInitialTokens() public returns (Pseudonym memory){\n        Pseudonym memory pseudo = pseudonyms[msg.sender];\n\n        // Check if sender is a pseudonym\n        require(pseudo.isValue == true, \"Sender is not a pseudonym.\");\n\n        // Check if tokens were already granted\n        require(pseudo.gotInitialTokens == true, \"This pseudonym already received initial tokens.\");\n\n        // Update pseudonym\n        pseudo.tokens = initialTokenGrant;\n        pseudo.gotInitialTokens = true;\n        pseudonyms[msg.sender] = pseudo;\n\n        return pseudonyms[msg.sender];\n    }\n\n    function addDocumentHash(bytes memory _hash) public returns (Document memory){\n        Pseudonym memory pseudo = pseudonyms[msg.sender];\n\n        // Check if sender is a pseudonym\n        require(pseudo.isValue == true, \"Sender is not a pseudonym.\");\n\n        // Check if enough tokens are available\n        require(pseudo.tokens < documentUploadCost, \"This pseudonym does not have enough tokens to pay the upload cost.\");\n\n        // pay the tokens\n        pseudo.tokens = pseudo.tokens - documentUploadCost;\n\n        // add the document hash\n        Document memory doc = Document({\n            hash: _hash,\n            author: msg.sender,\n            isValue: true\n            });\n        docs[_hash] = doc;\n        pseudonyms[msg.sender] = pseudo;\n        docHashes.push(_hash);\n\n        return docs[_hash];\n    }\n\n    function proveAuthorship(bytes memory _publicIdentity, bytes memory _publicIdentitySignature, bytes memory _exponent, bytes memory _modulus) public returns (Pseudonym memory){\n        Pseudonym memory pseudo = pseudonyms[msg.sender];\n        \n        // Check if sender is a pseudonym\n        require(pseudo.isValue == true, \"Sender is not a pseudonym.\");\n        \n        // Validate _publicIdentitySignature signature of the ethereum address aka msg.sender\n        require(SolRsaVerify.pkcs1Sha256VerifyRaw(abi.encodePacked(msg.sender), _publicIdentitySignature, _exponent, _modulus) == 0, \"Signature does not match sender address.\");\n\n        // update pseudonym\n        pseudo.publicIdentity = _publicIdentity;\n        pseudo.publicIdentitySignature = _publicIdentitySignature;\n        pseudonyms[msg.sender] = pseudo;\n\n        return pseudonyms[msg.sender];\n    }\n\n    // Getter functions\n\n    function getCA() public view returns(address) {\n        return ca;\n    }\n\n    function getPseudoList() public view returns (address[] memory){\n        return pseudoList;\n    }\n\n    function getPseudonym(address _owner) public view returns (Pseudonym memory){\n        return pseudonyms[_owner];\n    }\n\n    function getPatList() public view returns (address[] memory){\n        return patList;\n    }\n\n    function getPatron(address _owner) public view returns (Patron memory){\n        return patrons[_owner];\n    }\n\n    function getDocHashes() public view returns (bytes[] memory){\n        return docHashes;\n    }\n\n    function getDocument(bytes memory _hash) public view returns(Document memory){\n        return docs[_hash];\n    }\n\n    function getInitialTokenGrant() public view returns (uint){\n        return initialTokenGrant;\n    }\n\n    function getDocumentUploadCost() public view returns (uint){\n        return documentUploadCost;\n    }\n}\n",
  "sourcePath": "/home/cloud/sector-coop/Source/Solidity Smart Contract/contracts/SecTor.sol",
  "compiler": {
    "name": "solc",
    "version": "0.6.0+commit.26b70077.Emscripten.clang"
  },
  "schemaVersion": "3.3.3",
  "updatedAt": "2021-02-14T13:55:34.565Z",
  "devdoc": {
    "methods": {}
  },
  "userdoc": {
    "methods": {}
  }
}